{"contracts/Election.sol":{"Election":{"abi":[{"inputs":[{"internalType":"string[]","name":"_firstNames","type":"string[]"},{"internalType":"string[]","name":"_lastNames","type":"string[]"},{"internalType":"string[]","name":"_emails","type":"string[]"},{"internalType":"string[]","name":"_genders","type":"string[]"},{"internalType":"string[]","name":"_positions","type":"string[]"},{"internalType":"string[]","name":"_manifestos","type":"string[]"}],"stateMutability":"nonpayable","type":"constructor"},{"anonymous":false,"inputs":[{"indexed":false,"internalType":"string","name":"message","type":"string"}],"name":"AdminAccessDenied","type":"event"},{"anonymous":false,"inputs":[{"indexed":false,"internalType":"uint256","name":"id","type":"uint256"},{"indexed":false,"internalType":"string","name":"firstName","type":"string"},{"indexed":false,"internalType":"string","name":"lastName","type":"string"},{"indexed":false,"internalType":"string","name":"email","type":"string"},{"indexed":false,"internalType":"string","name":"gender","type":"string"},{"indexed":false,"internalType":"string","name":"position","type":"string"},{"indexed":false,"internalType":"string","name":"manifesto","type":"string"}],"name":"CandidateRegistered","type":"event"},{"anonymous":false,"inputs":[{"indexed":false,"internalType":"string","name":"position","type":"string"},{"indexed":false,"internalType":"string","name":"winner","type":"string"}],"name":"ElectionResult","type":"event"},{"anonymous":false,"inputs":[{"indexed":false,"internalType":"string","name":"position","type":"string"},{"indexed":false,"internalType":"string","name":"winner","type":"string"},{"indexed":false,"internalType":"uint256","name":"voteCount","type":"uint256"}],"name":"ElectionResultss","type":"event"},{"anonymous":false,"inputs":[{"indexed":true,"internalType":"address","name":"voterAddress","type":"address"},{"indexed":true,"internalType":"uint256","name":"candidateId","type":"uint256"}],"name":"VoteCast","type":"event"},{"anonymous":false,"inputs":[{"indexed":true,"internalType":"address","name":"voterAddress","type":"address"},{"indexed":false,"internalType":"string","name":"firstName","type":"string"},{"indexed":false,"internalType":"string","name":"lastName","type":"string"},{"indexed":false,"internalType":"string","name":"email","type":"string"},{"indexed":false,"internalType":"uint256","name":"age","type":"uint256"},{"indexed":false,"internalType":"string","name":"gender","type":"string"},{"indexed":false,"internalType":"string","name":"nationality","type":"string"}],"name":"VoterRegistered","type":"event"},{"inputs":[],"name":"admin","outputs":[{"internalType":"address","name":"","type":"address"}],"stateMutability":"view","type":"function"},{"inputs":[],"name":"candidateCount","outputs":[{"internalType":"uint256","name":"","type":"uint256"}],"stateMutability":"view","type":"function"},{"inputs":[{"internalType":"string","name":"","type":"string"}],"name":"candidateEmailExists","outputs":[{"internalType":"bool","name":"","type":"bool"}],"stateMutability":"view","type":"function"},{"inputs":[{"internalType":"uint256","name":"","type":"uint256"}],"name":"candidates","outputs":[{"internalType":"uint256","name":"id","type":"uint256"},{"internalType":"string","name":"firstName","type":"string"},{"internalType":"string","name":"lastName","type":"string"},{"internalType":"string","name":"email","type":"string"},{"internalType":"string","name":"gender","type":"string"},{"internalType":"string","name":"position","type":"string"},{"internalType":"string","name":"manifesto","type":"string"},{"internalType":"uint256","name":"voteCount","type":"uint256"},{"internalType":"bool","name":"registered","type":"bool"}],"stateMutability":"view","type":"function"},{"inputs":[],"name":"electionStarted","outputs":[{"internalType":"bool","name":"","type":"bool"}],"stateMutability":"view","type":"function"},{"inputs":[],"name":"endElection","outputs":[],"stateMutability":"nonpayable","type":"function"},{"inputs":[],"name":"getCandidateList","outputs":[{"components":[{"internalType":"uint256","name":"id","type":"uint256"},{"internalType":"string","name":"firstName","type":"string"},{"internalType":"string","name":"lastName","type":"string"},{"internalType":"string","name":"email","type":"string"},{"internalType":"string","name":"gender","type":"string"},{"internalType":"string","name":"position","type":"string"},{"internalType":"string","name":"manifesto","type":"string"},{"internalType":"uint256","name":"voteCount","type":"uint256"},{"internalType":"bool","name":"registered","type":"bool"},{"internalType":"address[]","name":"votersWhoVotedForCandidate","type":"address[]"}],"internalType":"struct Election.Candidate[]","name":"","type":"tuple[]"}],"stateMutability":"view","type":"function"},{"inputs":[{"internalType":"uint256","name":"","type":"uint256"}],"name":"positions","outputs":[{"internalType":"string","name":"","type":"string"}],"stateMutability":"view","type":"function"},{"inputs":[{"internalType":"string","name":"_firstName","type":"string"},{"internalType":"string","name":"_lastName","type":"string"},{"internalType":"string","name":"_email","type":"string"},{"internalType":"string","name":"_gender","type":"string"},{"internalType":"string","name":"_position","type":"string"},{"internalType":"string","name":"_manifesto","type":"string"}],"name":"registerCandidate","outputs":[],"stateMutability":"nonpayable","type":"function"},{"inputs":[{"internalType":"string","name":"_firstName","type":"string"},{"internalType":"string","name":"_lastName","type":"string"},{"internalType":"string","name":"_email","type":"string"},{"internalType":"uint256","name":"_age","type":"uint256"},{"internalType":"string","name":"_gender","type":"string"},{"internalType":"string","name":"_nationality","type":"string"}],"name":"registerVoter","outputs":[],"stateMutability":"nonpayable","type":"function"},{"inputs":[],"name":"startElection","outputs":[],"stateMutability":"nonpayable","type":"function"},{"inputs":[{"internalType":"uint256","name":"_candidateId","type":"uint256"}],"name":"vote","outputs":[],"stateMutability":"nonpayable","type":"function"},{"inputs":[{"internalType":"string","name":"","type":"string"}],"name":"voterEmailExists","outputs":[{"internalType":"bool","name":"","type":"bool"}],"stateMutability":"view","type":"function"},{"inputs":[{"internalType":"address","name":"","type":"address"}],"name":"voters","outputs":[{"internalType":"string","name":"firstName","type":"string"},{"internalType":"string","name":"lastName","type":"string"},{"internalType":"string","name":"email","type":"string"},{"internalType":"uint256","name":"age","type":"uint256"},{"internalType":"string","name":"gender","type":"string"},{"internalType":"string","name":"nationality","type":"string"},{"internalType":"bool","name":"voted","type":"bool"}],"stateMutability":"view","type":"function"}],"evm":{"bytecode":{"linkReferences":{},"object":"608060405260405180606001604052806040518060400160405280600981526020017f507265736964656e74000000000000000000000000000000000000000000000081525081526020016040518060400160405280600e81526020017f5669636520507265736964656e7400000000000000000000000000000000000081525081526020016040518060400160405280600781526020017f53656e61746f72000000000000000000000000000000000000000000000000008152508152506006906003620000d09291906200050f565b50348015620000de57600080fd5b50604051620045483803806200454883398181016040528101906200010491906200091a565b336000806101000a81548173ffffffffffffffffffffffffffffffffffffffff021916908373ffffffffffffffffffffffffffffffffffffffff1602179055508451865114801562000157575083518551145b801562000165575082518451145b801562000173575081518351145b801562000181575080518251145b620001c3576040517f08c379a0000000000000000000000000000000000000000000000000000000008152600401620001ba9062000ad1565b60405180910390fd5b60005b8651811015620004fa5760606001604051806101400160405280600185620001ef919062000b2c565b81526020018a85815181106200020a576200020962000b67565b5b602002602001015181526020018985815181106200022d576200022c62000b67565b5b6020026020010151815260200188858151811062000250576200024f62000b67565b5b6020026020010151815260200187858151811062000273576200027262000b67565b5b6020026020010151815260200186858151811062000296576200029562000b67565b5b60200260200101518152602001858581518110620002b957620002b862000b67565b5b60200260200101518152602001600081526020016001151581526020018381525090806001815401808255809150506001900390600052602060002090600a020160009091909190915060008201518160000155602082015181600101908162000324919062000dd7565b5060408201518160020190816200033c919062000dd7565b50606082015181600301908162000354919062000dd7565b5060808201518160040190816200036c919062000dd7565b5060a082015181600501908162000384919062000dd7565b5060c08201518160060190816200039c919062000dd7565b5060e082015181600701556101008201518160080160006101000a81548160ff021916908315150217905550610120820151816009019080519060200190620003e79291906200056f565b5050507fcdc63be4a9722ee4b9b2d4e39199d658bd01d6a91201c97399dd7926ad13bd006001836200041a919062000b2c565b89848151811062000430576200042f62000b67565b5b60200260200101518985815181106200044e576200044d62000b67565b5b60200260200101518986815181106200046c576200046b62000b67565b5b60200260200101518987815181106200048a576200048962000b67565b5b6020026020010151898881518110620004a857620004a762000b67565b5b6020026020010151898981518110620004c657620004c562000b67565b5b6020026020010151604051620004e3979695949392919062000f10565b60405180910390a1508080600101915050620001c6565b50855160058190555050505050505062000fb7565b8280548282559060005260206000209081019282156200055c579160200282015b828111156200055b5782518290816200054a919062000dd7565b509160200191906001019062000530565b5b5090506200056b9190620005fe565b5090565b828054828255906000526020600020908101928215620005eb579160200282015b82811115620005ea5782518260006101000a81548173ffffffffffffffffffffffffffffffffffffffff021916908373ffffffffffffffffffffffffffffffffffffffff1602179055509160200191906001019062000590565b5b509050620005fa919062000626565b5090565b5b8082111562000622576000818162000618919062000645565b50600101620005ff565b5090565b5b808211156200064157600081600090555060010162000627565b5090565b508054620006539062000bd0565b6000825580601f1062000667575062000688565b601f01602090049060005260206000209081019062000687919062000626565b5b50565b6000604051905090565b600080fd5b600080fd5b600080fd5b6000601f19601f8301169050919050565b7f4e487b7100000000000000000000000000000000000000000000000000000000600052604160045260246000fd5b620006ef82620006a4565b810181811067ffffffffffffffff82111715620007115762000710620006b5565b5b80604052505050565b6000620007266200068b565b9050620007348282620006e4565b919050565b600067ffffffffffffffff821115620007575762000756620006b5565b5b602082029050602081019050919050565b600080fd5b600080fd5b600067ffffffffffffffff82111562000790576200078f620006b5565b5b6200079b82620006a4565b9050602081019050919050565b60005b83811015620007c8578082015181840152602081019050620007ab565b60008484015250505050565b6000620007eb620007e58462000772565b6200071a565b9050828152602081018484840111156200080a57620008096200076d565b5b62000817848285620007a8565b509392505050565b600082601f8301126200083757620008366200069f565b5b815162000849848260208601620007d4565b91505092915050565b600062000869620008638462000739565b6200071a565b905080838252602082019050602084028301858111156200088f576200088e62000768565b5b835b81811015620008dd57805167ffffffffffffffff811115620008b857620008b76200069f565b5b808601620008c789826200081f565b8552602085019450505060208101905062000891565b5050509392505050565b600082601f830112620008ff57620008fe6200069f565b5b81516200091184826020860162000852565b91505092915050565b60008060008060008060c087890312156200093a576200093962000695565b5b600087015167ffffffffffffffff8111156200095b576200095a6200069a565b5b6200096989828a01620008e7565b965050602087015167ffffffffffffffff8111156200098d576200098c6200069a565b5b6200099b89828a01620008e7565b955050604087015167ffffffffffffffff811115620009bf57620009be6200069a565b5b620009cd89828a01620008e7565b945050606087015167ffffffffffffffff811115620009f157620009f06200069a565b5b620009ff89828a01620008e7565b935050608087015167ffffffffffffffff81111562000a235762000a226200069a565b5b62000a3189828a01620008e7565b92505060a087015167ffffffffffffffff81111562000a555762000a546200069a565b5b62000a6389828a01620008e7565b9150509295509295509295565b600082825260208201905092915050565b7f5f5f5f496e76616c696420696e707574206c656e677468735f5f5f0000000000600082015250565b600062000ab9601b8362000a70565b915062000ac68262000a81565b602082019050919050565b6000602082019050818103600083015262000aec8162000aaa565b9050919050565b6000819050919050565b7f4e487b7100000000000000000000000000000000000000000000000000000000600052601160045260246000fd5b600062000b398262000af3565b915062000b468362000af3565b925082820190508082111562000b615762000b6062000afd565b5b92915050565b7f4e487b7100000000000000000000000000000000000000000000000000000000600052603260045260246000fd5b600081519050919050565b7f4e487b7100000000000000000000000000000000000000000000000000000000600052602260045260246000fd5b6000600282049050600182168062000be957607f821691505b60208210810362000bff5762000bfe62000ba1565b5b50919050565b60008190508160005260206000209050919050565b60006020601f8301049050919050565b600082821b905092915050565b60006008830262000c697fffffffffffffffffffffffffffffffffffffffffffffffffffffffffffffffff8262000c2a565b62000c75868362000c2a565b95508019841693508086168417925050509392505050565b6000819050919050565b600062000cb862000cb262000cac8462000af3565b62000c8d565b62000af3565b9050919050565b6000819050919050565b62000cd48362000c97565b62000cec62000ce38262000cbf565b84845462000c37565b825550505050565b600090565b62000d0362000cf4565b62000d1081848462000cc9565b505050565b5b8181101562000d385762000d2c60008262000cf9565b60018101905062000d16565b5050565b601f82111562000d875762000d518162000c05565b62000d5c8462000c1a565b8101602085101562000d6c578190505b62000d8462000d7b8562000c1a565b83018262000d15565b50505b505050565b600082821c905092915050565b600062000dac6000198460080262000d8c565b1980831691505092915050565b600062000dc7838362000d99565b9150826002028217905092915050565b62000de28262000b96565b67ffffffffffffffff81111562000dfe5762000dfd620006b5565b5b62000e0a825462000bd0565b62000e1782828562000d3c565b600060209050601f83116001811462000e4f576000841562000e3a578287015190505b62000e46858262000db9565b86555062000eb6565b601f19841662000e5f8662000c05565b60005b8281101562000e895784890151825560018201915060208501945060208101905062000e62565b8683101562000ea9578489015162000ea5601f89168262000d99565b8355505b6001600288020188555050505b505050505050565b62000ec98162000af3565b82525050565b600062000edc8262000b96565b62000ee8818562000a70565b935062000efa818560208601620007a8565b62000f0581620006a4565b840191505092915050565b600060e08201905062000f27600083018a62000ebe565b818103602083015262000f3b818962000ecf565b9050818103604083015262000f51818862000ecf565b9050818103606083015262000f67818762000ecf565b9050818103608083015262000f7d818662000ecf565b905081810360a083015262000f93818562000ecf565b905081810360c083015262000fa9818462000ecf565b905098975050505050505050565b6135818062000fc76000396000f3fe608060405234801561001057600080fd5b50600436106100ea5760003560e01c8063a9a981a31161008c578063dec963d511610066578063dec963d514610245578063f1a6830214610275578063f851a44014610291578063fdbc4006146102af576100ea565b8063a9a981a3146101ed578063b70ddeed1461020b578063d5346da114610227576100ea565b806362d73eb8116100c857806362d73eb81461014d57806399fbab8814610157578063a3ec138d14610187578063a5499a31146101bd576100ea565b80630121b93f146100ef5780633477ee2e1461010b57806359f7846814610143575b600080fd5b61010960048036038101906101049190611e7a565b6102cd565b005b61012560048036038101906101209190611e7a565b610830565b60405161013a99989796959493929190611f61565b60405180910390f35b61014b610bcb565b005b610155610cc4565b005b610171600480360381019061016c9190611e7a565b610d6f565b60405161017e9190612018565b60405180910390f35b6101a1600480360381019061019c9190612098565b610e1b565b6040516101b497969594939291906120c5565b60405180910390f35b6101d760048036038101906101d2919061228c565b611112565b6040516101e491906122d5565b60405180910390f35b6101f5611148565b60405161020291906122f0565b60405180910390f35b6102256004803603810190610220919061230b565b61114e565b005b61022f61147f565b60405161023c91906122d5565b60405180910390f35b61025f600480360381019061025a919061228c565b611492565b60405161026c91906122d5565b60405180910390f35b61028f600480360381019061028a9190612424565b6114c8565b005b6102996118dc565b6040516102a69190612568565b60405180910390f35b6102b7611900565b6040516102c4919061286f565b60405180910390f35b600060149054906101000a900460ff1661031c576040517f08c379a000000000000000000000000000000000000000000000000000000000815260040161031390612903565b60405180910390fd5b60008111801561033157506001805490508111155b610370576040517f08c379a00000000000000000000000000000000000000000000000000000000081526004016103679061296f565b60405180910390fd5b6001808261037e91906129be565b8154811061038f5761038e6129f2565b5b90600052602060002090600a020160080160009054906101000a900460ff166103ed576040517f08c379a00000000000000000000000000000000000000000000000000000000081526004016103e490612a93565b60405180910390fd5b6000600260003373ffffffffffffffffffffffffffffffffffffffff1673ffffffffffffffffffffffffffffffffffffffff168152602001908152602001600020600001805461043c90612ae2565b90501161047e576040517f08c379a000000000000000000000000000000000000000000000000000000000815260040161047590612b85565b60405180910390fd5b60006001808361048e91906129be565b8154811061049f5761049e6129f2565b5b90600052602060002090600a020160050180546104bb90612ae2565b80601f01602080910402602001604051908101604052809291908181526020018280546104e790612ae2565b80156105345780601f1061050957610100808354040283529160200191610534565b820191906000526020600020905b81548152906001019060200180831161051757829003601f168201915b50505050509050600260003373ffffffffffffffffffffffffffffffffffffffff1673ffffffffffffffffffffffffffffffffffffffff1681526020019081526020016000206006018160405161058b9190612be1565b908152602001604051809103902060009054906101000a900460ff1615806106005750600260003373ffffffffffffffffffffffffffffffffffffffff1673ffffffffffffffffffffffffffffffffffffffff16815260200190815260200160002060070160009054906101000a900460ff16155b61063f576040517f08c379a000000000000000000000000000000000000000000000000000000000815260040161063690612c6a565b60405180910390fd5b6001808361064d91906129be565b8154811061065e5761065d6129f2565b5b90600052602060002090600a0201600701600081548092919061068090612c8a565b91905055506001808361069391906129be565b815481106106a4576106a36129f2565b5b90600052602060002090600a0201600901339080600181540180825580915050600190039060005260206000200160009091909190916101000a81548173ffffffffffffffffffffffffffffffffffffffff021916908373ffffffffffffffffffffffffffffffffffffffff1602179055506001600260003373ffffffffffffffffffffffffffffffffffffffff1673ffffffffffffffffffffffffffffffffffffffff168152602001908152602001600020600601826040516107689190612be1565b908152602001604051809103902060006101000a81548160ff0219169083151502179055506001600260003373ffffffffffffffffffffffffffffffffffffffff1673ffffffffffffffffffffffffffffffffffffffff16815260200190815260200160002060070160006101000a81548160ff021916908315150217905550813373ffffffffffffffffffffffffffffffffffffffff167fa36cc2bebb74db33e9f88110a07ef56e1b31b24b4c4f51b54b1664266e29f45b60405160405180910390a35050565b6001818154811061084057600080fd5b90600052602060002090600a020160009150905080600001549080600101805461086990612ae2565b80601f016020809104026020016040519081016040528092919081815260200182805461089590612ae2565b80156108e25780601f106108b7576101008083540402835291602001916108e2565b820191906000526020600020905b8154815290600101906020018083116108c557829003601f168201915b5050505050908060020180546108f790612ae2565b80601f016020809104026020016040519081016040528092919081815260200182805461092390612ae2565b80156109705780601f1061094557610100808354040283529160200191610970565b820191906000526020600020905b81548152906001019060200180831161095357829003601f168201915b50505050509080600301805461098590612ae2565b80601f01602080910402602001604051908101604052809291908181526020018280546109b190612ae2565b80156109fe5780601f106109d3576101008083540402835291602001916109fe565b820191906000526020600020905b8154815290600101906020018083116109e157829003601f168201915b505050505090806004018054610a1390612ae2565b80601f0160208091040260200160405190810160405280929190818152602001828054610a3f90612ae2565b8015610a8c5780601f10610a6157610100808354040283529160200191610a8c565b820191906000526020600020905b815481529060010190602001808311610a6f57829003601f168201915b505050505090806005018054610aa190612ae2565b80601f0160208091040260200160405190810160405280929190818152602001828054610acd90612ae2565b8015610b1a5780601f10610aef57610100808354040283529160200191610b1a565b820191906000526020600020905b815481529060010190602001808311610afd57829003601f168201915b505050505090806006018054610b2f90612ae2565b80601f0160208091040260200160405190810160405280929190818152602001828054610b5b90612ae2565b8015610ba85780601f10610b7d57610100808354040283529160200191610ba8565b820191906000526020600020905b815481529060010190602001808311610b8b57829003601f168201915b5050505050908060070154908060080160009054906101000a900460ff16905089565b60008054906101000a900473ffffffffffffffffffffffffffffffffffffffff1673ffffffffffffffffffffffffffffffffffffffff163373ffffffffffffffffffffffffffffffffffffffff1614610c58577f2371c57317c178ce4c0fbd44fea415f4f3e1e1bdbdd5177e7661c78f3a4f320b604051610c4b90612d44565b60405180910390a1610cc2565b600060149054906101000a900460ff16610ca7576040517f08c379a0000000000000000000000000000000000000000000000000000000008152600401610c9e90612903565b60405180910390fd5b60008060146101000a81548160ff0219169083151502179055505b565b60008054906101000a900473ffffffffffffffffffffffffffffffffffffffff1673ffffffffffffffffffffffffffffffffffffffff163373ffffffffffffffffffffffffffffffffffffffff1614610d51577f2371c57317c178ce4c0fbd44fea415f4f3e1e1bdbdd5177e7661c78f3a4f320b604051610d4490612d44565b60405180910390a1610d6d565b6001600060146101000a81548160ff0219169083151502179055505b565b60068181548110610d7f57600080fd5b906000526020600020016000915090508054610d9a90612ae2565b80601f0160208091040260200160405190810160405280929190818152602001828054610dc690612ae2565b8015610e135780601f10610de857610100808354040283529160200191610e13565b820191906000526020600020905b815481529060010190602001808311610df657829003601f168201915b505050505081565b6002602052806000526040600020600091509050806000018054610e3e90612ae2565b80601f0160208091040260200160405190810160405280929190818152602001828054610e6a90612ae2565b8015610eb75780601f10610e8c57610100808354040283529160200191610eb7565b820191906000526020600020905b815481529060010190602001808311610e9a57829003601f168201915b505050505090806001018054610ecc90612ae2565b80601f0160208091040260200160405190810160405280929190818152602001828054610ef890612ae2565b8015610f455780601f10610f1a57610100808354040283529160200191610f45565b820191906000526020600020905b815481529060010190602001808311610f2857829003601f168201915b505050505090806002018054610f5a90612ae2565b80601f0160208091040260200160405190810160405280929190818152602001828054610f8690612ae2565b8015610fd35780601f10610fa857610100808354040283529160200191610fd3565b820191906000526020600020905b815481529060010190602001808311610fb657829003601f168201915b505050505090806003015490806004018054610fee90612ae2565b80601f016020809104026020016040519081016040528092919081815260200182805461101a90612ae2565b80156110675780601f1061103c57610100808354040283529160200191611067565b820191906000526020600020905b81548152906001019060200180831161104a57829003601f168201915b50505050509080600501805461107c90612ae2565b80601f01602080910402602001604051908101604052809291908181526020018280546110a890612ae2565b80156110f55780601f106110ca576101008083540402835291602001916110f5565b820191906000526020600020905b8154815290600101906020018083116110d857829003601f168201915b5050505050908060070160009054906101000a900460ff16905087565b6003818051602081018201805184825260208301602085012081835280955050505050506000915054906101000a900460ff1681565b60055481565b60008651118015611160575060008551115b61119f576040517f08c379a000000000000000000000000000000000000000000000000000000000815260040161119690612dd6565b60405180910390fd5b60008451116111e3576040517f08c379a00000000000000000000000000000000000000000000000000000000081526004016111da90612e42565b60405180910390fd5b6012831015611227576040517f08c379a000000000000000000000000000000000000000000000000000000000815260040161121e90612ed4565b60405180910390fd5b6004846040516112379190612be1565b908152602001604051809103902060009054906101000a900460ff1615611293576040517f08c379a000000000000000000000000000000000000000000000000000000000815260040161128a90612f66565b60405180910390fd5b6000600260003373ffffffffffffffffffffffffffffffffffffffff1673ffffffffffffffffffffffffffffffffffffffff16815260200190815260200160002060000180546112e290612ae2565b905014611324576040517f08c379a000000000000000000000000000000000000000000000000000000000815260040161131b90612ff8565b60405180910390fd5b6000600260003373ffffffffffffffffffffffffffffffffffffffff1673ffffffffffffffffffffffffffffffffffffffff16815260200190815260200160002090508681600001908161137891906131c4565b508581600101908161138a91906131c4565b508481600201908161139c91906131c4565b50838160030181905550828160040190816113b791906131c4565b50818160050190816113c991906131c4565b5060008160070160006101000a81548160ff02191690831515021790555060016004866040516113f99190612be1565b908152602001604051809103902060006101000a81548160ff0219169083151502179055503373ffffffffffffffffffffffffffffffffffffffff167fccad38708687df5dfce467bfbba52384231a28b8bd086df4175aa538a803f96b88888888888860405161146e96959493929190613296565b60405180910390a250505050505050565b600060149054906101000a900460ff1681565b6004818051602081018201805184825260208301602085012081835280955050505050506000915054906101000a900460ff1681565b60008054906101000a900473ffffffffffffffffffffffffffffffffffffffff1673ffffffffffffffffffffffffffffffffffffffff163373ffffffffffffffffffffffffffffffffffffffff1614611555577f2371c57317c178ce4c0fbd44fea415f4f3e1e1bdbdd5177e7661c78f3a4f320b60405161154890612d44565b60405180910390a16118d4565b816000805b6006805490508110156115ed57826040516020016115789190612be1565b60405160208183030381529060405280519060200120600682815481106115a2576115a16129f2565b5b906000526020600020016040516020016115bc919061339d565b60405160208183030381529060405280519060200120036115e057600191506115ed565b808060010191505061155a565b508061162e576040517f08c379a000000000000000000000000000000000000000000000000000000000815260040161162590613400565b60405180910390fd5b600060149054906101000a900460ff161561167e576040517f08c379a000000000000000000000000000000000000000000000000000000000815260040161167590613492565b60405180910390fd5b60038660405161168e9190612be1565b908152602001604051809103902060009054906101000a900460ff16156116ea576040517f08c379a00000000000000000000000000000000000000000000000000000000081526004016116e190612f66565b60405180910390fd5b600560008154809291906116fd90612c8a565b91905055506060600160405180610140016040528060055481526020018b81526020018a8152602001898152602001888152602001878152602001868152602001600081526020016001151581526020018381525090806001815401808255809150506001900390600052602060002090600a020160009091909190915060008201518160000155602082015181600101908161179a91906131c4565b5060408201518160020190816117b091906131c4565b5060608201518160030190816117c691906131c4565b5060808201518160040190816117dc91906131c4565b5060a08201518160050190816117f291906131c4565b5060c082015181600601908161180891906131c4565b5060e082015181600701556101008201518160080160006101000a81548160ff021916908315150217905550610120820151816009019080519060200190611851929190611d89565b50505060016003886040516118669190612be1565b908152602001604051809103902060006101000a81548160ff0219169083151502179055507fcdc63be4a9722ee4b9b2d4e39199d658bd01d6a91201c97399dd7926ad13bd006005548a8a8a8a8a8a6040516118c897969594939291906134b2565b60405180910390a15050505b505050505050565b60008054906101000a900473ffffffffffffffffffffffffffffffffffffffff1681565b60606001805480602002602001604051908101604052809291908181526020016000905b82821015611d8057838290600052602060002090600a0201604051806101400160405290816000820154815260200160018201805461196290612ae2565b80601f016020809104026020016040519081016040528092919081815260200182805461198e90612ae2565b80156119db5780601f106119b0576101008083540402835291602001916119db565b820191906000526020600020905b8154815290600101906020018083116119be57829003601f168201915b505050505081526020016002820180546119f490612ae2565b80601f0160208091040260200160405190810160405280929190818152602001828054611a2090612ae2565b8015611a6d5780601f10611a4257610100808354040283529160200191611a6d565b820191906000526020600020905b815481529060010190602001808311611a5057829003601f168201915b50505050508152602001600382018054611a8690612ae2565b80601f0160208091040260200160405190810160405280929190818152602001828054611ab290612ae2565b8015611aff5780601f10611ad457610100808354040283529160200191611aff565b820191906000526020600020905b815481529060010190602001808311611ae257829003601f168201915b50505050508152602001600482018054611b1890612ae2565b80601f0160208091040260200160405190810160405280929190818152602001828054611b4490612ae2565b8015611b915780601f10611b6657610100808354040283529160200191611b91565b820191906000526020600020905b815481529060010190602001808311611b7457829003601f168201915b50505050508152602001600582018054611baa90612ae2565b80601f0160208091040260200160405190810160405280929190818152602001828054611bd690612ae2565b8015611c235780601f10611bf857610100808354040283529160200191611c23565b820191906000526020600020905b815481529060010190602001808311611c0657829003601f168201915b50505050508152602001600682018054611c3c90612ae2565b80601f0160208091040260200160405190810160405280929190818152602001828054611c6890612ae2565b8015611cb55780601f10611c8a57610100808354040283529160200191611cb5565b820191906000526020600020905b815481529060010190602001808311611c9857829003601f168201915b50505050508152602001600782015481526020016008820160009054906101000a900460ff1615151515815260200160098201805480602002602001604051908101604052809291908181526020018280548015611d6857602002820191906000526020600020905b8160009054906101000a900473ffffffffffffffffffffffffffffffffffffffff1673ffffffffffffffffffffffffffffffffffffffff1681526020019060010190808311611d1e575b50505050508152505081526020019060010190611924565b50505050905090565b828054828255906000526020600020908101928215611e02579160200282015b82811115611e015782518260006101000a81548173ffffffffffffffffffffffffffffffffffffffff021916908373ffffffffffffffffffffffffffffffffffffffff16021790555091602001919060010190611da9565b5b509050611e0f9190611e13565b5090565b5b80821115611e2c576000816000905550600101611e14565b5090565b6000604051905090565b600080fd5b600080fd5b6000819050919050565b611e5781611e44565b8114611e6257600080fd5b50565b600081359050611e7481611e4e565b92915050565b600060208284031215611e9057611e8f611e3a565b5b6000611e9e84828501611e65565b91505092915050565b611eb081611e44565b82525050565b600081519050919050565b600082825260208201905092915050565b60005b83811015611ef0578082015181840152602081019050611ed5565b60008484015250505050565b6000601f19601f8301169050919050565b6000611f1882611eb6565b611f228185611ec1565b9350611f32818560208601611ed2565b611f3b81611efc565b840191505092915050565b60008115159050919050565b611f5b81611f46565b82525050565b600061012082019050611f77600083018c611ea7565b8181036020830152611f89818b611f0d565b90508181036040830152611f9d818a611f0d565b90508181036060830152611fb18189611f0d565b90508181036080830152611fc58188611f0d565b905081810360a0830152611fd98187611f0d565b905081810360c0830152611fed8186611f0d565b9050611ffc60e0830185611ea7565b61200a610100830184611f52565b9a9950505050505050505050565b600060208201905081810360008301526120328184611f0d565b905092915050565b600073ffffffffffffffffffffffffffffffffffffffff82169050919050565b60006120658261203a565b9050919050565b6120758161205a565b811461208057600080fd5b50565b6000813590506120928161206c565b92915050565b6000602082840312156120ae576120ad611e3a565b5b60006120bc84828501612083565b91505092915050565b600060e08201905081810360008301526120df818a611f0d565b905081810360208301526120f38189611f0d565b905081810360408301526121078188611f0d565b90506121166060830187611ea7565b81810360808301526121288186611f0d565b905081810360a083015261213c8185611f0d565b905061214b60c0830184611f52565b98975050505050505050565b600080fd5b600080fd5b7f4e487b7100000000000000000000000000000000000000000000000000000000600052604160045260246000fd5b61219982611efc565b810181811067ffffffffffffffff821117156121b8576121b7612161565b5b80604052505050565b60006121cb611e30565b90506121d78282612190565b919050565b600067ffffffffffffffff8211156121f7576121f6612161565b5b61220082611efc565b9050602081019050919050565b82818337600083830152505050565b600061222f61222a846121dc565b6121c1565b90508281526020810184848401111561224b5761224a61215c565b5b61225684828561220d565b509392505050565b600082601f83011261227357612272612157565b5b813561228384826020860161221c565b91505092915050565b6000602082840312156122a2576122a1611e3a565b5b600082013567ffffffffffffffff8111156122c0576122bf611e3f565b5b6122cc8482850161225e565b91505092915050565b60006020820190506122ea6000830184611f52565b92915050565b60006020820190506123056000830184611ea7565b92915050565b60008060008060008060c0878903121561232857612327611e3a565b5b600087013567ffffffffffffffff81111561234657612345611e3f565b5b61235289828a0161225e565b965050602087013567ffffffffffffffff81111561237357612372611e3f565b5b61237f89828a0161225e565b955050604087013567ffffffffffffffff8111156123a05761239f611e3f565b5b6123ac89828a0161225e565b94505060606123bd89828a01611e65565b935050608087013567ffffffffffffffff8111156123de576123dd611e3f565b5b6123ea89828a0161225e565b92505060a087013567ffffffffffffffff81111561240b5761240a611e3f565b5b61241789828a0161225e565b9150509295509295509295565b60008060008060008060c0878903121561244157612440611e3a565b5b600087013567ffffffffffffffff81111561245f5761245e611e3f565b5b61246b89828a0161225e565b965050602087013567ffffffffffffffff81111561248c5761248b611e3f565b5b61249889828a0161225e565b955050604087013567ffffffffffffffff8111156124b9576124b8611e3f565b5b6124c589828a0161225e565b945050606087013567ffffffffffffffff8111156124e6576124e5611e3f565b5b6124f289828a0161225e565b935050608087013567ffffffffffffffff81111561251357612512611e3f565b5b61251f89828a0161225e565b92505060a087013567ffffffffffffffff8111156125405761253f611e3f565b5b61254c89828a0161225e565b9150509295509295509295565b6125628161205a565b82525050565b600060208201905061257d6000830184612559565b92915050565b600081519050919050565b600082825260208201905092915050565b6000819050602082019050919050565b6125b881611e44565b82525050565b600082825260208201905092915050565b60006125da82611eb6565b6125e481856125be565b93506125f4818560208601611ed2565b6125fd81611efc565b840191505092915050565b61261181611f46565b82525050565b600081519050919050565b600082825260208201905092915050565b6000819050602082019050919050565b61264c8161205a565b82525050565b600061265e8383612643565b60208301905092915050565b6000602082019050919050565b600061268282612617565b61268c8185612622565b935061269783612633565b8060005b838110156126c85781516126af8882612652565b97506126ba8361266a565b92505060018101905061269b565b5085935050505092915050565b6000610140830160008301516126ee60008601826125af565b506020830151848203602086015261270682826125cf565b9150506040830151848203604086015261272082826125cf565b9150506060830151848203606086015261273a82826125cf565b9150506080830151848203608086015261275482826125cf565b91505060a083015184820360a086015261276e82826125cf565b91505060c083015184820360c086015261278882826125cf565b91505060e083015161279d60e08601826125af565b506101008301516127b2610100860182612608565b506101208301518482036101208601526127cc8282612677565b9150508091505092915050565b60006127e583836126d5565b905092915050565b6000602082019050919050565b600061280582612583565b61280f818561258e565b9350836020820285016128218561259f565b8060005b8581101561285d578484038952815161283e85826127d9565b9450612849836127ed565b925060208a01995050600181019050612825565b50829750879550505050505092915050565b6000602082019050818103600083015261288981846127fa565b905092915050565b7f5f5f5f456c656374696f6e20686173206e6f742073746172746564207965745f60008201527f5f5f000000000000000000000000000000000000000000000000000000000000602082015250565b60006128ed602283611ec1565b91506128f882612891565b604082019050919050565b6000602082019050818103600083015261291c816128e0565b9050919050565b7f5f5f5f496e76616c69642063616e6469646174652049445f5f5f000000000000600082015250565b6000612959601a83611ec1565b915061296482612923565b602082019050919050565b600060208201905081810360008301526129888161294c565b9050919050565b7f4e487b7100000000000000000000000000000000000000000000000000000000600052601160045260246000fd5b60006129c982611e44565b91506129d483611e44565b92508282039050818111156129ec576129eb61298f565b5b92915050565b7f4e487b7100000000000000000000000000000000000000000000000000000000600052603260045260246000fd5b7f5f5f5f43616e646964617465206e6f7420666f756e64206f72206e6f7420726560008201527f67697374657265645f5f5f000000000000000000000000000000000000000000602082015250565b6000612a7d602b83611ec1565b9150612a8882612a21565b604082019050919050565b60006020820190508181036000830152612aac81612a70565b9050919050565b7f4e487b7100000000000000000000000000000000000000000000000000000000600052602260045260246000fd5b60006002820490506001821680612afa57607f821691505b602082108103612b0d57612b0c612ab3565b5b50919050565b7f5f5f5f596f7520617265206e6f742061207265676973746572656420766f746560008201527f725f5f5f00000000000000000000000000000000000000000000000000000000602082015250565b6000612b6f602483611ec1565b9150612b7a82612b13565b604082019050919050565b60006020820190508181036000830152612b9e81612b62565b9050919050565b600081905092915050565b6000612bbb82611eb6565b612bc58185612ba5565b9350612bd5818560208601611ed2565b80840191505092915050565b6000612bed8284612bb0565b915081905092915050565b7f5f5f5f596f75206861766520616c726561647920766f74656420666f7220612060008201527f63616e64696461746520696e207468697320706f736974696f6e5f5f5f000000602082015250565b6000612c54603d83611ec1565b9150612c5f82612bf8565b604082019050919050565b60006020820190508181036000830152612c8381612c47565b9050919050565b6000612c9582611e44565b91507fffffffffffffffffffffffffffffffffffffffffffffffffffffffffffffffff8203612cc757612cc661298f565b5b600182019050919050565b7f5f5f5f4f6e6c792061646d696e2063616e20706572666f726d2074686973206f60008201527f7065726174696f6e5f5f5f000000000000000000000000000000000000000000602082015250565b6000612d2e602b83611ec1565b9150612d3982612cd2565b604082019050919050565b60006020820190508181036000830152612d5d81612d21565b9050919050565b7f5f5f5f4669727374206e616d6520616e64206c617374206e616d652063616e6e60008201527f6f7420626520656d7074795f5f5f000000000000000000000000000000000000602082015250565b6000612dc0602e83611ec1565b9150612dcb82612d64565b604082019050919050565b60006020820190508181036000830152612def81612db3565b9050919050565b7f5f5f5f456d61696c2063616e6e6f7420626520656d7074795f5f5f0000000000600082015250565b6000612e2c601b83611ec1565b9150612e3782612df6565b602082019050919050565b60006020820190508181036000830152612e5b81612e1f565b9050919050565b7f5f5f5f416765206d75737420626520657175616c20746f206f7220677265617460008201527f6572207468616e2031385f5f5f00000000000000000000000000000000000000602082015250565b6000612ebe602d83611ec1565b9150612ec982612e62565b604082019050919050565b60006020820190508181036000830152612eed81612eb1565b9050919050565b7f5f5f5f456d61696c206164647265737320616c7265616479206578697374735f60008201527f5f5f000000000000000000000000000000000000000000000000000000000000602082015250565b6000612f50602283611ec1565b9150612f5b82612ef4565b604082019050919050565b60006020820190508181036000830152612f7f81612f43565b9050919050565b7f5f5f5f596f752061726520616c7265616479206120726567697374657265642060008201527f766f7465725f5f5f000000000000000000000000000000000000000000000000602082015250565b6000612fe2602883611ec1565b9150612fed82612f86565b604082019050919050565b6000602082019050818103600083015261301181612fd5565b9050919050565b60008190508160005260206000209050919050565b60006020601f8301049050919050565b600082821b905092915050565b60006008830261307a7fffffffffffffffffffffffffffffffffffffffffffffffffffffffffffffffff8261303d565b613084868361303d565b95508019841693508086168417925050509392505050565b6000819050919050565b60006130c16130bc6130b784611e44565b61309c565b611e44565b9050919050565b6000819050919050565b6130db836130a6565b6130ef6130e7826130c8565b84845461304a565b825550505050565b600090565b6131046130f7565b61310f8184846130d2565b505050565b5b81811015613133576131286000826130fc565b600181019050613115565b5050565b601f8211156131785761314981613018565b6131528461302d565b81016020851015613161578190505b61317561316d8561302d565b830182613114565b50505b505050565b600082821c905092915050565b600061319b6000198460080261317d565b1980831691505092915050565b60006131b4838361318a565b9150826002028217905092915050565b6131cd82611eb6565b67ffffffffffffffff8111156131e6576131e5612161565b5b6131f08254612ae2565b6131fb828285613137565b600060209050601f83116001811461322e576000841561321c578287015190505b61322685826131a8565b86555061328e565b601f19841661323c86613018565b60005b828110156132645784890151825560018201915060208501945060208101905061323f565b86831015613281578489015161327d601f89168261318a565b8355505b6001600288020188555050505b505050505050565b600060c08201905081810360008301526132b08189611f0d565b905081810360208301526132c48188611f0d565b905081810360408301526132d88187611f0d565b90506132e76060830186611ea7565b81810360808301526132f98185611f0d565b905081810360a083015261330d8184611f0d565b9050979650505050505050565b6000815461332781612ae2565b6133318186612ba5565b9450600182166000811461334c576001811461336157613394565b60ff1983168652811515820286019350613394565b61336a85613018565b60005b8381101561338c5781548189015260018201915060208101905061336d565b838801955050505b50505092915050565b60006133a9828461331a565b915081905092915050565b7f5f5f5f496e76616c696420706f736974696f6e5f5f5f00000000000000000000600082015250565b60006133ea601683611ec1565b91506133f5826133b4565b602082019050919050565b60006020820190508181036000830152613419816133dd565b9050919050565b7f5f5f5f43616e6e6f742072656769737465722063616e6469646174657320616660008201527f74657220656c656374696f6e2068617320737461727465645f5f5f0000000000602082015250565b600061347c603b83611ec1565b915061348782613420565b604082019050919050565b600060208201905081810360008301526134ab8161346f565b9050919050565b600060e0820190506134c7600083018a611ea7565b81810360208301526134d98189611f0d565b905081810360408301526134ed8188611f0d565b905081810360608301526135018187611f0d565b905081810360808301526135158186611f0d565b905081810360a08301526135298185611f0d565b905081810360c083015261353d8184611f0d565b90509897505050505050505056fea2646970667358221220e2bd60165d4452c001077d0566752c03cfa51f23d8333b4f49f3e29705557b8f64736f6c63430008180033","opcodes":"PUSH1 0x80 PUSH1 0x40 MSTORE PUSH1 0x40 MLOAD DUP1 PUSH1 0x60 ADD PUSH1 0x40 MSTORE DUP1 PUSH1 0x40 MLOAD DUP1 PUSH1 0x40 ADD PUSH1 0x40 MSTORE DUP1 PUSH1 0x9 DUP2 MSTORE PUSH1 0x20 ADD PUSH32 0x507265736964656E740000000000000000000000000000000000000000000000 DUP2 MSTORE POP DUP2 MSTORE PUSH1 0x20 ADD PUSH1 0x40 MLOAD DUP1 PUSH1 0x40 ADD PUSH1 0x40 MSTORE DUP1 PUSH1 0xE DUP2 MSTORE PUSH1 0x20 ADD PUSH32 0x5669636520507265736964656E74000000000000000000000000000000000000 DUP2 MSTORE POP DUP2 MSTORE PUSH1 0x20 ADD PUSH1 0x40 MLOAD DUP1 PUSH1 0x40 ADD PUSH1 0x40 MSTORE DUP1 PUSH1 0x7 DUP2 MSTORE PUSH1 0x20 ADD PUSH32 0x53656E61746F7200000000000000000000000000000000000000000000000000 DUP2 MSTORE POP DUP2 MSTORE POP PUSH1 0x6 SWAP1 PUSH1 0x3 PUSH3 0xD0 SWAP3 SWAP2 SWAP1 PUSH3 0x50F JUMP JUMPDEST POP CALLVALUE DUP1 ISZERO PUSH3 0xDE JUMPI PUSH1 0x0 DUP1 REVERT JUMPDEST POP PUSH1 0x40 MLOAD PUSH3 0x4548 CODESIZE SUB DUP1 PUSH3 0x4548 DUP4 CODECOPY DUP2 DUP2 ADD PUSH1 0x40 MSTORE DUP2 ADD SWAP1 PUSH3 0x104 SWAP2 SWAP1 PUSH3 0x91A JUMP JUMPDEST CALLER PUSH1 0x0 DUP1 PUSH2 0x100 EXP DUP2 SLOAD DUP2 PUSH20 0xFFFFFFFFFFFFFFFFFFFFFFFFFFFFFFFFFFFFFFFF MUL NOT AND SWAP1 DUP4 PUSH20 0xFFFFFFFFFFFFFFFFFFFFFFFFFFFFFFFFFFFFFFFF AND MUL OR SWAP1 SSTORE POP DUP5 MLOAD DUP7 MLOAD EQ DUP1 ISZERO PUSH3 0x157 JUMPI POP DUP4 MLOAD DUP6 MLOAD EQ JUMPDEST DUP1 ISZERO PUSH3 0x165 JUMPI POP DUP3 MLOAD DUP5 MLOAD EQ JUMPDEST DUP1 ISZERO PUSH3 0x173 JUMPI POP DUP2 MLOAD DUP4 MLOAD EQ JUMPDEST DUP1 ISZERO PUSH3 0x181 JUMPI POP DUP1 MLOAD DUP3 MLOAD EQ JUMPDEST PUSH3 0x1C3 JUMPI PUSH1 0x40 MLOAD PUSH32 0x8C379A000000000000000000000000000000000000000000000000000000000 DUP2 MSTORE PUSH1 0x4 ADD PUSH3 0x1BA SWAP1 PUSH3 0xAD1 JUMP JUMPDEST PUSH1 0x40 MLOAD DUP1 SWAP2 SUB SWAP1 REVERT JUMPDEST PUSH1 0x0 JUMPDEST DUP7 MLOAD DUP2 LT ISZERO PUSH3 0x4FA JUMPI PUSH1 0x60 PUSH1 0x1 PUSH1 0x40 MLOAD DUP1 PUSH2 0x140 ADD PUSH1 0x40 MSTORE DUP1 PUSH1 0x1 DUP6 PUSH3 0x1EF SWAP2 SWAP1 PUSH3 0xB2C JUMP JUMPDEST DUP2 MSTORE PUSH1 0x20 ADD DUP11 DUP6 DUP2 MLOAD DUP2 LT PUSH3 0x20A JUMPI PUSH3 0x209 PUSH3 0xB67 JUMP JUMPDEST JUMPDEST PUSH1 0x20 MUL PUSH1 0x20 ADD ADD MLOAD DUP2 MSTORE PUSH1 0x20 ADD DUP10 DUP6 DUP2 MLOAD DUP2 LT PUSH3 0x22D JUMPI PUSH3 0x22C PUSH3 0xB67 JUMP JUMPDEST JUMPDEST PUSH1 0x20 MUL PUSH1 0x20 ADD ADD MLOAD DUP2 MSTORE PUSH1 0x20 ADD DUP9 DUP6 DUP2 MLOAD DUP2 LT PUSH3 0x250 JUMPI PUSH3 0x24F PUSH3 0xB67 JUMP JUMPDEST JUMPDEST PUSH1 0x20 MUL PUSH1 0x20 ADD ADD MLOAD DUP2 MSTORE PUSH1 0x20 ADD DUP8 DUP6 DUP2 MLOAD DUP2 LT PUSH3 0x273 JUMPI PUSH3 0x272 PUSH3 0xB67 JUMP JUMPDEST JUMPDEST PUSH1 0x20 MUL PUSH1 0x20 ADD ADD MLOAD DUP2 MSTORE PUSH1 0x20 ADD DUP7 DUP6 DUP2 MLOAD DUP2 LT PUSH3 0x296 JUMPI PUSH3 0x295 PUSH3 0xB67 JUMP JUMPDEST JUMPDEST PUSH1 0x20 MUL PUSH1 0x20 ADD ADD MLOAD DUP2 MSTORE PUSH1 0x20 ADD DUP6 DUP6 DUP2 MLOAD DUP2 LT PUSH3 0x2B9 JUMPI PUSH3 0x2B8 PUSH3 0xB67 JUMP JUMPDEST JUMPDEST PUSH1 0x20 MUL PUSH1 0x20 ADD ADD MLOAD DUP2 MSTORE PUSH1 0x20 ADD PUSH1 0x0 DUP2 MSTORE PUSH1 0x20 ADD PUSH1 0x1 ISZERO ISZERO DUP2 MSTORE PUSH1 0x20 ADD DUP4 DUP2 MSTORE POP SWAP1 DUP1 PUSH1 0x1 DUP2 SLOAD ADD DUP1 DUP3 SSTORE DUP1 SWAP2 POP POP PUSH1 0x1 SWAP1 SUB SWAP1 PUSH1 0x0 MSTORE PUSH1 0x20 PUSH1 0x0 KECCAK256 SWAP1 PUSH1 0xA MUL ADD PUSH1 0x0 SWAP1 SWAP2 SWAP1 SWAP2 SWAP1 SWAP2 POP PUSH1 0x0 DUP3 ADD MLOAD DUP2 PUSH1 0x0 ADD SSTORE PUSH1 0x20 DUP3 ADD MLOAD DUP2 PUSH1 0x1 ADD SWAP1 DUP2 PUSH3 0x324 SWAP2 SWAP1 PUSH3 0xDD7 JUMP JUMPDEST POP PUSH1 0x40 DUP3 ADD MLOAD DUP2 PUSH1 0x2 ADD SWAP1 DUP2 PUSH3 0x33C SWAP2 SWAP1 PUSH3 0xDD7 JUMP JUMPDEST POP PUSH1 0x60 DUP3 ADD MLOAD DUP2 PUSH1 0x3 ADD SWAP1 DUP2 PUSH3 0x354 SWAP2 SWAP1 PUSH3 0xDD7 JUMP JUMPDEST POP PUSH1 0x80 DUP3 ADD MLOAD DUP2 PUSH1 0x4 ADD SWAP1 DUP2 PUSH3 0x36C SWAP2 SWAP1 PUSH3 0xDD7 JUMP JUMPDEST POP PUSH1 0xA0 DUP3 ADD MLOAD DUP2 PUSH1 0x5 ADD SWAP1 DUP2 PUSH3 0x384 SWAP2 SWAP1 PUSH3 0xDD7 JUMP JUMPDEST POP PUSH1 0xC0 DUP3 ADD MLOAD DUP2 PUSH1 0x6 ADD SWAP1 DUP2 PUSH3 0x39C SWAP2 SWAP1 PUSH3 0xDD7 JUMP JUMPDEST POP PUSH1 0xE0 DUP3 ADD MLOAD DUP2 PUSH1 0x7 ADD SSTORE PUSH2 0x100 DUP3 ADD MLOAD DUP2 PUSH1 0x8 ADD PUSH1 0x0 PUSH2 0x100 EXP DUP2 SLOAD DUP2 PUSH1 0xFF MUL NOT AND SWAP1 DUP4 ISZERO ISZERO MUL OR SWAP1 SSTORE POP PUSH2 0x120 DUP3 ADD MLOAD DUP2 PUSH1 0x9 ADD SWAP1 DUP1 MLOAD SWAP1 PUSH1 0x20 ADD SWAP1 PUSH3 0x3E7 SWAP3 SWAP2 SWAP1 PUSH3 0x56F JUMP JUMPDEST POP POP POP PUSH32 0xCDC63BE4A9722EE4B9B2D4E39199D658BD01D6A91201C97399DD7926AD13BD00 PUSH1 0x1 DUP4 PUSH3 0x41A SWAP2 SWAP1 PUSH3 0xB2C JUMP JUMPDEST DUP10 DUP5 DUP2 MLOAD DUP2 LT PUSH3 0x430 JUMPI PUSH3 0x42F PUSH3 0xB67 JUMP JUMPDEST JUMPDEST PUSH1 0x20 MUL PUSH1 0x20 ADD ADD MLOAD DUP10 DUP6 DUP2 MLOAD DUP2 LT PUSH3 0x44E JUMPI PUSH3 0x44D PUSH3 0xB67 JUMP JUMPDEST JUMPDEST PUSH1 0x20 MUL PUSH1 0x20 ADD ADD MLOAD DUP10 DUP7 DUP2 MLOAD DUP2 LT PUSH3 0x46C JUMPI PUSH3 0x46B PUSH3 0xB67 JUMP JUMPDEST JUMPDEST PUSH1 0x20 MUL PUSH1 0x20 ADD ADD MLOAD DUP10 DUP8 DUP2 MLOAD DUP2 LT PUSH3 0x48A JUMPI PUSH3 0x489 PUSH3 0xB67 JUMP JUMPDEST JUMPDEST PUSH1 0x20 MUL PUSH1 0x20 ADD ADD MLOAD DUP10 DUP9 DUP2 MLOAD DUP2 LT PUSH3 0x4A8 JUMPI PUSH3 0x4A7 PUSH3 0xB67 JUMP JUMPDEST JUMPDEST PUSH1 0x20 MUL PUSH1 0x20 ADD ADD MLOAD DUP10 DUP10 DUP2 MLOAD DUP2 LT PUSH3 0x4C6 JUMPI PUSH3 0x4C5 PUSH3 0xB67 JUMP JUMPDEST JUMPDEST PUSH1 0x20 MUL PUSH1 0x20 ADD ADD MLOAD PUSH1 0x40 MLOAD PUSH3 0x4E3 SWAP8 SWAP7 SWAP6 SWAP5 SWAP4 SWAP3 SWAP2 SWAP1 PUSH3 0xF10 JUMP JUMPDEST PUSH1 0x40 MLOAD DUP1 SWAP2 SUB SWAP1 LOG1 POP DUP1 DUP1 PUSH1 0x1 ADD SWAP2 POP POP PUSH3 0x1C6 JUMP JUMPDEST POP DUP6 MLOAD PUSH1 0x5 DUP2 SWAP1 SSTORE POP POP POP POP POP POP POP PUSH3 0xFB7 JUMP JUMPDEST DUP3 DUP1 SLOAD DUP3 DUP3 SSTORE SWAP1 PUSH1 0x0 MSTORE PUSH1 0x20 PUSH1 0x0 KECCAK256 SWAP1 DUP2 ADD SWAP3 DUP3 ISZERO PUSH3 0x55C JUMPI SWAP2 PUSH1 0x20 MUL DUP3 ADD JUMPDEST DUP3 DUP2 GT ISZERO PUSH3 0x55B JUMPI DUP3 MLOAD DUP3 SWAP1 DUP2 PUSH3 0x54A SWAP2 SWAP1 PUSH3 0xDD7 JUMP JUMPDEST POP SWAP2 PUSH1 0x20 ADD SWAP2 SWAP1 PUSH1 0x1 ADD SWAP1 PUSH3 0x530 JUMP JUMPDEST JUMPDEST POP SWAP1 POP PUSH3 0x56B SWAP2 SWAP1 PUSH3 0x5FE JUMP JUMPDEST POP SWAP1 JUMP JUMPDEST DUP3 DUP1 SLOAD DUP3 DUP3 SSTORE SWAP1 PUSH1 0x0 MSTORE PUSH1 0x20 PUSH1 0x0 KECCAK256 SWAP1 DUP2 ADD SWAP3 DUP3 ISZERO PUSH3 0x5EB JUMPI SWAP2 PUSH1 0x20 MUL DUP3 ADD JUMPDEST DUP3 DUP2 GT ISZERO PUSH3 0x5EA JUMPI DUP3 MLOAD DUP3 PUSH1 0x0 PUSH2 0x100 EXP DUP2 SLOAD DUP2 PUSH20 0xFFFFFFFFFFFFFFFFFFFFFFFFFFFFFFFFFFFFFFFF MUL NOT AND SWAP1 DUP4 PUSH20 0xFFFFFFFFFFFFFFFFFFFFFFFFFFFFFFFFFFFFFFFF AND MUL OR SWAP1 SSTORE POP SWAP2 PUSH1 0x20 ADD SWAP2 SWAP1 PUSH1 0x1 ADD SWAP1 PUSH3 0x590 JUMP JUMPDEST JUMPDEST POP SWAP1 POP PUSH3 0x5FA SWAP2 SWAP1 PUSH3 0x626 JUMP JUMPDEST POP SWAP1 JUMP JUMPDEST JUMPDEST DUP1 DUP3 GT ISZERO PUSH3 0x622 JUMPI PUSH1 0x0 DUP2 DUP2 PUSH3 0x618 SWAP2 SWAP1 PUSH3 0x645 JUMP JUMPDEST POP PUSH1 0x1 ADD PUSH3 0x5FF JUMP JUMPDEST POP SWAP1 JUMP JUMPDEST JUMPDEST DUP1 DUP3 GT ISZERO PUSH3 0x641 JUMPI PUSH1 0x0 DUP2 PUSH1 0x0 SWAP1 SSTORE POP PUSH1 0x1 ADD PUSH3 0x627 JUMP JUMPDEST POP SWAP1 JUMP JUMPDEST POP DUP1 SLOAD PUSH3 0x653 SWAP1 PUSH3 0xBD0 JUMP JUMPDEST PUSH1 0x0 DUP3 SSTORE DUP1 PUSH1 0x1F LT PUSH3 0x667 JUMPI POP PUSH3 0x688 JUMP JUMPDEST PUSH1 0x1F ADD PUSH1 0x20 SWAP1 DIV SWAP1 PUSH1 0x0 MSTORE PUSH1 0x20 PUSH1 0x0 KECCAK256 SWAP1 DUP2 ADD SWAP1 PUSH3 0x687 SWAP2 SWAP1 PUSH3 0x626 JUMP JUMPDEST JUMPDEST POP JUMP JUMPDEST PUSH1 0x0 PUSH1 0x40 MLOAD SWAP1 POP SWAP1 JUMP JUMPDEST PUSH1 0x0 DUP1 REVERT JUMPDEST PUSH1 0x0 DUP1 REVERT JUMPDEST PUSH1 0x0 DUP1 REVERT JUMPDEST PUSH1 0x0 PUSH1 0x1F NOT PUSH1 0x1F DUP4 ADD AND SWAP1 POP SWAP2 SWAP1 POP JUMP JUMPDEST PUSH32 0x4E487B7100000000000000000000000000000000000000000000000000000000 PUSH1 0x0 MSTORE PUSH1 0x41 PUSH1 0x4 MSTORE PUSH1 0x24 PUSH1 0x0 REVERT JUMPDEST PUSH3 0x6EF DUP3 PUSH3 0x6A4 JUMP JUMPDEST DUP2 ADD DUP2 DUP2 LT PUSH8 0xFFFFFFFFFFFFFFFF DUP3 GT OR ISZERO PUSH3 0x711 JUMPI PUSH3 0x710 PUSH3 0x6B5 JUMP JUMPDEST JUMPDEST DUP1 PUSH1 0x40 MSTORE POP POP POP JUMP JUMPDEST PUSH1 0x0 PUSH3 0x726 PUSH3 0x68B JUMP JUMPDEST SWAP1 POP PUSH3 0x734 DUP3 DUP3 PUSH3 0x6E4 JUMP JUMPDEST SWAP2 SWAP1 POP JUMP JUMPDEST PUSH1 0x0 PUSH8 0xFFFFFFFFFFFFFFFF DUP3 GT ISZERO PUSH3 0x757 JUMPI PUSH3 0x756 PUSH3 0x6B5 JUMP JUMPDEST JUMPDEST PUSH1 0x20 DUP3 MUL SWAP1 POP PUSH1 0x20 DUP2 ADD SWAP1 POP SWAP2 SWAP1 POP JUMP JUMPDEST PUSH1 0x0 DUP1 REVERT JUMPDEST PUSH1 0x0 DUP1 REVERT JUMPDEST PUSH1 0x0 PUSH8 0xFFFFFFFFFFFFFFFF DUP3 GT ISZERO PUSH3 0x790 JUMPI PUSH3 0x78F PUSH3 0x6B5 JUMP JUMPDEST JUMPDEST PUSH3 0x79B DUP3 PUSH3 0x6A4 JUMP JUMPDEST SWAP1 POP PUSH1 0x20 DUP2 ADD SWAP1 POP SWAP2 SWAP1 POP JUMP JUMPDEST PUSH1 0x0 JUMPDEST DUP4 DUP2 LT ISZERO PUSH3 0x7C8 JUMPI DUP1 DUP3 ADD MLOAD DUP2 DUP5 ADD MSTORE PUSH1 0x20 DUP2 ADD SWAP1 POP PUSH3 0x7AB JUMP JUMPDEST PUSH1 0x0 DUP5 DUP5 ADD MSTORE POP POP POP POP JUMP JUMPDEST PUSH1 0x0 PUSH3 0x7EB PUSH3 0x7E5 DUP5 PUSH3 0x772 JUMP JUMPDEST PUSH3 0x71A JUMP JUMPDEST SWAP1 POP DUP3 DUP2 MSTORE PUSH1 0x20 DUP2 ADD DUP5 DUP5 DUP5 ADD GT ISZERO PUSH3 0x80A JUMPI PUSH3 0x809 PUSH3 0x76D JUMP JUMPDEST JUMPDEST PUSH3 0x817 DUP5 DUP3 DUP6 PUSH3 0x7A8 JUMP JUMPDEST POP SWAP4 SWAP3 POP POP POP JUMP JUMPDEST PUSH1 0x0 DUP3 PUSH1 0x1F DUP4 ADD SLT PUSH3 0x837 JUMPI PUSH3 0x836 PUSH3 0x69F JUMP JUMPDEST JUMPDEST DUP2 MLOAD PUSH3 0x849 DUP5 DUP3 PUSH1 0x20 DUP7 ADD PUSH3 0x7D4 JUMP JUMPDEST SWAP2 POP POP SWAP3 SWAP2 POP POP JUMP JUMPDEST PUSH1 0x0 PUSH3 0x869 PUSH3 0x863 DUP5 PUSH3 0x739 JUMP JUMPDEST PUSH3 0x71A JUMP JUMPDEST SWAP1 POP DUP1 DUP4 DUP3 MSTORE PUSH1 0x20 DUP3 ADD SWAP1 POP PUSH1 0x20 DUP5 MUL DUP4 ADD DUP6 DUP2 GT ISZERO PUSH3 0x88F JUMPI PUSH3 0x88E PUSH3 0x768 JUMP JUMPDEST JUMPDEST DUP4 JUMPDEST DUP2 DUP2 LT ISZERO PUSH3 0x8DD JUMPI DUP1 MLOAD PUSH8 0xFFFFFFFFFFFFFFFF DUP2 GT ISZERO PUSH3 0x8B8 JUMPI PUSH3 0x8B7 PUSH3 0x69F JUMP JUMPDEST JUMPDEST DUP1 DUP7 ADD PUSH3 0x8C7 DUP10 DUP3 PUSH3 0x81F JUMP JUMPDEST DUP6 MSTORE PUSH1 0x20 DUP6 ADD SWAP5 POP POP POP PUSH1 0x20 DUP2 ADD SWAP1 POP PUSH3 0x891 JUMP JUMPDEST POP POP POP SWAP4 SWAP3 POP POP POP JUMP JUMPDEST PUSH1 0x0 DUP3 PUSH1 0x1F DUP4 ADD SLT PUSH3 0x8FF JUMPI PUSH3 0x8FE PUSH3 0x69F JUMP JUMPDEST JUMPDEST DUP2 MLOAD PUSH3 0x911 DUP5 DUP3 PUSH1 0x20 DUP7 ADD PUSH3 0x852 JUMP JUMPDEST SWAP2 POP POP SWAP3 SWAP2 POP POP JUMP JUMPDEST PUSH1 0x0 DUP1 PUSH1 0x0 DUP1 PUSH1 0x0 DUP1 PUSH1 0xC0 DUP8 DUP10 SUB SLT ISZERO PUSH3 0x93A JUMPI PUSH3 0x939 PUSH3 0x695 JUMP JUMPDEST JUMPDEST PUSH1 0x0 DUP8 ADD MLOAD PUSH8 0xFFFFFFFFFFFFFFFF DUP2 GT ISZERO PUSH3 0x95B JUMPI PUSH3 0x95A PUSH3 0x69A JUMP JUMPDEST JUMPDEST PUSH3 0x969 DUP10 DUP3 DUP11 ADD PUSH3 0x8E7 JUMP JUMPDEST SWAP7 POP POP PUSH1 0x20 DUP8 ADD MLOAD PUSH8 0xFFFFFFFFFFFFFFFF DUP2 GT ISZERO PUSH3 0x98D JUMPI PUSH3 0x98C PUSH3 0x69A JUMP JUMPDEST JUMPDEST PUSH3 0x99B DUP10 DUP3 DUP11 ADD PUSH3 0x8E7 JUMP JUMPDEST SWAP6 POP POP PUSH1 0x40 DUP8 ADD MLOAD PUSH8 0xFFFFFFFFFFFFFFFF DUP2 GT ISZERO PUSH3 0x9BF JUMPI PUSH3 0x9BE PUSH3 0x69A JUMP JUMPDEST JUMPDEST PUSH3 0x9CD DUP10 DUP3 DUP11 ADD PUSH3 0x8E7 JUMP JUMPDEST SWAP5 POP POP PUSH1 0x60 DUP8 ADD MLOAD PUSH8 0xFFFFFFFFFFFFFFFF DUP2 GT ISZERO PUSH3 0x9F1 JUMPI PUSH3 0x9F0 PUSH3 0x69A JUMP JUMPDEST JUMPDEST PUSH3 0x9FF DUP10 DUP3 DUP11 ADD PUSH3 0x8E7 JUMP JUMPDEST SWAP4 POP POP PUSH1 0x80 DUP8 ADD MLOAD PUSH8 0xFFFFFFFFFFFFFFFF DUP2 GT ISZERO PUSH3 0xA23 JUMPI PUSH3 0xA22 PUSH3 0x69A JUMP JUMPDEST JUMPDEST PUSH3 0xA31 DUP10 DUP3 DUP11 ADD PUSH3 0x8E7 JUMP JUMPDEST SWAP3 POP POP PUSH1 0xA0 DUP8 ADD MLOAD PUSH8 0xFFFFFFFFFFFFFFFF DUP2 GT ISZERO PUSH3 0xA55 JUMPI PUSH3 0xA54 PUSH3 0x69A JUMP JUMPDEST JUMPDEST PUSH3 0xA63 DUP10 DUP3 DUP11 ADD PUSH3 0x8E7 JUMP JUMPDEST SWAP2 POP POP SWAP3 SWAP6 POP SWAP3 SWAP6 POP SWAP3 SWAP6 JUMP JUMPDEST PUSH1 0x0 DUP3 DUP3 MSTORE PUSH1 0x20 DUP3 ADD SWAP1 POP SWAP3 SWAP2 POP POP JUMP JUMPDEST PUSH32 0x5F5F5F496E76616C696420696E707574206C656E677468735F5F5F0000000000 PUSH1 0x0 DUP3 ADD MSTORE POP JUMP JUMPDEST PUSH1 0x0 PUSH3 0xAB9 PUSH1 0x1B DUP4 PUSH3 0xA70 JUMP JUMPDEST SWAP2 POP PUSH3 0xAC6 DUP3 PUSH3 0xA81 JUMP JUMPDEST PUSH1 0x20 DUP3 ADD SWAP1 POP SWAP2 SWAP1 POP JUMP JUMPDEST PUSH1 0x0 PUSH1 0x20 DUP3 ADD SWAP1 POP DUP2 DUP2 SUB PUSH1 0x0 DUP4 ADD MSTORE PUSH3 0xAEC DUP2 PUSH3 0xAAA JUMP JUMPDEST SWAP1 POP SWAP2 SWAP1 POP JUMP JUMPDEST PUSH1 0x0 DUP2 SWAP1 POP SWAP2 SWAP1 POP JUMP JUMPDEST PUSH32 0x4E487B7100000000000000000000000000000000000000000000000000000000 PUSH1 0x0 MSTORE PUSH1 0x11 PUSH1 0x4 MSTORE PUSH1 0x24 PUSH1 0x0 REVERT JUMPDEST PUSH1 0x0 PUSH3 0xB39 DUP3 PUSH3 0xAF3 JUMP JUMPDEST SWAP2 POP PUSH3 0xB46 DUP4 PUSH3 0xAF3 JUMP JUMPDEST SWAP3 POP DUP3 DUP3 ADD SWAP1 POP DUP1 DUP3 GT ISZERO PUSH3 0xB61 JUMPI PUSH3 0xB60 PUSH3 0xAFD JUMP JUMPDEST JUMPDEST SWAP3 SWAP2 POP POP JUMP JUMPDEST PUSH32 0x4E487B7100000000000000000000000000000000000000000000000000000000 PUSH1 0x0 MSTORE PUSH1 0x32 PUSH1 0x4 MSTORE PUSH1 0x24 PUSH1 0x0 REVERT JUMPDEST PUSH1 0x0 DUP2 MLOAD SWAP1 POP SWAP2 SWAP1 POP JUMP JUMPDEST PUSH32 0x4E487B7100000000000000000000000000000000000000000000000000000000 PUSH1 0x0 MSTORE PUSH1 0x22 PUSH1 0x4 MSTORE PUSH1 0x24 PUSH1 0x0 REVERT JUMPDEST PUSH1 0x0 PUSH1 0x2 DUP3 DIV SWAP1 POP PUSH1 0x1 DUP3 AND DUP1 PUSH3 0xBE9 JUMPI PUSH1 0x7F DUP3 AND SWAP2 POP JUMPDEST PUSH1 0x20 DUP3 LT DUP2 SUB PUSH3 0xBFF JUMPI PUSH3 0xBFE PUSH3 0xBA1 JUMP JUMPDEST JUMPDEST POP SWAP2 SWAP1 POP JUMP JUMPDEST PUSH1 0x0 DUP2 SWAP1 POP DUP2 PUSH1 0x0 MSTORE PUSH1 0x20 PUSH1 0x0 KECCAK256 SWAP1 POP SWAP2 SWAP1 POP JUMP JUMPDEST PUSH1 0x0 PUSH1 0x20 PUSH1 0x1F DUP4 ADD DIV SWAP1 POP SWAP2 SWAP1 POP JUMP JUMPDEST PUSH1 0x0 DUP3 DUP3 SHL SWAP1 POP SWAP3 SWAP2 POP POP JUMP JUMPDEST PUSH1 0x0 PUSH1 0x8 DUP4 MUL PUSH3 0xC69 PUSH32 0xFFFFFFFFFFFFFFFFFFFFFFFFFFFFFFFFFFFFFFFFFFFFFFFFFFFFFFFFFFFFFFFF DUP3 PUSH3 0xC2A JUMP JUMPDEST PUSH3 0xC75 DUP7 DUP4 PUSH3 0xC2A JUMP JUMPDEST SWAP6 POP DUP1 NOT DUP5 AND SWAP4 POP DUP1 DUP7 AND DUP5 OR SWAP3 POP POP POP SWAP4 SWAP3 POP POP POP JUMP JUMPDEST PUSH1 0x0 DUP2 SWAP1 POP SWAP2 SWAP1 POP JUMP JUMPDEST PUSH1 0x0 PUSH3 0xCB8 PUSH3 0xCB2 PUSH3 0xCAC DUP5 PUSH3 0xAF3 JUMP JUMPDEST PUSH3 0xC8D JUMP JUMPDEST PUSH3 0xAF3 JUMP JUMPDEST SWAP1 POP SWAP2 SWAP1 POP JUMP JUMPDEST PUSH1 0x0 DUP2 SWAP1 POP SWAP2 SWAP1 POP JUMP JUMPDEST PUSH3 0xCD4 DUP4 PUSH3 0xC97 JUMP JUMPDEST PUSH3 0xCEC PUSH3 0xCE3 DUP3 PUSH3 0xCBF JUMP JUMPDEST DUP5 DUP5 SLOAD PUSH3 0xC37 JUMP JUMPDEST DUP3 SSTORE POP POP POP POP JUMP JUMPDEST PUSH1 0x0 SWAP1 JUMP JUMPDEST PUSH3 0xD03 PUSH3 0xCF4 JUMP JUMPDEST PUSH3 0xD10 DUP2 DUP5 DUP5 PUSH3 0xCC9 JUMP JUMPDEST POP POP POP JUMP JUMPDEST JUMPDEST DUP2 DUP2 LT ISZERO PUSH3 0xD38 JUMPI PUSH3 0xD2C PUSH1 0x0 DUP3 PUSH3 0xCF9 JUMP JUMPDEST PUSH1 0x1 DUP2 ADD SWAP1 POP PUSH3 0xD16 JUMP JUMPDEST POP POP JUMP JUMPDEST PUSH1 0x1F DUP3 GT ISZERO PUSH3 0xD87 JUMPI PUSH3 0xD51 DUP2 PUSH3 0xC05 JUMP JUMPDEST PUSH3 0xD5C DUP5 PUSH3 0xC1A JUMP JUMPDEST DUP2 ADD PUSH1 0x20 DUP6 LT ISZERO PUSH3 0xD6C JUMPI DUP2 SWAP1 POP JUMPDEST PUSH3 0xD84 PUSH3 0xD7B DUP6 PUSH3 0xC1A JUMP JUMPDEST DUP4 ADD DUP3 PUSH3 0xD15 JUMP JUMPDEST POP POP JUMPDEST POP POP POP JUMP JUMPDEST PUSH1 0x0 DUP3 DUP3 SHR SWAP1 POP SWAP3 SWAP2 POP POP JUMP JUMPDEST PUSH1 0x0 PUSH3 0xDAC PUSH1 0x0 NOT DUP5 PUSH1 0x8 MUL PUSH3 0xD8C JUMP JUMPDEST NOT DUP1 DUP4 AND SWAP2 POP POP SWAP3 SWAP2 POP POP JUMP JUMPDEST PUSH1 0x0 PUSH3 0xDC7 DUP4 DUP4 PUSH3 0xD99 JUMP JUMPDEST SWAP2 POP DUP3 PUSH1 0x2 MUL DUP3 OR SWAP1 POP SWAP3 SWAP2 POP POP JUMP JUMPDEST PUSH3 0xDE2 DUP3 PUSH3 0xB96 JUMP JUMPDEST PUSH8 0xFFFFFFFFFFFFFFFF DUP2 GT ISZERO PUSH3 0xDFE JUMPI PUSH3 0xDFD PUSH3 0x6B5 JUMP JUMPDEST JUMPDEST PUSH3 0xE0A DUP3 SLOAD PUSH3 0xBD0 JUMP JUMPDEST PUSH3 0xE17 DUP3 DUP3 DUP6 PUSH3 0xD3C JUMP JUMPDEST PUSH1 0x0 PUSH1 0x20 SWAP1 POP PUSH1 0x1F DUP4 GT PUSH1 0x1 DUP2 EQ PUSH3 0xE4F JUMPI PUSH1 0x0 DUP5 ISZERO PUSH3 0xE3A JUMPI DUP3 DUP8 ADD MLOAD SWAP1 POP JUMPDEST PUSH3 0xE46 DUP6 DUP3 PUSH3 0xDB9 JUMP JUMPDEST DUP7 SSTORE POP PUSH3 0xEB6 JUMP JUMPDEST PUSH1 0x1F NOT DUP5 AND PUSH3 0xE5F DUP7 PUSH3 0xC05 JUMP JUMPDEST PUSH1 0x0 JUMPDEST DUP3 DUP2 LT ISZERO PUSH3 0xE89 JUMPI DUP5 DUP10 ADD MLOAD DUP3 SSTORE PUSH1 0x1 DUP3 ADD SWAP2 POP PUSH1 0x20 DUP6 ADD SWAP5 POP PUSH1 0x20 DUP2 ADD SWAP1 POP PUSH3 0xE62 JUMP JUMPDEST DUP7 DUP4 LT ISZERO PUSH3 0xEA9 JUMPI DUP5 DUP10 ADD MLOAD PUSH3 0xEA5 PUSH1 0x1F DUP10 AND DUP3 PUSH3 0xD99 JUMP JUMPDEST DUP4 SSTORE POP JUMPDEST PUSH1 0x1 PUSH1 0x2 DUP9 MUL ADD DUP9 SSTORE POP POP POP JUMPDEST POP POP POP POP POP POP JUMP JUMPDEST PUSH3 0xEC9 DUP2 PUSH3 0xAF3 JUMP JUMPDEST DUP3 MSTORE POP POP JUMP JUMPDEST PUSH1 0x0 PUSH3 0xEDC DUP3 PUSH3 0xB96 JUMP JUMPDEST PUSH3 0xEE8 DUP2 DUP6 PUSH3 0xA70 JUMP JUMPDEST SWAP4 POP PUSH3 0xEFA DUP2 DUP6 PUSH1 0x20 DUP7 ADD PUSH3 0x7A8 JUMP JUMPDEST PUSH3 0xF05 DUP2 PUSH3 0x6A4 JUMP JUMPDEST DUP5 ADD SWAP2 POP POP SWAP3 SWAP2 POP POP JUMP JUMPDEST PUSH1 0x0 PUSH1 0xE0 DUP3 ADD SWAP1 POP PUSH3 0xF27 PUSH1 0x0 DUP4 ADD DUP11 PUSH3 0xEBE JUMP JUMPDEST DUP2 DUP2 SUB PUSH1 0x20 DUP4 ADD MSTORE PUSH3 0xF3B DUP2 DUP10 PUSH3 0xECF JUMP JUMPDEST SWAP1 POP DUP2 DUP2 SUB PUSH1 0x40 DUP4 ADD MSTORE PUSH3 0xF51 DUP2 DUP9 PUSH3 0xECF JUMP JUMPDEST SWAP1 POP DUP2 DUP2 SUB PUSH1 0x60 DUP4 ADD MSTORE PUSH3 0xF67 DUP2 DUP8 PUSH3 0xECF JUMP JUMPDEST SWAP1 POP DUP2 DUP2 SUB PUSH1 0x80 DUP4 ADD MSTORE PUSH3 0xF7D DUP2 DUP7 PUSH3 0xECF JUMP JUMPDEST SWAP1 POP DUP2 DUP2 SUB PUSH1 0xA0 DUP4 ADD MSTORE PUSH3 0xF93 DUP2 DUP6 PUSH3 0xECF JUMP JUMPDEST SWAP1 POP DUP2 DUP2 SUB PUSH1 0xC0 DUP4 ADD MSTORE PUSH3 0xFA9 DUP2 DUP5 PUSH3 0xECF JUMP JUMPDEST SWAP1 POP SWAP9 SWAP8 POP POP POP POP POP POP POP POP JUMP JUMPDEST PUSH2 0x3581 DUP1 PUSH3 0xFC7 PUSH1 0x0 CODECOPY PUSH1 0x0 RETURN INVALID PUSH1 0x80 PUSH1 0x40 MSTORE CALLVALUE DUP1 ISZERO PUSH2 0x10 JUMPI PUSH1 0x0 DUP1 REVERT JUMPDEST POP PUSH1 0x4 CALLDATASIZE LT PUSH2 0xEA JUMPI PUSH1 0x0 CALLDATALOAD PUSH1 0xE0 SHR DUP1 PUSH4 0xA9A981A3 GT PUSH2 0x8C JUMPI DUP1 PUSH4 0xDEC963D5 GT PUSH2 0x66 JUMPI DUP1 PUSH4 0xDEC963D5 EQ PUSH2 0x245 JUMPI DUP1 PUSH4 0xF1A68302 EQ PUSH2 0x275 JUMPI DUP1 PUSH4 0xF851A440 EQ PUSH2 0x291 JUMPI DUP1 PUSH4 0xFDBC4006 EQ PUSH2 0x2AF JUMPI PUSH2 0xEA JUMP JUMPDEST DUP1 PUSH4 0xA9A981A3 EQ PUSH2 0x1ED JUMPI DUP1 PUSH4 0xB70DDEED EQ PUSH2 0x20B JUMPI DUP1 PUSH4 0xD5346DA1 EQ PUSH2 0x227 JUMPI PUSH2 0xEA JUMP JUMPDEST DUP1 PUSH4 0x62D73EB8 GT PUSH2 0xC8 JUMPI DUP1 PUSH4 0x62D73EB8 EQ PUSH2 0x14D JUMPI DUP1 PUSH4 0x99FBAB88 EQ PUSH2 0x157 JUMPI DUP1 PUSH4 0xA3EC138D EQ PUSH2 0x187 JUMPI DUP1 PUSH4 0xA5499A31 EQ PUSH2 0x1BD JUMPI PUSH2 0xEA JUMP JUMPDEST DUP1 PUSH4 0x121B93F EQ PUSH2 0xEF JUMPI DUP1 PUSH4 0x3477EE2E EQ PUSH2 0x10B JUMPI DUP1 PUSH4 0x59F78468 EQ PUSH2 0x143 JUMPI JUMPDEST PUSH1 0x0 DUP1 REVERT JUMPDEST PUSH2 0x109 PUSH1 0x4 DUP1 CALLDATASIZE SUB DUP2 ADD SWAP1 PUSH2 0x104 SWAP2 SWAP1 PUSH2 0x1E7A JUMP JUMPDEST PUSH2 0x2CD JUMP JUMPDEST STOP JUMPDEST PUSH2 0x125 PUSH1 0x4 DUP1 CALLDATASIZE SUB DUP2 ADD SWAP1 PUSH2 0x120 SWAP2 SWAP1 PUSH2 0x1E7A JUMP JUMPDEST PUSH2 0x830 JUMP JUMPDEST PUSH1 0x40 MLOAD PUSH2 0x13A SWAP10 SWAP9 SWAP8 SWAP7 SWAP6 SWAP5 SWAP4 SWAP3 SWAP2 SWAP1 PUSH2 0x1F61 JUMP JUMPDEST PUSH1 0x40 MLOAD DUP1 SWAP2 SUB SWAP1 RETURN JUMPDEST PUSH2 0x14B PUSH2 0xBCB JUMP JUMPDEST STOP JUMPDEST PUSH2 0x155 PUSH2 0xCC4 JUMP JUMPDEST STOP JUMPDEST PUSH2 0x171 PUSH1 0x4 DUP1 CALLDATASIZE SUB DUP2 ADD SWAP1 PUSH2 0x16C SWAP2 SWAP1 PUSH2 0x1E7A JUMP JUMPDEST PUSH2 0xD6F JUMP JUMPDEST PUSH1 0x40 MLOAD PUSH2 0x17E SWAP2 SWAP1 PUSH2 0x2018 JUMP JUMPDEST PUSH1 0x40 MLOAD DUP1 SWAP2 SUB SWAP1 RETURN JUMPDEST PUSH2 0x1A1 PUSH1 0x4 DUP1 CALLDATASIZE SUB DUP2 ADD SWAP1 PUSH2 0x19C SWAP2 SWAP1 PUSH2 0x2098 JUMP JUMPDEST PUSH2 0xE1B JUMP JUMPDEST PUSH1 0x40 MLOAD PUSH2 0x1B4 SWAP8 SWAP7 SWAP6 SWAP5 SWAP4 SWAP3 SWAP2 SWAP1 PUSH2 0x20C5 JUMP JUMPDEST PUSH1 0x40 MLOAD DUP1 SWAP2 SUB SWAP1 RETURN JUMPDEST PUSH2 0x1D7 PUSH1 0x4 DUP1 CALLDATASIZE SUB DUP2 ADD SWAP1 PUSH2 0x1D2 SWAP2 SWAP1 PUSH2 0x228C JUMP JUMPDEST PUSH2 0x1112 JUMP JUMPDEST PUSH1 0x40 MLOAD PUSH2 0x1E4 SWAP2 SWAP1 PUSH2 0x22D5 JUMP JUMPDEST PUSH1 0x40 MLOAD DUP1 SWAP2 SUB SWAP1 RETURN JUMPDEST PUSH2 0x1F5 PUSH2 0x1148 JUMP JUMPDEST PUSH1 0x40 MLOAD PUSH2 0x202 SWAP2 SWAP1 PUSH2 0x22F0 JUMP JUMPDEST PUSH1 0x40 MLOAD DUP1 SWAP2 SUB SWAP1 RETURN JUMPDEST PUSH2 0x225 PUSH1 0x4 DUP1 CALLDATASIZE SUB DUP2 ADD SWAP1 PUSH2 0x220 SWAP2 SWAP1 PUSH2 0x230B JUMP JUMPDEST PUSH2 0x114E JUMP JUMPDEST STOP JUMPDEST PUSH2 0x22F PUSH2 0x147F JUMP JUMPDEST PUSH1 0x40 MLOAD PUSH2 0x23C SWAP2 SWAP1 PUSH2 0x22D5 JUMP JUMPDEST PUSH1 0x40 MLOAD DUP1 SWAP2 SUB SWAP1 RETURN JUMPDEST PUSH2 0x25F PUSH1 0x4 DUP1 CALLDATASIZE SUB DUP2 ADD SWAP1 PUSH2 0x25A SWAP2 SWAP1 PUSH2 0x228C JUMP JUMPDEST PUSH2 0x1492 JUMP JUMPDEST PUSH1 0x40 MLOAD PUSH2 0x26C SWAP2 SWAP1 PUSH2 0x22D5 JUMP JUMPDEST PUSH1 0x40 MLOAD DUP1 SWAP2 SUB SWAP1 RETURN JUMPDEST PUSH2 0x28F PUSH1 0x4 DUP1 CALLDATASIZE SUB DUP2 ADD SWAP1 PUSH2 0x28A SWAP2 SWAP1 PUSH2 0x2424 JUMP JUMPDEST PUSH2 0x14C8 JUMP JUMPDEST STOP JUMPDEST PUSH2 0x299 PUSH2 0x18DC JUMP JUMPDEST PUSH1 0x40 MLOAD PUSH2 0x2A6 SWAP2 SWAP1 PUSH2 0x2568 JUMP JUMPDEST PUSH1 0x40 MLOAD DUP1 SWAP2 SUB SWAP1 RETURN JUMPDEST PUSH2 0x2B7 PUSH2 0x1900 JUMP JUMPDEST PUSH1 0x40 MLOAD PUSH2 0x2C4 SWAP2 SWAP1 PUSH2 0x286F JUMP JUMPDEST PUSH1 0x40 MLOAD DUP1 SWAP2 SUB SWAP1 RETURN JUMPDEST PUSH1 0x0 PUSH1 0x14 SWAP1 SLOAD SWAP1 PUSH2 0x100 EXP SWAP1 DIV PUSH1 0xFF AND PUSH2 0x31C JUMPI PUSH1 0x40 MLOAD PUSH32 0x8C379A000000000000000000000000000000000000000000000000000000000 DUP2 MSTORE PUSH1 0x4 ADD PUSH2 0x313 SWAP1 PUSH2 0x2903 JUMP JUMPDEST PUSH1 0x40 MLOAD DUP1 SWAP2 SUB SWAP1 REVERT JUMPDEST PUSH1 0x0 DUP2 GT DUP1 ISZERO PUSH2 0x331 JUMPI POP PUSH1 0x1 DUP1 SLOAD SWAP1 POP DUP2 GT ISZERO JUMPDEST PUSH2 0x370 JUMPI PUSH1 0x40 MLOAD PUSH32 0x8C379A000000000000000000000000000000000000000000000000000000000 DUP2 MSTORE PUSH1 0x4 ADD PUSH2 0x367 SWAP1 PUSH2 0x296F JUMP JUMPDEST PUSH1 0x40 MLOAD DUP1 SWAP2 SUB SWAP1 REVERT JUMPDEST PUSH1 0x1 DUP1 DUP3 PUSH2 0x37E SWAP2 SWAP1 PUSH2 0x29BE JUMP JUMPDEST DUP2 SLOAD DUP2 LT PUSH2 0x38F JUMPI PUSH2 0x38E PUSH2 0x29F2 JUMP JUMPDEST JUMPDEST SWAP1 PUSH1 0x0 MSTORE PUSH1 0x20 PUSH1 0x0 KECCAK256 SWAP1 PUSH1 0xA MUL ADD PUSH1 0x8 ADD PUSH1 0x0 SWAP1 SLOAD SWAP1 PUSH2 0x100 EXP SWAP1 DIV PUSH1 0xFF AND PUSH2 0x3ED JUMPI PUSH1 0x40 MLOAD PUSH32 0x8C379A000000000000000000000000000000000000000000000000000000000 DUP2 MSTORE PUSH1 0x4 ADD PUSH2 0x3E4 SWAP1 PUSH2 0x2A93 JUMP JUMPDEST PUSH1 0x40 MLOAD DUP1 SWAP2 SUB SWAP1 REVERT JUMPDEST PUSH1 0x0 PUSH1 0x2 PUSH1 0x0 CALLER PUSH20 0xFFFFFFFFFFFFFFFFFFFFFFFFFFFFFFFFFFFFFFFF AND PUSH20 0xFFFFFFFFFFFFFFFFFFFFFFFFFFFFFFFFFFFFFFFF AND DUP2 MSTORE PUSH1 0x20 ADD SWAP1 DUP2 MSTORE PUSH1 0x20 ADD PUSH1 0x0 KECCAK256 PUSH1 0x0 ADD DUP1 SLOAD PUSH2 0x43C SWAP1 PUSH2 0x2AE2 JUMP JUMPDEST SWAP1 POP GT PUSH2 0x47E JUMPI PUSH1 0x40 MLOAD PUSH32 0x8C379A000000000000000000000000000000000000000000000000000000000 DUP2 MSTORE PUSH1 0x4 ADD PUSH2 0x475 SWAP1 PUSH2 0x2B85 JUMP JUMPDEST PUSH1 0x40 MLOAD DUP1 SWAP2 SUB SWAP1 REVERT JUMPDEST PUSH1 0x0 PUSH1 0x1 DUP1 DUP4 PUSH2 0x48E SWAP2 SWAP1 PUSH2 0x29BE JUMP JUMPDEST DUP2 SLOAD DUP2 LT PUSH2 0x49F JUMPI PUSH2 0x49E PUSH2 0x29F2 JUMP JUMPDEST JUMPDEST SWAP1 PUSH1 0x0 MSTORE PUSH1 0x20 PUSH1 0x0 KECCAK256 SWAP1 PUSH1 0xA MUL ADD PUSH1 0x5 ADD DUP1 SLOAD PUSH2 0x4BB SWAP1 PUSH2 0x2AE2 JUMP JUMPDEST DUP1 PUSH1 0x1F ADD PUSH1 0x20 DUP1 SWAP2 DIV MUL PUSH1 0x20 ADD PUSH1 0x40 MLOAD SWAP1 DUP2 ADD PUSH1 0x40 MSTORE DUP1 SWAP3 SWAP2 SWAP1 DUP2 DUP2 MSTORE PUSH1 0x20 ADD DUP3 DUP1 SLOAD PUSH2 0x4E7 SWAP1 PUSH2 0x2AE2 JUMP JUMPDEST DUP1 ISZERO PUSH2 0x534 JUMPI DUP1 PUSH1 0x1F LT PUSH2 0x509 JUMPI PUSH2 0x100 DUP1 DUP4 SLOAD DIV MUL DUP4 MSTORE SWAP2 PUSH1 0x20 ADD SWAP2 PUSH2 0x534 JUMP JUMPDEST DUP3 ADD SWAP2 SWAP1 PUSH1 0x0 MSTORE PUSH1 0x20 PUSH1 0x0 KECCAK256 SWAP1 JUMPDEST DUP2 SLOAD DUP2 MSTORE SWAP1 PUSH1 0x1 ADD SWAP1 PUSH1 0x20 ADD DUP1 DUP4 GT PUSH2 0x517 JUMPI DUP3 SWAP1 SUB PUSH1 0x1F AND DUP3 ADD SWAP2 JUMPDEST POP POP POP POP POP SWAP1 POP PUSH1 0x2 PUSH1 0x0 CALLER PUSH20 0xFFFFFFFFFFFFFFFFFFFFFFFFFFFFFFFFFFFFFFFF AND PUSH20 0xFFFFFFFFFFFFFFFFFFFFFFFFFFFFFFFFFFFFFFFF AND DUP2 MSTORE PUSH1 0x20 ADD SWAP1 DUP2 MSTORE PUSH1 0x20 ADD PUSH1 0x0 KECCAK256 PUSH1 0x6 ADD DUP2 PUSH1 0x40 MLOAD PUSH2 0x58B SWAP2 SWAP1 PUSH2 0x2BE1 JUMP JUMPDEST SWAP1 DUP2 MSTORE PUSH1 0x20 ADD PUSH1 0x40 MLOAD DUP1 SWAP2 SUB SWAP1 KECCAK256 PUSH1 0x0 SWAP1 SLOAD SWAP1 PUSH2 0x100 EXP SWAP1 DIV PUSH1 0xFF AND ISZERO DUP1 PUSH2 0x600 JUMPI POP PUSH1 0x2 PUSH1 0x0 CALLER PUSH20 0xFFFFFFFFFFFFFFFFFFFFFFFFFFFFFFFFFFFFFFFF AND PUSH20 0xFFFFFFFFFFFFFFFFFFFFFFFFFFFFFFFFFFFFFFFF AND DUP2 MSTORE PUSH1 0x20 ADD SWAP1 DUP2 MSTORE PUSH1 0x20 ADD PUSH1 0x0 KECCAK256 PUSH1 0x7 ADD PUSH1 0x0 SWAP1 SLOAD SWAP1 PUSH2 0x100 EXP SWAP1 DIV PUSH1 0xFF AND ISZERO JUMPDEST PUSH2 0x63F JUMPI PUSH1 0x40 MLOAD PUSH32 0x8C379A000000000000000000000000000000000000000000000000000000000 DUP2 MSTORE PUSH1 0x4 ADD PUSH2 0x636 SWAP1 PUSH2 0x2C6A JUMP JUMPDEST PUSH1 0x40 MLOAD DUP1 SWAP2 SUB SWAP1 REVERT JUMPDEST PUSH1 0x1 DUP1 DUP4 PUSH2 0x64D SWAP2 SWAP1 PUSH2 0x29BE JUMP JUMPDEST DUP2 SLOAD DUP2 LT PUSH2 0x65E JUMPI PUSH2 0x65D PUSH2 0x29F2 JUMP JUMPDEST JUMPDEST SWAP1 PUSH1 0x0 MSTORE PUSH1 0x20 PUSH1 0x0 KECCAK256 SWAP1 PUSH1 0xA MUL ADD PUSH1 0x7 ADD PUSH1 0x0 DUP2 SLOAD DUP1 SWAP3 SWAP2 SWAP1 PUSH2 0x680 SWAP1 PUSH2 0x2C8A JUMP JUMPDEST SWAP2 SWAP1 POP SSTORE POP PUSH1 0x1 DUP1 DUP4 PUSH2 0x693 SWAP2 SWAP1 PUSH2 0x29BE JUMP JUMPDEST DUP2 SLOAD DUP2 LT PUSH2 0x6A4 JUMPI PUSH2 0x6A3 PUSH2 0x29F2 JUMP JUMPDEST JUMPDEST SWAP1 PUSH1 0x0 MSTORE PUSH1 0x20 PUSH1 0x0 KECCAK256 SWAP1 PUSH1 0xA MUL ADD PUSH1 0x9 ADD CALLER SWAP1 DUP1 PUSH1 0x1 DUP2 SLOAD ADD DUP1 DUP3 SSTORE DUP1 SWAP2 POP POP PUSH1 0x1 SWAP1 SUB SWAP1 PUSH1 0x0 MSTORE PUSH1 0x20 PUSH1 0x0 KECCAK256 ADD PUSH1 0x0 SWAP1 SWAP2 SWAP1 SWAP2 SWAP1 SWAP2 PUSH2 0x100 EXP DUP2 SLOAD DUP2 PUSH20 0xFFFFFFFFFFFFFFFFFFFFFFFFFFFFFFFFFFFFFFFF MUL NOT AND SWAP1 DUP4 PUSH20 0xFFFFFFFFFFFFFFFFFFFFFFFFFFFFFFFFFFFFFFFF AND MUL OR SWAP1 SSTORE POP PUSH1 0x1 PUSH1 0x2 PUSH1 0x0 CALLER PUSH20 0xFFFFFFFFFFFFFFFFFFFFFFFFFFFFFFFFFFFFFFFF AND PUSH20 0xFFFFFFFFFFFFFFFFFFFFFFFFFFFFFFFFFFFFFFFF AND DUP2 MSTORE PUSH1 0x20 ADD SWAP1 DUP2 MSTORE PUSH1 0x20 ADD PUSH1 0x0 KECCAK256 PUSH1 0x6 ADD DUP3 PUSH1 0x40 MLOAD PUSH2 0x768 SWAP2 SWAP1 PUSH2 0x2BE1 JUMP JUMPDEST SWAP1 DUP2 MSTORE PUSH1 0x20 ADD PUSH1 0x40 MLOAD DUP1 SWAP2 SUB SWAP1 KECCAK256 PUSH1 0x0 PUSH2 0x100 EXP DUP2 SLOAD DUP2 PUSH1 0xFF MUL NOT AND SWAP1 DUP4 ISZERO ISZERO MUL OR SWAP1 SSTORE POP PUSH1 0x1 PUSH1 0x2 PUSH1 0x0 CALLER PUSH20 0xFFFFFFFFFFFFFFFFFFFFFFFFFFFFFFFFFFFFFFFF AND PUSH20 0xFFFFFFFFFFFFFFFFFFFFFFFFFFFFFFFFFFFFFFFF AND DUP2 MSTORE PUSH1 0x20 ADD SWAP1 DUP2 MSTORE PUSH1 0x20 ADD PUSH1 0x0 KECCAK256 PUSH1 0x7 ADD PUSH1 0x0 PUSH2 0x100 EXP DUP2 SLOAD DUP2 PUSH1 0xFF MUL NOT AND SWAP1 DUP4 ISZERO ISZERO MUL OR SWAP1 SSTORE POP DUP2 CALLER PUSH20 0xFFFFFFFFFFFFFFFFFFFFFFFFFFFFFFFFFFFFFFFF AND PUSH32 0xA36CC2BEBB74DB33E9F88110A07EF56E1B31B24B4C4F51B54B1664266E29F45B PUSH1 0x40 MLOAD PUSH1 0x40 MLOAD DUP1 SWAP2 SUB SWAP1 LOG3 POP POP JUMP JUMPDEST PUSH1 0x1 DUP2 DUP2 SLOAD DUP2 LT PUSH2 0x840 JUMPI PUSH1 0x0 DUP1 REVERT JUMPDEST SWAP1 PUSH1 0x0 MSTORE PUSH1 0x20 PUSH1 0x0 KECCAK256 SWAP1 PUSH1 0xA MUL ADD PUSH1 0x0 SWAP2 POP SWAP1 POP DUP1 PUSH1 0x0 ADD SLOAD SWAP1 DUP1 PUSH1 0x1 ADD DUP1 SLOAD PUSH2 0x869 SWAP1 PUSH2 0x2AE2 JUMP JUMPDEST DUP1 PUSH1 0x1F ADD PUSH1 0x20 DUP1 SWAP2 DIV MUL PUSH1 0x20 ADD PUSH1 0x40 MLOAD SWAP1 DUP2 ADD PUSH1 0x40 MSTORE DUP1 SWAP3 SWAP2 SWAP1 DUP2 DUP2 MSTORE PUSH1 0x20 ADD DUP3 DUP1 SLOAD PUSH2 0x895 SWAP1 PUSH2 0x2AE2 JUMP JUMPDEST DUP1 ISZERO PUSH2 0x8E2 JUMPI DUP1 PUSH1 0x1F LT PUSH2 0x8B7 JUMPI PUSH2 0x100 DUP1 DUP4 SLOAD DIV MUL DUP4 MSTORE SWAP2 PUSH1 0x20 ADD SWAP2 PUSH2 0x8E2 JUMP JUMPDEST DUP3 ADD SWAP2 SWAP1 PUSH1 0x0 MSTORE PUSH1 0x20 PUSH1 0x0 KECCAK256 SWAP1 JUMPDEST DUP2 SLOAD DUP2 MSTORE SWAP1 PUSH1 0x1 ADD SWAP1 PUSH1 0x20 ADD DUP1 DUP4 GT PUSH2 0x8C5 JUMPI DUP3 SWAP1 SUB PUSH1 0x1F AND DUP3 ADD SWAP2 JUMPDEST POP POP POP POP POP SWAP1 DUP1 PUSH1 0x2 ADD DUP1 SLOAD PUSH2 0x8F7 SWAP1 PUSH2 0x2AE2 JUMP JUMPDEST DUP1 PUSH1 0x1F ADD PUSH1 0x20 DUP1 SWAP2 DIV MUL PUSH1 0x20 ADD PUSH1 0x40 MLOAD SWAP1 DUP2 ADD PUSH1 0x40 MSTORE DUP1 SWAP3 SWAP2 SWAP1 DUP2 DUP2 MSTORE PUSH1 0x20 ADD DUP3 DUP1 SLOAD PUSH2 0x923 SWAP1 PUSH2 0x2AE2 JUMP JUMPDEST DUP1 ISZERO PUSH2 0x970 JUMPI DUP1 PUSH1 0x1F LT PUSH2 0x945 JUMPI PUSH2 0x100 DUP1 DUP4 SLOAD DIV MUL DUP4 MSTORE SWAP2 PUSH1 0x20 ADD SWAP2 PUSH2 0x970 JUMP JUMPDEST DUP3 ADD SWAP2 SWAP1 PUSH1 0x0 MSTORE PUSH1 0x20 PUSH1 0x0 KECCAK256 SWAP1 JUMPDEST DUP2 SLOAD DUP2 MSTORE SWAP1 PUSH1 0x1 ADD SWAP1 PUSH1 0x20 ADD DUP1 DUP4 GT PUSH2 0x953 JUMPI DUP3 SWAP1 SUB PUSH1 0x1F AND DUP3 ADD SWAP2 JUMPDEST POP POP POP POP POP SWAP1 DUP1 PUSH1 0x3 ADD DUP1 SLOAD PUSH2 0x985 SWAP1 PUSH2 0x2AE2 JUMP JUMPDEST DUP1 PUSH1 0x1F ADD PUSH1 0x20 DUP1 SWAP2 DIV MUL PUSH1 0x20 ADD PUSH1 0x40 MLOAD SWAP1 DUP2 ADD PUSH1 0x40 MSTORE DUP1 SWAP3 SWAP2 SWAP1 DUP2 DUP2 MSTORE PUSH1 0x20 ADD DUP3 DUP1 SLOAD PUSH2 0x9B1 SWAP1 PUSH2 0x2AE2 JUMP JUMPDEST DUP1 ISZERO PUSH2 0x9FE JUMPI DUP1 PUSH1 0x1F LT PUSH2 0x9D3 JUMPI PUSH2 0x100 DUP1 DUP4 SLOAD DIV MUL DUP4 MSTORE SWAP2 PUSH1 0x20 ADD SWAP2 PUSH2 0x9FE JUMP JUMPDEST DUP3 ADD SWAP2 SWAP1 PUSH1 0x0 MSTORE PUSH1 0x20 PUSH1 0x0 KECCAK256 SWAP1 JUMPDEST DUP2 SLOAD DUP2 MSTORE SWAP1 PUSH1 0x1 ADD SWAP1 PUSH1 0x20 ADD DUP1 DUP4 GT PUSH2 0x9E1 JUMPI DUP3 SWAP1 SUB PUSH1 0x1F AND DUP3 ADD SWAP2 JUMPDEST POP POP POP POP POP SWAP1 DUP1 PUSH1 0x4 ADD DUP1 SLOAD PUSH2 0xA13 SWAP1 PUSH2 0x2AE2 JUMP JUMPDEST DUP1 PUSH1 0x1F ADD PUSH1 0x20 DUP1 SWAP2 DIV MUL PUSH1 0x20 ADD PUSH1 0x40 MLOAD SWAP1 DUP2 ADD PUSH1 0x40 MSTORE DUP1 SWAP3 SWAP2 SWAP1 DUP2 DUP2 MSTORE PUSH1 0x20 ADD DUP3 DUP1 SLOAD PUSH2 0xA3F SWAP1 PUSH2 0x2AE2 JUMP JUMPDEST DUP1 ISZERO PUSH2 0xA8C JUMPI DUP1 PUSH1 0x1F LT PUSH2 0xA61 JUMPI PUSH2 0x100 DUP1 DUP4 SLOAD DIV MUL DUP4 MSTORE SWAP2 PUSH1 0x20 ADD SWAP2 PUSH2 0xA8C JUMP JUMPDEST DUP3 ADD SWAP2 SWAP1 PUSH1 0x0 MSTORE PUSH1 0x20 PUSH1 0x0 KECCAK256 SWAP1 JUMPDEST DUP2 SLOAD DUP2 MSTORE SWAP1 PUSH1 0x1 ADD SWAP1 PUSH1 0x20 ADD DUP1 DUP4 GT PUSH2 0xA6F JUMPI DUP3 SWAP1 SUB PUSH1 0x1F AND DUP3 ADD SWAP2 JUMPDEST POP POP POP POP POP SWAP1 DUP1 PUSH1 0x5 ADD DUP1 SLOAD PUSH2 0xAA1 SWAP1 PUSH2 0x2AE2 JUMP JUMPDEST DUP1 PUSH1 0x1F ADD PUSH1 0x20 DUP1 SWAP2 DIV MUL PUSH1 0x20 ADD PUSH1 0x40 MLOAD SWAP1 DUP2 ADD PUSH1 0x40 MSTORE DUP1 SWAP3 SWAP2 SWAP1 DUP2 DUP2 MSTORE PUSH1 0x20 ADD DUP3 DUP1 SLOAD PUSH2 0xACD SWAP1 PUSH2 0x2AE2 JUMP JUMPDEST DUP1 ISZERO PUSH2 0xB1A JUMPI DUP1 PUSH1 0x1F LT PUSH2 0xAEF JUMPI PUSH2 0x100 DUP1 DUP4 SLOAD DIV MUL DUP4 MSTORE SWAP2 PUSH1 0x20 ADD SWAP2 PUSH2 0xB1A JUMP JUMPDEST DUP3 ADD SWAP2 SWAP1 PUSH1 0x0 MSTORE PUSH1 0x20 PUSH1 0x0 KECCAK256 SWAP1 JUMPDEST DUP2 SLOAD DUP2 MSTORE SWAP1 PUSH1 0x1 ADD SWAP1 PUSH1 0x20 ADD DUP1 DUP4 GT PUSH2 0xAFD JUMPI DUP3 SWAP1 SUB PUSH1 0x1F AND DUP3 ADD SWAP2 JUMPDEST POP POP POP POP POP SWAP1 DUP1 PUSH1 0x6 ADD DUP1 SLOAD PUSH2 0xB2F SWAP1 PUSH2 0x2AE2 JUMP JUMPDEST DUP1 PUSH1 0x1F ADD PUSH1 0x20 DUP1 SWAP2 DIV MUL PUSH1 0x20 ADD PUSH1 0x40 MLOAD SWAP1 DUP2 ADD PUSH1 0x40 MSTORE DUP1 SWAP3 SWAP2 SWAP1 DUP2 DUP2 MSTORE PUSH1 0x20 ADD DUP3 DUP1 SLOAD PUSH2 0xB5B SWAP1 PUSH2 0x2AE2 JUMP JUMPDEST DUP1 ISZERO PUSH2 0xBA8 JUMPI DUP1 PUSH1 0x1F LT PUSH2 0xB7D JUMPI PUSH2 0x100 DUP1 DUP4 SLOAD DIV MUL DUP4 MSTORE SWAP2 PUSH1 0x20 ADD SWAP2 PUSH2 0xBA8 JUMP JUMPDEST DUP3 ADD SWAP2 SWAP1 PUSH1 0x0 MSTORE PUSH1 0x20 PUSH1 0x0 KECCAK256 SWAP1 JUMPDEST DUP2 SLOAD DUP2 MSTORE SWAP1 PUSH1 0x1 ADD SWAP1 PUSH1 0x20 ADD DUP1 DUP4 GT PUSH2 0xB8B JUMPI DUP3 SWAP1 SUB PUSH1 0x1F AND DUP3 ADD SWAP2 JUMPDEST POP POP POP POP POP SWAP1 DUP1 PUSH1 0x7 ADD SLOAD SWAP1 DUP1 PUSH1 0x8 ADD PUSH1 0x0 SWAP1 SLOAD SWAP1 PUSH2 0x100 EXP SWAP1 DIV PUSH1 0xFF AND SWAP1 POP DUP10 JUMP JUMPDEST PUSH1 0x0 DUP1 SLOAD SWAP1 PUSH2 0x100 EXP SWAP1 DIV PUSH20 0xFFFFFFFFFFFFFFFFFFFFFFFFFFFFFFFFFFFFFFFF AND PUSH20 0xFFFFFFFFFFFFFFFFFFFFFFFFFFFFFFFFFFFFFFFF AND CALLER PUSH20 0xFFFFFFFFFFFFFFFFFFFFFFFFFFFFFFFFFFFFFFFF AND EQ PUSH2 0xC58 JUMPI PUSH32 0x2371C57317C178CE4C0FBD44FEA415F4F3E1E1BDBDD5177E7661C78F3A4F320B PUSH1 0x40 MLOAD PUSH2 0xC4B SWAP1 PUSH2 0x2D44 JUMP JUMPDEST PUSH1 0x40 MLOAD DUP1 SWAP2 SUB SWAP1 LOG1 PUSH2 0xCC2 JUMP JUMPDEST PUSH1 0x0 PUSH1 0x14 SWAP1 SLOAD SWAP1 PUSH2 0x100 EXP SWAP1 DIV PUSH1 0xFF AND PUSH2 0xCA7 JUMPI PUSH1 0x40 MLOAD PUSH32 0x8C379A000000000000000000000000000000000000000000000000000000000 DUP2 MSTORE PUSH1 0x4 ADD PUSH2 0xC9E SWAP1 PUSH2 0x2903 JUMP JUMPDEST PUSH1 0x40 MLOAD DUP1 SWAP2 SUB SWAP1 REVERT JUMPDEST PUSH1 0x0 DUP1 PUSH1 0x14 PUSH2 0x100 EXP DUP2 SLOAD DUP2 PUSH1 0xFF MUL NOT AND SWAP1 DUP4 ISZERO ISZERO MUL OR SWAP1 SSTORE POP JUMPDEST JUMP JUMPDEST PUSH1 0x0 DUP1 SLOAD SWAP1 PUSH2 0x100 EXP SWAP1 DIV PUSH20 0xFFFFFFFFFFFFFFFFFFFFFFFFFFFFFFFFFFFFFFFF AND PUSH20 0xFFFFFFFFFFFFFFFFFFFFFFFFFFFFFFFFFFFFFFFF AND CALLER PUSH20 0xFFFFFFFFFFFFFFFFFFFFFFFFFFFFFFFFFFFFFFFF AND EQ PUSH2 0xD51 JUMPI PUSH32 0x2371C57317C178CE4C0FBD44FEA415F4F3E1E1BDBDD5177E7661C78F3A4F320B PUSH1 0x40 MLOAD PUSH2 0xD44 SWAP1 PUSH2 0x2D44 JUMP JUMPDEST PUSH1 0x40 MLOAD DUP1 SWAP2 SUB SWAP1 LOG1 PUSH2 0xD6D JUMP JUMPDEST PUSH1 0x1 PUSH1 0x0 PUSH1 0x14 PUSH2 0x100 EXP DUP2 SLOAD DUP2 PUSH1 0xFF MUL NOT AND SWAP1 DUP4 ISZERO ISZERO MUL OR SWAP1 SSTORE POP JUMPDEST JUMP JUMPDEST PUSH1 0x6 DUP2 DUP2 SLOAD DUP2 LT PUSH2 0xD7F JUMPI PUSH1 0x0 DUP1 REVERT JUMPDEST SWAP1 PUSH1 0x0 MSTORE PUSH1 0x20 PUSH1 0x0 KECCAK256 ADD PUSH1 0x0 SWAP2 POP SWAP1 POP DUP1 SLOAD PUSH2 0xD9A SWAP1 PUSH2 0x2AE2 JUMP JUMPDEST DUP1 PUSH1 0x1F ADD PUSH1 0x20 DUP1 SWAP2 DIV MUL PUSH1 0x20 ADD PUSH1 0x40 MLOAD SWAP1 DUP2 ADD PUSH1 0x40 MSTORE DUP1 SWAP3 SWAP2 SWAP1 DUP2 DUP2 MSTORE PUSH1 0x20 ADD DUP3 DUP1 SLOAD PUSH2 0xDC6 SWAP1 PUSH2 0x2AE2 JUMP JUMPDEST DUP1 ISZERO PUSH2 0xE13 JUMPI DUP1 PUSH1 0x1F LT PUSH2 0xDE8 JUMPI PUSH2 0x100 DUP1 DUP4 SLOAD DIV MUL DUP4 MSTORE SWAP2 PUSH1 0x20 ADD SWAP2 PUSH2 0xE13 JUMP JUMPDEST DUP3 ADD SWAP2 SWAP1 PUSH1 0x0 MSTORE PUSH1 0x20 PUSH1 0x0 KECCAK256 SWAP1 JUMPDEST DUP2 SLOAD DUP2 MSTORE SWAP1 PUSH1 0x1 ADD SWAP1 PUSH1 0x20 ADD DUP1 DUP4 GT PUSH2 0xDF6 JUMPI DUP3 SWAP1 SUB PUSH1 0x1F AND DUP3 ADD SWAP2 JUMPDEST POP POP POP POP POP DUP2 JUMP JUMPDEST PUSH1 0x2 PUSH1 0x20 MSTORE DUP1 PUSH1 0x0 MSTORE PUSH1 0x40 PUSH1 0x0 KECCAK256 PUSH1 0x0 SWAP2 POP SWAP1 POP DUP1 PUSH1 0x0 ADD DUP1 SLOAD PUSH2 0xE3E SWAP1 PUSH2 0x2AE2 JUMP JUMPDEST DUP1 PUSH1 0x1F ADD PUSH1 0x20 DUP1 SWAP2 DIV MUL PUSH1 0x20 ADD PUSH1 0x40 MLOAD SWAP1 DUP2 ADD PUSH1 0x40 MSTORE DUP1 SWAP3 SWAP2 SWAP1 DUP2 DUP2 MSTORE PUSH1 0x20 ADD DUP3 DUP1 SLOAD PUSH2 0xE6A SWAP1 PUSH2 0x2AE2 JUMP JUMPDEST DUP1 ISZERO PUSH2 0xEB7 JUMPI DUP1 PUSH1 0x1F LT PUSH2 0xE8C JUMPI PUSH2 0x100 DUP1 DUP4 SLOAD DIV MUL DUP4 MSTORE SWAP2 PUSH1 0x20 ADD SWAP2 PUSH2 0xEB7 JUMP JUMPDEST DUP3 ADD SWAP2 SWAP1 PUSH1 0x0 MSTORE PUSH1 0x20 PUSH1 0x0 KECCAK256 SWAP1 JUMPDEST DUP2 SLOAD DUP2 MSTORE SWAP1 PUSH1 0x1 ADD SWAP1 PUSH1 0x20 ADD DUP1 DUP4 GT PUSH2 0xE9A JUMPI DUP3 SWAP1 SUB PUSH1 0x1F AND DUP3 ADD SWAP2 JUMPDEST POP POP POP POP POP SWAP1 DUP1 PUSH1 0x1 ADD DUP1 SLOAD PUSH2 0xECC SWAP1 PUSH2 0x2AE2 JUMP JUMPDEST DUP1 PUSH1 0x1F ADD PUSH1 0x20 DUP1 SWAP2 DIV MUL PUSH1 0x20 ADD PUSH1 0x40 MLOAD SWAP1 DUP2 ADD PUSH1 0x40 MSTORE DUP1 SWAP3 SWAP2 SWAP1 DUP2 DUP2 MSTORE PUSH1 0x20 ADD DUP3 DUP1 SLOAD PUSH2 0xEF8 SWAP1 PUSH2 0x2AE2 JUMP JUMPDEST DUP1 ISZERO PUSH2 0xF45 JUMPI DUP1 PUSH1 0x1F LT PUSH2 0xF1A JUMPI PUSH2 0x100 DUP1 DUP4 SLOAD DIV MUL DUP4 MSTORE SWAP2 PUSH1 0x20 ADD SWAP2 PUSH2 0xF45 JUMP JUMPDEST DUP3 ADD SWAP2 SWAP1 PUSH1 0x0 MSTORE PUSH1 0x20 PUSH1 0x0 KECCAK256 SWAP1 JUMPDEST DUP2 SLOAD DUP2 MSTORE SWAP1 PUSH1 0x1 ADD SWAP1 PUSH1 0x20 ADD DUP1 DUP4 GT PUSH2 0xF28 JUMPI DUP3 SWAP1 SUB PUSH1 0x1F AND DUP3 ADD SWAP2 JUMPDEST POP POP POP POP POP SWAP1 DUP1 PUSH1 0x2 ADD DUP1 SLOAD PUSH2 0xF5A SWAP1 PUSH2 0x2AE2 JUMP JUMPDEST DUP1 PUSH1 0x1F ADD PUSH1 0x20 DUP1 SWAP2 DIV MUL PUSH1 0x20 ADD PUSH1 0x40 MLOAD SWAP1 DUP2 ADD PUSH1 0x40 MSTORE DUP1 SWAP3 SWAP2 SWAP1 DUP2 DUP2 MSTORE PUSH1 0x20 ADD DUP3 DUP1 SLOAD PUSH2 0xF86 SWAP1 PUSH2 0x2AE2 JUMP JUMPDEST DUP1 ISZERO PUSH2 0xFD3 JUMPI DUP1 PUSH1 0x1F LT PUSH2 0xFA8 JUMPI PUSH2 0x100 DUP1 DUP4 SLOAD DIV MUL DUP4 MSTORE SWAP2 PUSH1 0x20 ADD SWAP2 PUSH2 0xFD3 JUMP JUMPDEST DUP3 ADD SWAP2 SWAP1 PUSH1 0x0 MSTORE PUSH1 0x20 PUSH1 0x0 KECCAK256 SWAP1 JUMPDEST DUP2 SLOAD DUP2 MSTORE SWAP1 PUSH1 0x1 ADD SWAP1 PUSH1 0x20 ADD DUP1 DUP4 GT PUSH2 0xFB6 JUMPI DUP3 SWAP1 SUB PUSH1 0x1F AND DUP3 ADD SWAP2 JUMPDEST POP POP POP POP POP SWAP1 DUP1 PUSH1 0x3 ADD SLOAD SWAP1 DUP1 PUSH1 0x4 ADD DUP1 SLOAD PUSH2 0xFEE SWAP1 PUSH2 0x2AE2 JUMP JUMPDEST DUP1 PUSH1 0x1F ADD PUSH1 0x20 DUP1 SWAP2 DIV MUL PUSH1 0x20 ADD PUSH1 0x40 MLOAD SWAP1 DUP2 ADD PUSH1 0x40 MSTORE DUP1 SWAP3 SWAP2 SWAP1 DUP2 DUP2 MSTORE PUSH1 0x20 ADD DUP3 DUP1 SLOAD PUSH2 0x101A SWAP1 PUSH2 0x2AE2 JUMP JUMPDEST DUP1 ISZERO PUSH2 0x1067 JUMPI DUP1 PUSH1 0x1F LT PUSH2 0x103C JUMPI PUSH2 0x100 DUP1 DUP4 SLOAD DIV MUL DUP4 MSTORE SWAP2 PUSH1 0x20 ADD SWAP2 PUSH2 0x1067 JUMP JUMPDEST DUP3 ADD SWAP2 SWAP1 PUSH1 0x0 MSTORE PUSH1 0x20 PUSH1 0x0 KECCAK256 SWAP1 JUMPDEST DUP2 SLOAD DUP2 MSTORE SWAP1 PUSH1 0x1 ADD SWAP1 PUSH1 0x20 ADD DUP1 DUP4 GT PUSH2 0x104A JUMPI DUP3 SWAP1 SUB PUSH1 0x1F AND DUP3 ADD SWAP2 JUMPDEST POP POP POP POP POP SWAP1 DUP1 PUSH1 0x5 ADD DUP1 SLOAD PUSH2 0x107C SWAP1 PUSH2 0x2AE2 JUMP JUMPDEST DUP1 PUSH1 0x1F ADD PUSH1 0x20 DUP1 SWAP2 DIV MUL PUSH1 0x20 ADD PUSH1 0x40 MLOAD SWAP1 DUP2 ADD PUSH1 0x40 MSTORE DUP1 SWAP3 SWAP2 SWAP1 DUP2 DUP2 MSTORE PUSH1 0x20 ADD DUP3 DUP1 SLOAD PUSH2 0x10A8 SWAP1 PUSH2 0x2AE2 JUMP JUMPDEST DUP1 ISZERO PUSH2 0x10F5 JUMPI DUP1 PUSH1 0x1F LT PUSH2 0x10CA JUMPI PUSH2 0x100 DUP1 DUP4 SLOAD DIV MUL DUP4 MSTORE SWAP2 PUSH1 0x20 ADD SWAP2 PUSH2 0x10F5 JUMP JUMPDEST DUP3 ADD SWAP2 SWAP1 PUSH1 0x0 MSTORE PUSH1 0x20 PUSH1 0x0 KECCAK256 SWAP1 JUMPDEST DUP2 SLOAD DUP2 MSTORE SWAP1 PUSH1 0x1 ADD SWAP1 PUSH1 0x20 ADD DUP1 DUP4 GT PUSH2 0x10D8 JUMPI DUP3 SWAP1 SUB PUSH1 0x1F AND DUP3 ADD SWAP2 JUMPDEST POP POP POP POP POP SWAP1 DUP1 PUSH1 0x7 ADD PUSH1 0x0 SWAP1 SLOAD SWAP1 PUSH2 0x100 EXP SWAP1 DIV PUSH1 0xFF AND SWAP1 POP DUP8 JUMP JUMPDEST PUSH1 0x3 DUP2 DUP1 MLOAD PUSH1 0x20 DUP2 ADD DUP3 ADD DUP1 MLOAD DUP5 DUP3 MSTORE PUSH1 0x20 DUP4 ADD PUSH1 0x20 DUP6 ADD KECCAK256 DUP2 DUP4 MSTORE DUP1 SWAP6 POP POP POP POP POP POP PUSH1 0x0 SWAP2 POP SLOAD SWAP1 PUSH2 0x100 EXP SWAP1 DIV PUSH1 0xFF AND DUP2 JUMP JUMPDEST PUSH1 0x5 SLOAD DUP2 JUMP JUMPDEST PUSH1 0x0 DUP7 MLOAD GT DUP1 ISZERO PUSH2 0x1160 JUMPI POP PUSH1 0x0 DUP6 MLOAD GT JUMPDEST PUSH2 0x119F JUMPI PUSH1 0x40 MLOAD PUSH32 0x8C379A000000000000000000000000000000000000000000000000000000000 DUP2 MSTORE PUSH1 0x4 ADD PUSH2 0x1196 SWAP1 PUSH2 0x2DD6 JUMP JUMPDEST PUSH1 0x40 MLOAD DUP1 SWAP2 SUB SWAP1 REVERT JUMPDEST PUSH1 0x0 DUP5 MLOAD GT PUSH2 0x11E3 JUMPI PUSH1 0x40 MLOAD PUSH32 0x8C379A000000000000000000000000000000000000000000000000000000000 DUP2 MSTORE PUSH1 0x4 ADD PUSH2 0x11DA SWAP1 PUSH2 0x2E42 JUMP JUMPDEST PUSH1 0x40 MLOAD DUP1 SWAP2 SUB SWAP1 REVERT JUMPDEST PUSH1 0x12 DUP4 LT ISZERO PUSH2 0x1227 JUMPI PUSH1 0x40 MLOAD PUSH32 0x8C379A000000000000000000000000000000000000000000000000000000000 DUP2 MSTORE PUSH1 0x4 ADD PUSH2 0x121E SWAP1 PUSH2 0x2ED4 JUMP JUMPDEST PUSH1 0x40 MLOAD DUP1 SWAP2 SUB SWAP1 REVERT JUMPDEST PUSH1 0x4 DUP5 PUSH1 0x40 MLOAD PUSH2 0x1237 SWAP2 SWAP1 PUSH2 0x2BE1 JUMP JUMPDEST SWAP1 DUP2 MSTORE PUSH1 0x20 ADD PUSH1 0x40 MLOAD DUP1 SWAP2 SUB SWAP1 KECCAK256 PUSH1 0x0 SWAP1 SLOAD SWAP1 PUSH2 0x100 EXP SWAP1 DIV PUSH1 0xFF AND ISZERO PUSH2 0x1293 JUMPI PUSH1 0x40 MLOAD PUSH32 0x8C379A000000000000000000000000000000000000000000000000000000000 DUP2 MSTORE PUSH1 0x4 ADD PUSH2 0x128A SWAP1 PUSH2 0x2F66 JUMP JUMPDEST PUSH1 0x40 MLOAD DUP1 SWAP2 SUB SWAP1 REVERT JUMPDEST PUSH1 0x0 PUSH1 0x2 PUSH1 0x0 CALLER PUSH20 0xFFFFFFFFFFFFFFFFFFFFFFFFFFFFFFFFFFFFFFFF AND PUSH20 0xFFFFFFFFFFFFFFFFFFFFFFFFFFFFFFFFFFFFFFFF AND DUP2 MSTORE PUSH1 0x20 ADD SWAP1 DUP2 MSTORE PUSH1 0x20 ADD PUSH1 0x0 KECCAK256 PUSH1 0x0 ADD DUP1 SLOAD PUSH2 0x12E2 SWAP1 PUSH2 0x2AE2 JUMP JUMPDEST SWAP1 POP EQ PUSH2 0x1324 JUMPI PUSH1 0x40 MLOAD PUSH32 0x8C379A000000000000000000000000000000000000000000000000000000000 DUP2 MSTORE PUSH1 0x4 ADD PUSH2 0x131B SWAP1 PUSH2 0x2FF8 JUMP JUMPDEST PUSH1 0x40 MLOAD DUP1 SWAP2 SUB SWAP1 REVERT JUMPDEST PUSH1 0x0 PUSH1 0x2 PUSH1 0x0 CALLER PUSH20 0xFFFFFFFFFFFFFFFFFFFFFFFFFFFFFFFFFFFFFFFF AND PUSH20 0xFFFFFFFFFFFFFFFFFFFFFFFFFFFFFFFFFFFFFFFF AND DUP2 MSTORE PUSH1 0x20 ADD SWAP1 DUP2 MSTORE PUSH1 0x20 ADD PUSH1 0x0 KECCAK256 SWAP1 POP DUP7 DUP2 PUSH1 0x0 ADD SWAP1 DUP2 PUSH2 0x1378 SWAP2 SWAP1 PUSH2 0x31C4 JUMP JUMPDEST POP DUP6 DUP2 PUSH1 0x1 ADD SWAP1 DUP2 PUSH2 0x138A SWAP2 SWAP1 PUSH2 0x31C4 JUMP JUMPDEST POP DUP5 DUP2 PUSH1 0x2 ADD SWAP1 DUP2 PUSH2 0x139C SWAP2 SWAP1 PUSH2 0x31C4 JUMP JUMPDEST POP DUP4 DUP2 PUSH1 0x3 ADD DUP2 SWAP1 SSTORE POP DUP3 DUP2 PUSH1 0x4 ADD SWAP1 DUP2 PUSH2 0x13B7 SWAP2 SWAP1 PUSH2 0x31C4 JUMP JUMPDEST POP DUP2 DUP2 PUSH1 0x5 ADD SWAP1 DUP2 PUSH2 0x13C9 SWAP2 SWAP1 PUSH2 0x31C4 JUMP JUMPDEST POP PUSH1 0x0 DUP2 PUSH1 0x7 ADD PUSH1 0x0 PUSH2 0x100 EXP DUP2 SLOAD DUP2 PUSH1 0xFF MUL NOT AND SWAP1 DUP4 ISZERO ISZERO MUL OR SWAP1 SSTORE POP PUSH1 0x1 PUSH1 0x4 DUP7 PUSH1 0x40 MLOAD PUSH2 0x13F9 SWAP2 SWAP1 PUSH2 0x2BE1 JUMP JUMPDEST SWAP1 DUP2 MSTORE PUSH1 0x20 ADD PUSH1 0x40 MLOAD DUP1 SWAP2 SUB SWAP1 KECCAK256 PUSH1 0x0 PUSH2 0x100 EXP DUP2 SLOAD DUP2 PUSH1 0xFF MUL NOT AND SWAP1 DUP4 ISZERO ISZERO MUL OR SWAP1 SSTORE POP CALLER PUSH20 0xFFFFFFFFFFFFFFFFFFFFFFFFFFFFFFFFFFFFFFFF AND PUSH32 0xCCAD38708687DF5DFCE467BFBBA52384231A28B8BD086DF4175AA538A803F96B DUP9 DUP9 DUP9 DUP9 DUP9 DUP9 PUSH1 0x40 MLOAD PUSH2 0x146E SWAP7 SWAP6 SWAP5 SWAP4 SWAP3 SWAP2 SWAP1 PUSH2 0x3296 JUMP JUMPDEST PUSH1 0x40 MLOAD DUP1 SWAP2 SUB SWAP1 LOG2 POP POP POP POP POP POP POP JUMP JUMPDEST PUSH1 0x0 PUSH1 0x14 SWAP1 SLOAD SWAP1 PUSH2 0x100 EXP SWAP1 DIV PUSH1 0xFF AND DUP2 JUMP JUMPDEST PUSH1 0x4 DUP2 DUP1 MLOAD PUSH1 0x20 DUP2 ADD DUP3 ADD DUP1 MLOAD DUP5 DUP3 MSTORE PUSH1 0x20 DUP4 ADD PUSH1 0x20 DUP6 ADD KECCAK256 DUP2 DUP4 MSTORE DUP1 SWAP6 POP POP POP POP POP POP PUSH1 0x0 SWAP2 POP SLOAD SWAP1 PUSH2 0x100 EXP SWAP1 DIV PUSH1 0xFF AND DUP2 JUMP JUMPDEST PUSH1 0x0 DUP1 SLOAD SWAP1 PUSH2 0x100 EXP SWAP1 DIV PUSH20 0xFFFFFFFFFFFFFFFFFFFFFFFFFFFFFFFFFFFFFFFF AND PUSH20 0xFFFFFFFFFFFFFFFFFFFFFFFFFFFFFFFFFFFFFFFF AND CALLER PUSH20 0xFFFFFFFFFFFFFFFFFFFFFFFFFFFFFFFFFFFFFFFF AND EQ PUSH2 0x1555 JUMPI PUSH32 0x2371C57317C178CE4C0FBD44FEA415F4F3E1E1BDBDD5177E7661C78F3A4F320B PUSH1 0x40 MLOAD PUSH2 0x1548 SWAP1 PUSH2 0x2D44 JUMP JUMPDEST PUSH1 0x40 MLOAD DUP1 SWAP2 SUB SWAP1 LOG1 PUSH2 0x18D4 JUMP JUMPDEST DUP2 PUSH1 0x0 DUP1 JUMPDEST PUSH1 0x6 DUP1 SLOAD SWAP1 POP DUP2 LT ISZERO PUSH2 0x15ED JUMPI DUP3 PUSH1 0x40 MLOAD PUSH1 0x20 ADD PUSH2 0x1578 SWAP2 SWAP1 PUSH2 0x2BE1 JUMP JUMPDEST PUSH1 0x40 MLOAD PUSH1 0x20 DUP2 DUP4 SUB SUB DUP2 MSTORE SWAP1 PUSH1 0x40 MSTORE DUP1 MLOAD SWAP1 PUSH1 0x20 ADD KECCAK256 PUSH1 0x6 DUP3 DUP2 SLOAD DUP2 LT PUSH2 0x15A2 JUMPI PUSH2 0x15A1 PUSH2 0x29F2 JUMP JUMPDEST JUMPDEST SWAP1 PUSH1 0x0 MSTORE PUSH1 0x20 PUSH1 0x0 KECCAK256 ADD PUSH1 0x40 MLOAD PUSH1 0x20 ADD PUSH2 0x15BC SWAP2 SWAP1 PUSH2 0x339D JUMP JUMPDEST PUSH1 0x40 MLOAD PUSH1 0x20 DUP2 DUP4 SUB SUB DUP2 MSTORE SWAP1 PUSH1 0x40 MSTORE DUP1 MLOAD SWAP1 PUSH1 0x20 ADD KECCAK256 SUB PUSH2 0x15E0 JUMPI PUSH1 0x1 SWAP2 POP PUSH2 0x15ED JUMP JUMPDEST DUP1 DUP1 PUSH1 0x1 ADD SWAP2 POP POP PUSH2 0x155A JUMP JUMPDEST POP DUP1 PUSH2 0x162E JUMPI PUSH1 0x40 MLOAD PUSH32 0x8C379A000000000000000000000000000000000000000000000000000000000 DUP2 MSTORE PUSH1 0x4 ADD PUSH2 0x1625 SWAP1 PUSH2 0x3400 JUMP JUMPDEST PUSH1 0x40 MLOAD DUP1 SWAP2 SUB SWAP1 REVERT JUMPDEST PUSH1 0x0 PUSH1 0x14 SWAP1 SLOAD SWAP1 PUSH2 0x100 EXP SWAP1 DIV PUSH1 0xFF AND ISZERO PUSH2 0x167E JUMPI PUSH1 0x40 MLOAD PUSH32 0x8C379A000000000000000000000000000000000000000000000000000000000 DUP2 MSTORE PUSH1 0x4 ADD PUSH2 0x1675 SWAP1 PUSH2 0x3492 JUMP JUMPDEST PUSH1 0x40 MLOAD DUP1 SWAP2 SUB SWAP1 REVERT JUMPDEST PUSH1 0x3 DUP7 PUSH1 0x40 MLOAD PUSH2 0x168E SWAP2 SWAP1 PUSH2 0x2BE1 JUMP JUMPDEST SWAP1 DUP2 MSTORE PUSH1 0x20 ADD PUSH1 0x40 MLOAD DUP1 SWAP2 SUB SWAP1 KECCAK256 PUSH1 0x0 SWAP1 SLOAD SWAP1 PUSH2 0x100 EXP SWAP1 DIV PUSH1 0xFF AND ISZERO PUSH2 0x16EA JUMPI PUSH1 0x40 MLOAD PUSH32 0x8C379A000000000000000000000000000000000000000000000000000000000 DUP2 MSTORE PUSH1 0x4 ADD PUSH2 0x16E1 SWAP1 PUSH2 0x2F66 JUMP JUMPDEST PUSH1 0x40 MLOAD DUP1 SWAP2 SUB SWAP1 REVERT JUMPDEST PUSH1 0x5 PUSH1 0x0 DUP2 SLOAD DUP1 SWAP3 SWAP2 SWAP1 PUSH2 0x16FD SWAP1 PUSH2 0x2C8A JUMP JUMPDEST SWAP2 SWAP1 POP SSTORE POP PUSH1 0x60 PUSH1 0x1 PUSH1 0x40 MLOAD DUP1 PUSH2 0x140 ADD PUSH1 0x40 MSTORE DUP1 PUSH1 0x5 SLOAD DUP2 MSTORE PUSH1 0x20 ADD DUP12 DUP2 MSTORE PUSH1 0x20 ADD DUP11 DUP2 MSTORE PUSH1 0x20 ADD DUP10 DUP2 MSTORE PUSH1 0x20 ADD DUP9 DUP2 MSTORE PUSH1 0x20 ADD DUP8 DUP2 MSTORE PUSH1 0x20 ADD DUP7 DUP2 MSTORE PUSH1 0x20 ADD PUSH1 0x0 DUP2 MSTORE PUSH1 0x20 ADD PUSH1 0x1 ISZERO ISZERO DUP2 MSTORE PUSH1 0x20 ADD DUP4 DUP2 MSTORE POP SWAP1 DUP1 PUSH1 0x1 DUP2 SLOAD ADD DUP1 DUP3 SSTORE DUP1 SWAP2 POP POP PUSH1 0x1 SWAP1 SUB SWAP1 PUSH1 0x0 MSTORE PUSH1 0x20 PUSH1 0x0 KECCAK256 SWAP1 PUSH1 0xA MUL ADD PUSH1 0x0 SWAP1 SWAP2 SWAP1 SWAP2 SWAP1 SWAP2 POP PUSH1 0x0 DUP3 ADD MLOAD DUP2 PUSH1 0x0 ADD SSTORE PUSH1 0x20 DUP3 ADD MLOAD DUP2 PUSH1 0x1 ADD SWAP1 DUP2 PUSH2 0x179A SWAP2 SWAP1 PUSH2 0x31C4 JUMP JUMPDEST POP PUSH1 0x40 DUP3 ADD MLOAD DUP2 PUSH1 0x2 ADD SWAP1 DUP2 PUSH2 0x17B0 SWAP2 SWAP1 PUSH2 0x31C4 JUMP JUMPDEST POP PUSH1 0x60 DUP3 ADD MLOAD DUP2 PUSH1 0x3 ADD SWAP1 DUP2 PUSH2 0x17C6 SWAP2 SWAP1 PUSH2 0x31C4 JUMP JUMPDEST POP PUSH1 0x80 DUP3 ADD MLOAD DUP2 PUSH1 0x4 ADD SWAP1 DUP2 PUSH2 0x17DC SWAP2 SWAP1 PUSH2 0x31C4 JUMP JUMPDEST POP PUSH1 0xA0 DUP3 ADD MLOAD DUP2 PUSH1 0x5 ADD SWAP1 DUP2 PUSH2 0x17F2 SWAP2 SWAP1 PUSH2 0x31C4 JUMP JUMPDEST POP PUSH1 0xC0 DUP3 ADD MLOAD DUP2 PUSH1 0x6 ADD SWAP1 DUP2 PUSH2 0x1808 SWAP2 SWAP1 PUSH2 0x31C4 JUMP JUMPDEST POP PUSH1 0xE0 DUP3 ADD MLOAD DUP2 PUSH1 0x7 ADD SSTORE PUSH2 0x100 DUP3 ADD MLOAD DUP2 PUSH1 0x8 ADD PUSH1 0x0 PUSH2 0x100 EXP DUP2 SLOAD DUP2 PUSH1 0xFF MUL NOT AND SWAP1 DUP4 ISZERO ISZERO MUL OR SWAP1 SSTORE POP PUSH2 0x120 DUP3 ADD MLOAD DUP2 PUSH1 0x9 ADD SWAP1 DUP1 MLOAD SWAP1 PUSH1 0x20 ADD SWAP1 PUSH2 0x1851 SWAP3 SWAP2 SWAP1 PUSH2 0x1D89 JUMP JUMPDEST POP POP POP PUSH1 0x1 PUSH1 0x3 DUP9 PUSH1 0x40 MLOAD PUSH2 0x1866 SWAP2 SWAP1 PUSH2 0x2BE1 JUMP JUMPDEST SWAP1 DUP2 MSTORE PUSH1 0x20 ADD PUSH1 0x40 MLOAD DUP1 SWAP2 SUB SWAP1 KECCAK256 PUSH1 0x0 PUSH2 0x100 EXP DUP2 SLOAD DUP2 PUSH1 0xFF MUL NOT AND SWAP1 DUP4 ISZERO ISZERO MUL OR SWAP1 SSTORE POP PUSH32 0xCDC63BE4A9722EE4B9B2D4E39199D658BD01D6A91201C97399DD7926AD13BD00 PUSH1 0x5 SLOAD DUP11 DUP11 DUP11 DUP11 DUP11 DUP11 PUSH1 0x40 MLOAD PUSH2 0x18C8 SWAP8 SWAP7 SWAP6 SWAP5 SWAP4 SWAP3 SWAP2 SWAP1 PUSH2 0x34B2 JUMP JUMPDEST PUSH1 0x40 MLOAD DUP1 SWAP2 SUB SWAP1 LOG1 POP POP POP JUMPDEST POP POP POP POP POP POP JUMP JUMPDEST PUSH1 0x0 DUP1 SLOAD SWAP1 PUSH2 0x100 EXP SWAP1 DIV PUSH20 0xFFFFFFFFFFFFFFFFFFFFFFFFFFFFFFFFFFFFFFFF AND DUP2 JUMP JUMPDEST PUSH1 0x60 PUSH1 0x1 DUP1 SLOAD DUP1 PUSH1 0x20 MUL PUSH1 0x20 ADD PUSH1 0x40 MLOAD SWAP1 DUP2 ADD PUSH1 0x40 MSTORE DUP1 SWAP3 SWAP2 SWAP1 DUP2 DUP2 MSTORE PUSH1 0x20 ADD PUSH1 0x0 SWAP1 JUMPDEST DUP3 DUP3 LT ISZERO PUSH2 0x1D80 JUMPI DUP4 DUP3 SWAP1 PUSH1 0x0 MSTORE PUSH1 0x20 PUSH1 0x0 KECCAK256 SWAP1 PUSH1 0xA MUL ADD PUSH1 0x40 MLOAD DUP1 PUSH2 0x140 ADD PUSH1 0x40 MSTORE SWAP1 DUP2 PUSH1 0x0 DUP3 ADD SLOAD DUP2 MSTORE PUSH1 0x20 ADD PUSH1 0x1 DUP3 ADD DUP1 SLOAD PUSH2 0x1962 SWAP1 PUSH2 0x2AE2 JUMP JUMPDEST DUP1 PUSH1 0x1F ADD PUSH1 0x20 DUP1 SWAP2 DIV MUL PUSH1 0x20 ADD PUSH1 0x40 MLOAD SWAP1 DUP2 ADD PUSH1 0x40 MSTORE DUP1 SWAP3 SWAP2 SWAP1 DUP2 DUP2 MSTORE PUSH1 0x20 ADD DUP3 DUP1 SLOAD PUSH2 0x198E SWAP1 PUSH2 0x2AE2 JUMP JUMPDEST DUP1 ISZERO PUSH2 0x19DB JUMPI DUP1 PUSH1 0x1F LT PUSH2 0x19B0 JUMPI PUSH2 0x100 DUP1 DUP4 SLOAD DIV MUL DUP4 MSTORE SWAP2 PUSH1 0x20 ADD SWAP2 PUSH2 0x19DB JUMP JUMPDEST DUP3 ADD SWAP2 SWAP1 PUSH1 0x0 MSTORE PUSH1 0x20 PUSH1 0x0 KECCAK256 SWAP1 JUMPDEST DUP2 SLOAD DUP2 MSTORE SWAP1 PUSH1 0x1 ADD SWAP1 PUSH1 0x20 ADD DUP1 DUP4 GT PUSH2 0x19BE JUMPI DUP3 SWAP1 SUB PUSH1 0x1F AND DUP3 ADD SWAP2 JUMPDEST POP POP POP POP POP DUP2 MSTORE PUSH1 0x20 ADD PUSH1 0x2 DUP3 ADD DUP1 SLOAD PUSH2 0x19F4 SWAP1 PUSH2 0x2AE2 JUMP JUMPDEST DUP1 PUSH1 0x1F ADD PUSH1 0x20 DUP1 SWAP2 DIV MUL PUSH1 0x20 ADD PUSH1 0x40 MLOAD SWAP1 DUP2 ADD PUSH1 0x40 MSTORE DUP1 SWAP3 SWAP2 SWAP1 DUP2 DUP2 MSTORE PUSH1 0x20 ADD DUP3 DUP1 SLOAD PUSH2 0x1A20 SWAP1 PUSH2 0x2AE2 JUMP JUMPDEST DUP1 ISZERO PUSH2 0x1A6D JUMPI DUP1 PUSH1 0x1F LT PUSH2 0x1A42 JUMPI PUSH2 0x100 DUP1 DUP4 SLOAD DIV MUL DUP4 MSTORE SWAP2 PUSH1 0x20 ADD SWAP2 PUSH2 0x1A6D JUMP JUMPDEST DUP3 ADD SWAP2 SWAP1 PUSH1 0x0 MSTORE PUSH1 0x20 PUSH1 0x0 KECCAK256 SWAP1 JUMPDEST DUP2 SLOAD DUP2 MSTORE SWAP1 PUSH1 0x1 ADD SWAP1 PUSH1 0x20 ADD DUP1 DUP4 GT PUSH2 0x1A50 JUMPI DUP3 SWAP1 SUB PUSH1 0x1F AND DUP3 ADD SWAP2 JUMPDEST POP POP POP POP POP DUP2 MSTORE PUSH1 0x20 ADD PUSH1 0x3 DUP3 ADD DUP1 SLOAD PUSH2 0x1A86 SWAP1 PUSH2 0x2AE2 JUMP JUMPDEST DUP1 PUSH1 0x1F ADD PUSH1 0x20 DUP1 SWAP2 DIV MUL PUSH1 0x20 ADD PUSH1 0x40 MLOAD SWAP1 DUP2 ADD PUSH1 0x40 MSTORE DUP1 SWAP3 SWAP2 SWAP1 DUP2 DUP2 MSTORE PUSH1 0x20 ADD DUP3 DUP1 SLOAD PUSH2 0x1AB2 SWAP1 PUSH2 0x2AE2 JUMP JUMPDEST DUP1 ISZERO PUSH2 0x1AFF JUMPI DUP1 PUSH1 0x1F LT PUSH2 0x1AD4 JUMPI PUSH2 0x100 DUP1 DUP4 SLOAD DIV MUL DUP4 MSTORE SWAP2 PUSH1 0x20 ADD SWAP2 PUSH2 0x1AFF JUMP JUMPDEST DUP3 ADD SWAP2 SWAP1 PUSH1 0x0 MSTORE PUSH1 0x20 PUSH1 0x0 KECCAK256 SWAP1 JUMPDEST DUP2 SLOAD DUP2 MSTORE SWAP1 PUSH1 0x1 ADD SWAP1 PUSH1 0x20 ADD DUP1 DUP4 GT PUSH2 0x1AE2 JUMPI DUP3 SWAP1 SUB PUSH1 0x1F AND DUP3 ADD SWAP2 JUMPDEST POP POP POP POP POP DUP2 MSTORE PUSH1 0x20 ADD PUSH1 0x4 DUP3 ADD DUP1 SLOAD PUSH2 0x1B18 SWAP1 PUSH2 0x2AE2 JUMP JUMPDEST DUP1 PUSH1 0x1F ADD PUSH1 0x20 DUP1 SWAP2 DIV MUL PUSH1 0x20 ADD PUSH1 0x40 MLOAD SWAP1 DUP2 ADD PUSH1 0x40 MSTORE DUP1 SWAP3 SWAP2 SWAP1 DUP2 DUP2 MSTORE PUSH1 0x20 ADD DUP3 DUP1 SLOAD PUSH2 0x1B44 SWAP1 PUSH2 0x2AE2 JUMP JUMPDEST DUP1 ISZERO PUSH2 0x1B91 JUMPI DUP1 PUSH1 0x1F LT PUSH2 0x1B66 JUMPI PUSH2 0x100 DUP1 DUP4 SLOAD DIV MUL DUP4 MSTORE SWAP2 PUSH1 0x20 ADD SWAP2 PUSH2 0x1B91 JUMP JUMPDEST DUP3 ADD SWAP2 SWAP1 PUSH1 0x0 MSTORE PUSH1 0x20 PUSH1 0x0 KECCAK256 SWAP1 JUMPDEST DUP2 SLOAD DUP2 MSTORE SWAP1 PUSH1 0x1 ADD SWAP1 PUSH1 0x20 ADD DUP1 DUP4 GT PUSH2 0x1B74 JUMPI DUP3 SWAP1 SUB PUSH1 0x1F AND DUP3 ADD SWAP2 JUMPDEST POP POP POP POP POP DUP2 MSTORE PUSH1 0x20 ADD PUSH1 0x5 DUP3 ADD DUP1 SLOAD PUSH2 0x1BAA SWAP1 PUSH2 0x2AE2 JUMP JUMPDEST DUP1 PUSH1 0x1F ADD PUSH1 0x20 DUP1 SWAP2 DIV MUL PUSH1 0x20 ADD PUSH1 0x40 MLOAD SWAP1 DUP2 ADD PUSH1 0x40 MSTORE DUP1 SWAP3 SWAP2 SWAP1 DUP2 DUP2 MSTORE PUSH1 0x20 ADD DUP3 DUP1 SLOAD PUSH2 0x1BD6 SWAP1 PUSH2 0x2AE2 JUMP JUMPDEST DUP1 ISZERO PUSH2 0x1C23 JUMPI DUP1 PUSH1 0x1F LT PUSH2 0x1BF8 JUMPI PUSH2 0x100 DUP1 DUP4 SLOAD DIV MUL DUP4 MSTORE SWAP2 PUSH1 0x20 ADD SWAP2 PUSH2 0x1C23 JUMP JUMPDEST DUP3 ADD SWAP2 SWAP1 PUSH1 0x0 MSTORE PUSH1 0x20 PUSH1 0x0 KECCAK256 SWAP1 JUMPDEST DUP2 SLOAD DUP2 MSTORE SWAP1 PUSH1 0x1 ADD SWAP1 PUSH1 0x20 ADD DUP1 DUP4 GT PUSH2 0x1C06 JUMPI DUP3 SWAP1 SUB PUSH1 0x1F AND DUP3 ADD SWAP2 JUMPDEST POP POP POP POP POP DUP2 MSTORE PUSH1 0x20 ADD PUSH1 0x6 DUP3 ADD DUP1 SLOAD PUSH2 0x1C3C SWAP1 PUSH2 0x2AE2 JUMP JUMPDEST DUP1 PUSH1 0x1F ADD PUSH1 0x20 DUP1 SWAP2 DIV MUL PUSH1 0x20 ADD PUSH1 0x40 MLOAD SWAP1 DUP2 ADD PUSH1 0x40 MSTORE DUP1 SWAP3 SWAP2 SWAP1 DUP2 DUP2 MSTORE PUSH1 0x20 ADD DUP3 DUP1 SLOAD PUSH2 0x1C68 SWAP1 PUSH2 0x2AE2 JUMP JUMPDEST DUP1 ISZERO PUSH2 0x1CB5 JUMPI DUP1 PUSH1 0x1F LT PUSH2 0x1C8A JUMPI PUSH2 0x100 DUP1 DUP4 SLOAD DIV MUL DUP4 MSTORE SWAP2 PUSH1 0x20 ADD SWAP2 PUSH2 0x1CB5 JUMP JUMPDEST DUP3 ADD SWAP2 SWAP1 PUSH1 0x0 MSTORE PUSH1 0x20 PUSH1 0x0 KECCAK256 SWAP1 JUMPDEST DUP2 SLOAD DUP2 MSTORE SWAP1 PUSH1 0x1 ADD SWAP1 PUSH1 0x20 ADD DUP1 DUP4 GT PUSH2 0x1C98 JUMPI DUP3 SWAP1 SUB PUSH1 0x1F AND DUP3 ADD SWAP2 JUMPDEST POP POP POP POP POP DUP2 MSTORE PUSH1 0x20 ADD PUSH1 0x7 DUP3 ADD SLOAD DUP2 MSTORE PUSH1 0x20 ADD PUSH1 0x8 DUP3 ADD PUSH1 0x0 SWAP1 SLOAD SWAP1 PUSH2 0x100 EXP SWAP1 DIV PUSH1 0xFF AND ISZERO ISZERO ISZERO ISZERO DUP2 MSTORE PUSH1 0x20 ADD PUSH1 0x9 DUP3 ADD DUP1 SLOAD DUP1 PUSH1 0x20 MUL PUSH1 0x20 ADD PUSH1 0x40 MLOAD SWAP1 DUP2 ADD PUSH1 0x40 MSTORE DUP1 SWAP3 SWAP2 SWAP1 DUP2 DUP2 MSTORE PUSH1 0x20 ADD DUP3 DUP1 SLOAD DUP1 ISZERO PUSH2 0x1D68 JUMPI PUSH1 0x20 MUL DUP3 ADD SWAP2 SWAP1 PUSH1 0x0 MSTORE PUSH1 0x20 PUSH1 0x0 KECCAK256 SWAP1 JUMPDEST DUP2 PUSH1 0x0 SWAP1 SLOAD SWAP1 PUSH2 0x100 EXP SWAP1 DIV PUSH20 0xFFFFFFFFFFFFFFFFFFFFFFFFFFFFFFFFFFFFFFFF AND PUSH20 0xFFFFFFFFFFFFFFFFFFFFFFFFFFFFFFFFFFFFFFFF AND DUP2 MSTORE PUSH1 0x20 ADD SWAP1 PUSH1 0x1 ADD SWAP1 DUP1 DUP4 GT PUSH2 0x1D1E JUMPI JUMPDEST POP POP POP POP POP DUP2 MSTORE POP POP DUP2 MSTORE PUSH1 0x20 ADD SWAP1 PUSH1 0x1 ADD SWAP1 PUSH2 0x1924 JUMP JUMPDEST POP POP POP POP SWAP1 POP SWAP1 JUMP JUMPDEST DUP3 DUP1 SLOAD DUP3 DUP3 SSTORE SWAP1 PUSH1 0x0 MSTORE PUSH1 0x20 PUSH1 0x0 KECCAK256 SWAP1 DUP2 ADD SWAP3 DUP3 ISZERO PUSH2 0x1E02 JUMPI SWAP2 PUSH1 0x20 MUL DUP3 ADD JUMPDEST DUP3 DUP2 GT ISZERO PUSH2 0x1E01 JUMPI DUP3 MLOAD DUP3 PUSH1 0x0 PUSH2 0x100 EXP DUP2 SLOAD DUP2 PUSH20 0xFFFFFFFFFFFFFFFFFFFFFFFFFFFFFFFFFFFFFFFF MUL NOT AND SWAP1 DUP4 PUSH20 0xFFFFFFFFFFFFFFFFFFFFFFFFFFFFFFFFFFFFFFFF AND MUL OR SWAP1 SSTORE POP SWAP2 PUSH1 0x20 ADD SWAP2 SWAP1 PUSH1 0x1 ADD SWAP1 PUSH2 0x1DA9 JUMP JUMPDEST JUMPDEST POP SWAP1 POP PUSH2 0x1E0F SWAP2 SWAP1 PUSH2 0x1E13 JUMP JUMPDEST POP SWAP1 JUMP JUMPDEST JUMPDEST DUP1 DUP3 GT ISZERO PUSH2 0x1E2C JUMPI PUSH1 0x0 DUP2 PUSH1 0x0 SWAP1 SSTORE POP PUSH1 0x1 ADD PUSH2 0x1E14 JUMP JUMPDEST POP SWAP1 JUMP JUMPDEST PUSH1 0x0 PUSH1 0x40 MLOAD SWAP1 POP SWAP1 JUMP JUMPDEST PUSH1 0x0 DUP1 REVERT JUMPDEST PUSH1 0x0 DUP1 REVERT JUMPDEST PUSH1 0x0 DUP2 SWAP1 POP SWAP2 SWAP1 POP JUMP JUMPDEST PUSH2 0x1E57 DUP2 PUSH2 0x1E44 JUMP JUMPDEST DUP2 EQ PUSH2 0x1E62 JUMPI PUSH1 0x0 DUP1 REVERT JUMPDEST POP JUMP JUMPDEST PUSH1 0x0 DUP2 CALLDATALOAD SWAP1 POP PUSH2 0x1E74 DUP2 PUSH2 0x1E4E JUMP JUMPDEST SWAP3 SWAP2 POP POP JUMP JUMPDEST PUSH1 0x0 PUSH1 0x20 DUP3 DUP5 SUB SLT ISZERO PUSH2 0x1E90 JUMPI PUSH2 0x1E8F PUSH2 0x1E3A JUMP JUMPDEST JUMPDEST PUSH1 0x0 PUSH2 0x1E9E DUP5 DUP3 DUP6 ADD PUSH2 0x1E65 JUMP JUMPDEST SWAP2 POP POP SWAP3 SWAP2 POP POP JUMP JUMPDEST PUSH2 0x1EB0 DUP2 PUSH2 0x1E44 JUMP JUMPDEST DUP3 MSTORE POP POP JUMP JUMPDEST PUSH1 0x0 DUP2 MLOAD SWAP1 POP SWAP2 SWAP1 POP JUMP JUMPDEST PUSH1 0x0 DUP3 DUP3 MSTORE PUSH1 0x20 DUP3 ADD SWAP1 POP SWAP3 SWAP2 POP POP JUMP JUMPDEST PUSH1 0x0 JUMPDEST DUP4 DUP2 LT ISZERO PUSH2 0x1EF0 JUMPI DUP1 DUP3 ADD MLOAD DUP2 DUP5 ADD MSTORE PUSH1 0x20 DUP2 ADD SWAP1 POP PUSH2 0x1ED5 JUMP JUMPDEST PUSH1 0x0 DUP5 DUP5 ADD MSTORE POP POP POP POP JUMP JUMPDEST PUSH1 0x0 PUSH1 0x1F NOT PUSH1 0x1F DUP4 ADD AND SWAP1 POP SWAP2 SWAP1 POP JUMP JUMPDEST PUSH1 0x0 PUSH2 0x1F18 DUP3 PUSH2 0x1EB6 JUMP JUMPDEST PUSH2 0x1F22 DUP2 DUP6 PUSH2 0x1EC1 JUMP JUMPDEST SWAP4 POP PUSH2 0x1F32 DUP2 DUP6 PUSH1 0x20 DUP7 ADD PUSH2 0x1ED2 JUMP JUMPDEST PUSH2 0x1F3B DUP2 PUSH2 0x1EFC JUMP JUMPDEST DUP5 ADD SWAP2 POP POP SWAP3 SWAP2 POP POP JUMP JUMPDEST PUSH1 0x0 DUP2 ISZERO ISZERO SWAP1 POP SWAP2 SWAP1 POP JUMP JUMPDEST PUSH2 0x1F5B DUP2 PUSH2 0x1F46 JUMP JUMPDEST DUP3 MSTORE POP POP JUMP JUMPDEST PUSH1 0x0 PUSH2 0x120 DUP3 ADD SWAP1 POP PUSH2 0x1F77 PUSH1 0x0 DUP4 ADD DUP13 PUSH2 0x1EA7 JUMP JUMPDEST DUP2 DUP2 SUB PUSH1 0x20 DUP4 ADD MSTORE PUSH2 0x1F89 DUP2 DUP12 PUSH2 0x1F0D JUMP JUMPDEST SWAP1 POP DUP2 DUP2 SUB PUSH1 0x40 DUP4 ADD MSTORE PUSH2 0x1F9D DUP2 DUP11 PUSH2 0x1F0D JUMP JUMPDEST SWAP1 POP DUP2 DUP2 SUB PUSH1 0x60 DUP4 ADD MSTORE PUSH2 0x1FB1 DUP2 DUP10 PUSH2 0x1F0D JUMP JUMPDEST SWAP1 POP DUP2 DUP2 SUB PUSH1 0x80 DUP4 ADD MSTORE PUSH2 0x1FC5 DUP2 DUP9 PUSH2 0x1F0D JUMP JUMPDEST SWAP1 POP DUP2 DUP2 SUB PUSH1 0xA0 DUP4 ADD MSTORE PUSH2 0x1FD9 DUP2 DUP8 PUSH2 0x1F0D JUMP JUMPDEST SWAP1 POP DUP2 DUP2 SUB PUSH1 0xC0 DUP4 ADD MSTORE PUSH2 0x1FED DUP2 DUP7 PUSH2 0x1F0D JUMP JUMPDEST SWAP1 POP PUSH2 0x1FFC PUSH1 0xE0 DUP4 ADD DUP6 PUSH2 0x1EA7 JUMP JUMPDEST PUSH2 0x200A PUSH2 0x100 DUP4 ADD DUP5 PUSH2 0x1F52 JUMP JUMPDEST SWAP11 SWAP10 POP POP POP POP POP POP POP POP POP POP JUMP JUMPDEST PUSH1 0x0 PUSH1 0x20 DUP3 ADD SWAP1 POP DUP2 DUP2 SUB PUSH1 0x0 DUP4 ADD MSTORE PUSH2 0x2032 DUP2 DUP5 PUSH2 0x1F0D JUMP JUMPDEST SWAP1 POP SWAP3 SWAP2 POP POP JUMP JUMPDEST PUSH1 0x0 PUSH20 0xFFFFFFFFFFFFFFFFFFFFFFFFFFFFFFFFFFFFFFFF DUP3 AND SWAP1 POP SWAP2 SWAP1 POP JUMP JUMPDEST PUSH1 0x0 PUSH2 0x2065 DUP3 PUSH2 0x203A JUMP JUMPDEST SWAP1 POP SWAP2 SWAP1 POP JUMP JUMPDEST PUSH2 0x2075 DUP2 PUSH2 0x205A JUMP JUMPDEST DUP2 EQ PUSH2 0x2080 JUMPI PUSH1 0x0 DUP1 REVERT JUMPDEST POP JUMP JUMPDEST PUSH1 0x0 DUP2 CALLDATALOAD SWAP1 POP PUSH2 0x2092 DUP2 PUSH2 0x206C JUMP JUMPDEST SWAP3 SWAP2 POP POP JUMP JUMPDEST PUSH1 0x0 PUSH1 0x20 DUP3 DUP5 SUB SLT ISZERO PUSH2 0x20AE JUMPI PUSH2 0x20AD PUSH2 0x1E3A JUMP JUMPDEST JUMPDEST PUSH1 0x0 PUSH2 0x20BC DUP5 DUP3 DUP6 ADD PUSH2 0x2083 JUMP JUMPDEST SWAP2 POP POP SWAP3 SWAP2 POP POP JUMP JUMPDEST PUSH1 0x0 PUSH1 0xE0 DUP3 ADD SWAP1 POP DUP2 DUP2 SUB PUSH1 0x0 DUP4 ADD MSTORE PUSH2 0x20DF DUP2 DUP11 PUSH2 0x1F0D JUMP JUMPDEST SWAP1 POP DUP2 DUP2 SUB PUSH1 0x20 DUP4 ADD MSTORE PUSH2 0x20F3 DUP2 DUP10 PUSH2 0x1F0D JUMP JUMPDEST SWAP1 POP DUP2 DUP2 SUB PUSH1 0x40 DUP4 ADD MSTORE PUSH2 0x2107 DUP2 DUP9 PUSH2 0x1F0D JUMP JUMPDEST SWAP1 POP PUSH2 0x2116 PUSH1 0x60 DUP4 ADD DUP8 PUSH2 0x1EA7 JUMP JUMPDEST DUP2 DUP2 SUB PUSH1 0x80 DUP4 ADD MSTORE PUSH2 0x2128 DUP2 DUP7 PUSH2 0x1F0D JUMP JUMPDEST SWAP1 POP DUP2 DUP2 SUB PUSH1 0xA0 DUP4 ADD MSTORE PUSH2 0x213C DUP2 DUP6 PUSH2 0x1F0D JUMP JUMPDEST SWAP1 POP PUSH2 0x214B PUSH1 0xC0 DUP4 ADD DUP5 PUSH2 0x1F52 JUMP JUMPDEST SWAP9 SWAP8 POP POP POP POP POP POP POP POP JUMP JUMPDEST PUSH1 0x0 DUP1 REVERT JUMPDEST PUSH1 0x0 DUP1 REVERT JUMPDEST PUSH32 0x4E487B7100000000000000000000000000000000000000000000000000000000 PUSH1 0x0 MSTORE PUSH1 0x41 PUSH1 0x4 MSTORE PUSH1 0x24 PUSH1 0x0 REVERT JUMPDEST PUSH2 0x2199 DUP3 PUSH2 0x1EFC JUMP JUMPDEST DUP2 ADD DUP2 DUP2 LT PUSH8 0xFFFFFFFFFFFFFFFF DUP3 GT OR ISZERO PUSH2 0x21B8 JUMPI PUSH2 0x21B7 PUSH2 0x2161 JUMP JUMPDEST JUMPDEST DUP1 PUSH1 0x40 MSTORE POP POP POP JUMP JUMPDEST PUSH1 0x0 PUSH2 0x21CB PUSH2 0x1E30 JUMP JUMPDEST SWAP1 POP PUSH2 0x21D7 DUP3 DUP3 PUSH2 0x2190 JUMP JUMPDEST SWAP2 SWAP1 POP JUMP JUMPDEST PUSH1 0x0 PUSH8 0xFFFFFFFFFFFFFFFF DUP3 GT ISZERO PUSH2 0x21F7 JUMPI PUSH2 0x21F6 PUSH2 0x2161 JUMP JUMPDEST JUMPDEST PUSH2 0x2200 DUP3 PUSH2 0x1EFC JUMP JUMPDEST SWAP1 POP PUSH1 0x20 DUP2 ADD SWAP1 POP SWAP2 SWAP1 POP JUMP JUMPDEST DUP3 DUP2 DUP4 CALLDATACOPY PUSH1 0x0 DUP4 DUP4 ADD MSTORE POP POP POP JUMP JUMPDEST PUSH1 0x0 PUSH2 0x222F PUSH2 0x222A DUP5 PUSH2 0x21DC JUMP JUMPDEST PUSH2 0x21C1 JUMP JUMPDEST SWAP1 POP DUP3 DUP2 MSTORE PUSH1 0x20 DUP2 ADD DUP5 DUP5 DUP5 ADD GT ISZERO PUSH2 0x224B JUMPI PUSH2 0x224A PUSH2 0x215C JUMP JUMPDEST JUMPDEST PUSH2 0x2256 DUP5 DUP3 DUP6 PUSH2 0x220D JUMP JUMPDEST POP SWAP4 SWAP3 POP POP POP JUMP JUMPDEST PUSH1 0x0 DUP3 PUSH1 0x1F DUP4 ADD SLT PUSH2 0x2273 JUMPI PUSH2 0x2272 PUSH2 0x2157 JUMP JUMPDEST JUMPDEST DUP2 CALLDATALOAD PUSH2 0x2283 DUP5 DUP3 PUSH1 0x20 DUP7 ADD PUSH2 0x221C JUMP JUMPDEST SWAP2 POP POP SWAP3 SWAP2 POP POP JUMP JUMPDEST PUSH1 0x0 PUSH1 0x20 DUP3 DUP5 SUB SLT ISZERO PUSH2 0x22A2 JUMPI PUSH2 0x22A1 PUSH2 0x1E3A JUMP JUMPDEST JUMPDEST PUSH1 0x0 DUP3 ADD CALLDATALOAD PUSH8 0xFFFFFFFFFFFFFFFF DUP2 GT ISZERO PUSH2 0x22C0 JUMPI PUSH2 0x22BF PUSH2 0x1E3F JUMP JUMPDEST JUMPDEST PUSH2 0x22CC DUP5 DUP3 DUP6 ADD PUSH2 0x225E JUMP JUMPDEST SWAP2 POP POP SWAP3 SWAP2 POP POP JUMP JUMPDEST PUSH1 0x0 PUSH1 0x20 DUP3 ADD SWAP1 POP PUSH2 0x22EA PUSH1 0x0 DUP4 ADD DUP5 PUSH2 0x1F52 JUMP JUMPDEST SWAP3 SWAP2 POP POP JUMP JUMPDEST PUSH1 0x0 PUSH1 0x20 DUP3 ADD SWAP1 POP PUSH2 0x2305 PUSH1 0x0 DUP4 ADD DUP5 PUSH2 0x1EA7 JUMP JUMPDEST SWAP3 SWAP2 POP POP JUMP JUMPDEST PUSH1 0x0 DUP1 PUSH1 0x0 DUP1 PUSH1 0x0 DUP1 PUSH1 0xC0 DUP8 DUP10 SUB SLT ISZERO PUSH2 0x2328 JUMPI PUSH2 0x2327 PUSH2 0x1E3A JUMP JUMPDEST JUMPDEST PUSH1 0x0 DUP8 ADD CALLDATALOAD PUSH8 0xFFFFFFFFFFFFFFFF DUP2 GT ISZERO PUSH2 0x2346 JUMPI PUSH2 0x2345 PUSH2 0x1E3F JUMP JUMPDEST JUMPDEST PUSH2 0x2352 DUP10 DUP3 DUP11 ADD PUSH2 0x225E JUMP JUMPDEST SWAP7 POP POP PUSH1 0x20 DUP8 ADD CALLDATALOAD PUSH8 0xFFFFFFFFFFFFFFFF DUP2 GT ISZERO PUSH2 0x2373 JUMPI PUSH2 0x2372 PUSH2 0x1E3F JUMP JUMPDEST JUMPDEST PUSH2 0x237F DUP10 DUP3 DUP11 ADD PUSH2 0x225E JUMP JUMPDEST SWAP6 POP POP PUSH1 0x40 DUP8 ADD CALLDATALOAD PUSH8 0xFFFFFFFFFFFFFFFF DUP2 GT ISZERO PUSH2 0x23A0 JUMPI PUSH2 0x239F PUSH2 0x1E3F JUMP JUMPDEST JUMPDEST PUSH2 0x23AC DUP10 DUP3 DUP11 ADD PUSH2 0x225E JUMP JUMPDEST SWAP5 POP POP PUSH1 0x60 PUSH2 0x23BD DUP10 DUP3 DUP11 ADD PUSH2 0x1E65 JUMP JUMPDEST SWAP4 POP POP PUSH1 0x80 DUP8 ADD CALLDATALOAD PUSH8 0xFFFFFFFFFFFFFFFF DUP2 GT ISZERO PUSH2 0x23DE JUMPI PUSH2 0x23DD PUSH2 0x1E3F JUMP JUMPDEST JUMPDEST PUSH2 0x23EA DUP10 DUP3 DUP11 ADD PUSH2 0x225E JUMP JUMPDEST SWAP3 POP POP PUSH1 0xA0 DUP8 ADD CALLDATALOAD PUSH8 0xFFFFFFFFFFFFFFFF DUP2 GT ISZERO PUSH2 0x240B JUMPI PUSH2 0x240A PUSH2 0x1E3F JUMP JUMPDEST JUMPDEST PUSH2 0x2417 DUP10 DUP3 DUP11 ADD PUSH2 0x225E JUMP JUMPDEST SWAP2 POP POP SWAP3 SWAP6 POP SWAP3 SWAP6 POP SWAP3 SWAP6 JUMP JUMPDEST PUSH1 0x0 DUP1 PUSH1 0x0 DUP1 PUSH1 0x0 DUP1 PUSH1 0xC0 DUP8 DUP10 SUB SLT ISZERO PUSH2 0x2441 JUMPI PUSH2 0x2440 PUSH2 0x1E3A JUMP JUMPDEST JUMPDEST PUSH1 0x0 DUP8 ADD CALLDATALOAD PUSH8 0xFFFFFFFFFFFFFFFF DUP2 GT ISZERO PUSH2 0x245F JUMPI PUSH2 0x245E PUSH2 0x1E3F JUMP JUMPDEST JUMPDEST PUSH2 0x246B DUP10 DUP3 DUP11 ADD PUSH2 0x225E JUMP JUMPDEST SWAP7 POP POP PUSH1 0x20 DUP8 ADD CALLDATALOAD PUSH8 0xFFFFFFFFFFFFFFFF DUP2 GT ISZERO PUSH2 0x248C JUMPI PUSH2 0x248B PUSH2 0x1E3F JUMP JUMPDEST JUMPDEST PUSH2 0x2498 DUP10 DUP3 DUP11 ADD PUSH2 0x225E JUMP JUMPDEST SWAP6 POP POP PUSH1 0x40 DUP8 ADD CALLDATALOAD PUSH8 0xFFFFFFFFFFFFFFFF DUP2 GT ISZERO PUSH2 0x24B9 JUMPI PUSH2 0x24B8 PUSH2 0x1E3F JUMP JUMPDEST JUMPDEST PUSH2 0x24C5 DUP10 DUP3 DUP11 ADD PUSH2 0x225E JUMP JUMPDEST SWAP5 POP POP PUSH1 0x60 DUP8 ADD CALLDATALOAD PUSH8 0xFFFFFFFFFFFFFFFF DUP2 GT ISZERO PUSH2 0x24E6 JUMPI PUSH2 0x24E5 PUSH2 0x1E3F JUMP JUMPDEST JUMPDEST PUSH2 0x24F2 DUP10 DUP3 DUP11 ADD PUSH2 0x225E JUMP JUMPDEST SWAP4 POP POP PUSH1 0x80 DUP8 ADD CALLDATALOAD PUSH8 0xFFFFFFFFFFFFFFFF DUP2 GT ISZERO PUSH2 0x2513 JUMPI PUSH2 0x2512 PUSH2 0x1E3F JUMP JUMPDEST JUMPDEST PUSH2 0x251F DUP10 DUP3 DUP11 ADD PUSH2 0x225E JUMP JUMPDEST SWAP3 POP POP PUSH1 0xA0 DUP8 ADD CALLDATALOAD PUSH8 0xFFFFFFFFFFFFFFFF DUP2 GT ISZERO PUSH2 0x2540 JUMPI PUSH2 0x253F PUSH2 0x1E3F JUMP JUMPDEST JUMPDEST PUSH2 0x254C DUP10 DUP3 DUP11 ADD PUSH2 0x225E JUMP JUMPDEST SWAP2 POP POP SWAP3 SWAP6 POP SWAP3 SWAP6 POP SWAP3 SWAP6 JUMP JUMPDEST PUSH2 0x2562 DUP2 PUSH2 0x205A JUMP JUMPDEST DUP3 MSTORE POP POP JUMP JUMPDEST PUSH1 0x0 PUSH1 0x20 DUP3 ADD SWAP1 POP PUSH2 0x257D PUSH1 0x0 DUP4 ADD DUP5 PUSH2 0x2559 JUMP JUMPDEST SWAP3 SWAP2 POP POP JUMP JUMPDEST PUSH1 0x0 DUP2 MLOAD SWAP1 POP SWAP2 SWAP1 POP JUMP JUMPDEST PUSH1 0x0 DUP3 DUP3 MSTORE PUSH1 0x20 DUP3 ADD SWAP1 POP SWAP3 SWAP2 POP POP JUMP JUMPDEST PUSH1 0x0 DUP2 SWAP1 POP PUSH1 0x20 DUP3 ADD SWAP1 POP SWAP2 SWAP1 POP JUMP JUMPDEST PUSH2 0x25B8 DUP2 PUSH2 0x1E44 JUMP JUMPDEST DUP3 MSTORE POP POP JUMP JUMPDEST PUSH1 0x0 DUP3 DUP3 MSTORE PUSH1 0x20 DUP3 ADD SWAP1 POP SWAP3 SWAP2 POP POP JUMP JUMPDEST PUSH1 0x0 PUSH2 0x25DA DUP3 PUSH2 0x1EB6 JUMP JUMPDEST PUSH2 0x25E4 DUP2 DUP6 PUSH2 0x25BE JUMP JUMPDEST SWAP4 POP PUSH2 0x25F4 DUP2 DUP6 PUSH1 0x20 DUP7 ADD PUSH2 0x1ED2 JUMP JUMPDEST PUSH2 0x25FD DUP2 PUSH2 0x1EFC JUMP JUMPDEST DUP5 ADD SWAP2 POP POP SWAP3 SWAP2 POP POP JUMP JUMPDEST PUSH2 0x2611 DUP2 PUSH2 0x1F46 JUMP JUMPDEST DUP3 MSTORE POP POP JUMP JUMPDEST PUSH1 0x0 DUP2 MLOAD SWAP1 POP SWAP2 SWAP1 POP JUMP JUMPDEST PUSH1 0x0 DUP3 DUP3 MSTORE PUSH1 0x20 DUP3 ADD SWAP1 POP SWAP3 SWAP2 POP POP JUMP JUMPDEST PUSH1 0x0 DUP2 SWAP1 POP PUSH1 0x20 DUP3 ADD SWAP1 POP SWAP2 SWAP1 POP JUMP JUMPDEST PUSH2 0x264C DUP2 PUSH2 0x205A JUMP JUMPDEST DUP3 MSTORE POP POP JUMP JUMPDEST PUSH1 0x0 PUSH2 0x265E DUP4 DUP4 PUSH2 0x2643 JUMP JUMPDEST PUSH1 0x20 DUP4 ADD SWAP1 POP SWAP3 SWAP2 POP POP JUMP JUMPDEST PUSH1 0x0 PUSH1 0x20 DUP3 ADD SWAP1 POP SWAP2 SWAP1 POP JUMP JUMPDEST PUSH1 0x0 PUSH2 0x2682 DUP3 PUSH2 0x2617 JUMP JUMPDEST PUSH2 0x268C DUP2 DUP6 PUSH2 0x2622 JUMP JUMPDEST SWAP4 POP PUSH2 0x2697 DUP4 PUSH2 0x2633 JUMP JUMPDEST DUP1 PUSH1 0x0 JUMPDEST DUP4 DUP2 LT ISZERO PUSH2 0x26C8 JUMPI DUP2 MLOAD PUSH2 0x26AF DUP9 DUP3 PUSH2 0x2652 JUMP JUMPDEST SWAP8 POP PUSH2 0x26BA DUP4 PUSH2 0x266A JUMP JUMPDEST SWAP3 POP POP PUSH1 0x1 DUP2 ADD SWAP1 POP PUSH2 0x269B JUMP JUMPDEST POP DUP6 SWAP4 POP POP POP POP SWAP3 SWAP2 POP POP JUMP JUMPDEST PUSH1 0x0 PUSH2 0x140 DUP4 ADD PUSH1 0x0 DUP4 ADD MLOAD PUSH2 0x26EE PUSH1 0x0 DUP7 ADD DUP3 PUSH2 0x25AF JUMP JUMPDEST POP PUSH1 0x20 DUP4 ADD MLOAD DUP5 DUP3 SUB PUSH1 0x20 DUP7 ADD MSTORE PUSH2 0x2706 DUP3 DUP3 PUSH2 0x25CF JUMP JUMPDEST SWAP2 POP POP PUSH1 0x40 DUP4 ADD MLOAD DUP5 DUP3 SUB PUSH1 0x40 DUP7 ADD MSTORE PUSH2 0x2720 DUP3 DUP3 PUSH2 0x25CF JUMP JUMPDEST SWAP2 POP POP PUSH1 0x60 DUP4 ADD MLOAD DUP5 DUP3 SUB PUSH1 0x60 DUP7 ADD MSTORE PUSH2 0x273A DUP3 DUP3 PUSH2 0x25CF JUMP JUMPDEST SWAP2 POP POP PUSH1 0x80 DUP4 ADD MLOAD DUP5 DUP3 SUB PUSH1 0x80 DUP7 ADD MSTORE PUSH2 0x2754 DUP3 DUP3 PUSH2 0x25CF JUMP JUMPDEST SWAP2 POP POP PUSH1 0xA0 DUP4 ADD MLOAD DUP5 DUP3 SUB PUSH1 0xA0 DUP7 ADD MSTORE PUSH2 0x276E DUP3 DUP3 PUSH2 0x25CF JUMP JUMPDEST SWAP2 POP POP PUSH1 0xC0 DUP4 ADD MLOAD DUP5 DUP3 SUB PUSH1 0xC0 DUP7 ADD MSTORE PUSH2 0x2788 DUP3 DUP3 PUSH2 0x25CF JUMP JUMPDEST SWAP2 POP POP PUSH1 0xE0 DUP4 ADD MLOAD PUSH2 0x279D PUSH1 0xE0 DUP7 ADD DUP3 PUSH2 0x25AF JUMP JUMPDEST POP PUSH2 0x100 DUP4 ADD MLOAD PUSH2 0x27B2 PUSH2 0x100 DUP7 ADD DUP3 PUSH2 0x2608 JUMP JUMPDEST POP PUSH2 0x120 DUP4 ADD MLOAD DUP5 DUP3 SUB PUSH2 0x120 DUP7 ADD MSTORE PUSH2 0x27CC DUP3 DUP3 PUSH2 0x2677 JUMP JUMPDEST SWAP2 POP POP DUP1 SWAP2 POP POP SWAP3 SWAP2 POP POP JUMP JUMPDEST PUSH1 0x0 PUSH2 0x27E5 DUP4 DUP4 PUSH2 0x26D5 JUMP JUMPDEST SWAP1 POP SWAP3 SWAP2 POP POP JUMP JUMPDEST PUSH1 0x0 PUSH1 0x20 DUP3 ADD SWAP1 POP SWAP2 SWAP1 POP JUMP JUMPDEST PUSH1 0x0 PUSH2 0x2805 DUP3 PUSH2 0x2583 JUMP JUMPDEST PUSH2 0x280F DUP2 DUP6 PUSH2 0x258E JUMP JUMPDEST SWAP4 POP DUP4 PUSH1 0x20 DUP3 MUL DUP6 ADD PUSH2 0x2821 DUP6 PUSH2 0x259F JUMP JUMPDEST DUP1 PUSH1 0x0 JUMPDEST DUP6 DUP2 LT ISZERO PUSH2 0x285D JUMPI DUP5 DUP5 SUB DUP10 MSTORE DUP2 MLOAD PUSH2 0x283E DUP6 DUP3 PUSH2 0x27D9 JUMP JUMPDEST SWAP5 POP PUSH2 0x2849 DUP4 PUSH2 0x27ED JUMP JUMPDEST SWAP3 POP PUSH1 0x20 DUP11 ADD SWAP10 POP POP PUSH1 0x1 DUP2 ADD SWAP1 POP PUSH2 0x2825 JUMP JUMPDEST POP DUP3 SWAP8 POP DUP8 SWAP6 POP POP POP POP POP POP SWAP3 SWAP2 POP POP JUMP JUMPDEST PUSH1 0x0 PUSH1 0x20 DUP3 ADD SWAP1 POP DUP2 DUP2 SUB PUSH1 0x0 DUP4 ADD MSTORE PUSH2 0x2889 DUP2 DUP5 PUSH2 0x27FA JUMP JUMPDEST SWAP1 POP SWAP3 SWAP2 POP POP JUMP JUMPDEST PUSH32 0x5F5F5F456C656374696F6E20686173206E6F742073746172746564207965745F PUSH1 0x0 DUP3 ADD MSTORE PUSH32 0x5F5F000000000000000000000000000000000000000000000000000000000000 PUSH1 0x20 DUP3 ADD MSTORE POP JUMP JUMPDEST PUSH1 0x0 PUSH2 0x28ED PUSH1 0x22 DUP4 PUSH2 0x1EC1 JUMP JUMPDEST SWAP2 POP PUSH2 0x28F8 DUP3 PUSH2 0x2891 JUMP JUMPDEST PUSH1 0x40 DUP3 ADD SWAP1 POP SWAP2 SWAP1 POP JUMP JUMPDEST PUSH1 0x0 PUSH1 0x20 DUP3 ADD SWAP1 POP DUP2 DUP2 SUB PUSH1 0x0 DUP4 ADD MSTORE PUSH2 0x291C DUP2 PUSH2 0x28E0 JUMP JUMPDEST SWAP1 POP SWAP2 SWAP1 POP JUMP JUMPDEST PUSH32 0x5F5F5F496E76616C69642063616E6469646174652049445F5F5F000000000000 PUSH1 0x0 DUP3 ADD MSTORE POP JUMP JUMPDEST PUSH1 0x0 PUSH2 0x2959 PUSH1 0x1A DUP4 PUSH2 0x1EC1 JUMP JUMPDEST SWAP2 POP PUSH2 0x2964 DUP3 PUSH2 0x2923 JUMP JUMPDEST PUSH1 0x20 DUP3 ADD SWAP1 POP SWAP2 SWAP1 POP JUMP JUMPDEST PUSH1 0x0 PUSH1 0x20 DUP3 ADD SWAP1 POP DUP2 DUP2 SUB PUSH1 0x0 DUP4 ADD MSTORE PUSH2 0x2988 DUP2 PUSH2 0x294C JUMP JUMPDEST SWAP1 POP SWAP2 SWAP1 POP JUMP JUMPDEST PUSH32 0x4E487B7100000000000000000000000000000000000000000000000000000000 PUSH1 0x0 MSTORE PUSH1 0x11 PUSH1 0x4 MSTORE PUSH1 0x24 PUSH1 0x0 REVERT JUMPDEST PUSH1 0x0 PUSH2 0x29C9 DUP3 PUSH2 0x1E44 JUMP JUMPDEST SWAP2 POP PUSH2 0x29D4 DUP4 PUSH2 0x1E44 JUMP JUMPDEST SWAP3 POP DUP3 DUP3 SUB SWAP1 POP DUP2 DUP2 GT ISZERO PUSH2 0x29EC JUMPI PUSH2 0x29EB PUSH2 0x298F JUMP JUMPDEST JUMPDEST SWAP3 SWAP2 POP POP JUMP JUMPDEST PUSH32 0x4E487B7100000000000000000000000000000000000000000000000000000000 PUSH1 0x0 MSTORE PUSH1 0x32 PUSH1 0x4 MSTORE PUSH1 0x24 PUSH1 0x0 REVERT JUMPDEST PUSH32 0x5F5F5F43616E646964617465206E6F7420666F756E64206F72206E6F74207265 PUSH1 0x0 DUP3 ADD MSTORE PUSH32 0x67697374657265645F5F5F000000000000000000000000000000000000000000 PUSH1 0x20 DUP3 ADD MSTORE POP JUMP JUMPDEST PUSH1 0x0 PUSH2 0x2A7D PUSH1 0x2B DUP4 PUSH2 0x1EC1 JUMP JUMPDEST SWAP2 POP PUSH2 0x2A88 DUP3 PUSH2 0x2A21 JUMP JUMPDEST PUSH1 0x40 DUP3 ADD SWAP1 POP SWAP2 SWAP1 POP JUMP JUMPDEST PUSH1 0x0 PUSH1 0x20 DUP3 ADD SWAP1 POP DUP2 DUP2 SUB PUSH1 0x0 DUP4 ADD MSTORE PUSH2 0x2AAC DUP2 PUSH2 0x2A70 JUMP JUMPDEST SWAP1 POP SWAP2 SWAP1 POP JUMP JUMPDEST PUSH32 0x4E487B7100000000000000000000000000000000000000000000000000000000 PUSH1 0x0 MSTORE PUSH1 0x22 PUSH1 0x4 MSTORE PUSH1 0x24 PUSH1 0x0 REVERT JUMPDEST PUSH1 0x0 PUSH1 0x2 DUP3 DIV SWAP1 POP PUSH1 0x1 DUP3 AND DUP1 PUSH2 0x2AFA JUMPI PUSH1 0x7F DUP3 AND SWAP2 POP JUMPDEST PUSH1 0x20 DUP3 LT DUP2 SUB PUSH2 0x2B0D JUMPI PUSH2 0x2B0C PUSH2 0x2AB3 JUMP JUMPDEST JUMPDEST POP SWAP2 SWAP1 POP JUMP JUMPDEST PUSH32 0x5F5F5F596F7520617265206E6F742061207265676973746572656420766F7465 PUSH1 0x0 DUP3 ADD MSTORE PUSH32 0x725F5F5F00000000000000000000000000000000000000000000000000000000 PUSH1 0x20 DUP3 ADD MSTORE POP JUMP JUMPDEST PUSH1 0x0 PUSH2 0x2B6F PUSH1 0x24 DUP4 PUSH2 0x1EC1 JUMP JUMPDEST SWAP2 POP PUSH2 0x2B7A DUP3 PUSH2 0x2B13 JUMP JUMPDEST PUSH1 0x40 DUP3 ADD SWAP1 POP SWAP2 SWAP1 POP JUMP JUMPDEST PUSH1 0x0 PUSH1 0x20 DUP3 ADD SWAP1 POP DUP2 DUP2 SUB PUSH1 0x0 DUP4 ADD MSTORE PUSH2 0x2B9E DUP2 PUSH2 0x2B62 JUMP JUMPDEST SWAP1 POP SWAP2 SWAP1 POP JUMP JUMPDEST PUSH1 0x0 DUP2 SWAP1 POP SWAP3 SWAP2 POP POP JUMP JUMPDEST PUSH1 0x0 PUSH2 0x2BBB DUP3 PUSH2 0x1EB6 JUMP JUMPDEST PUSH2 0x2BC5 DUP2 DUP6 PUSH2 0x2BA5 JUMP JUMPDEST SWAP4 POP PUSH2 0x2BD5 DUP2 DUP6 PUSH1 0x20 DUP7 ADD PUSH2 0x1ED2 JUMP JUMPDEST DUP1 DUP5 ADD SWAP2 POP POP SWAP3 SWAP2 POP POP JUMP JUMPDEST PUSH1 0x0 PUSH2 0x2BED DUP3 DUP5 PUSH2 0x2BB0 JUMP JUMPDEST SWAP2 POP DUP2 SWAP1 POP SWAP3 SWAP2 POP POP JUMP JUMPDEST PUSH32 0x5F5F5F596F75206861766520616C726561647920766F74656420666F72206120 PUSH1 0x0 DUP3 ADD MSTORE PUSH32 0x63616E64696461746520696E207468697320706F736974696F6E5F5F5F000000 PUSH1 0x20 DUP3 ADD MSTORE POP JUMP JUMPDEST PUSH1 0x0 PUSH2 0x2C54 PUSH1 0x3D DUP4 PUSH2 0x1EC1 JUMP JUMPDEST SWAP2 POP PUSH2 0x2C5F DUP3 PUSH2 0x2BF8 JUMP JUMPDEST PUSH1 0x40 DUP3 ADD SWAP1 POP SWAP2 SWAP1 POP JUMP JUMPDEST PUSH1 0x0 PUSH1 0x20 DUP3 ADD SWAP1 POP DUP2 DUP2 SUB PUSH1 0x0 DUP4 ADD MSTORE PUSH2 0x2C83 DUP2 PUSH2 0x2C47 JUMP JUMPDEST SWAP1 POP SWAP2 SWAP1 POP JUMP JUMPDEST PUSH1 0x0 PUSH2 0x2C95 DUP3 PUSH2 0x1E44 JUMP JUMPDEST SWAP2 POP PUSH32 0xFFFFFFFFFFFFFFFFFFFFFFFFFFFFFFFFFFFFFFFFFFFFFFFFFFFFFFFFFFFFFFFF DUP3 SUB PUSH2 0x2CC7 JUMPI PUSH2 0x2CC6 PUSH2 0x298F JUMP JUMPDEST JUMPDEST PUSH1 0x1 DUP3 ADD SWAP1 POP SWAP2 SWAP1 POP JUMP JUMPDEST PUSH32 0x5F5F5F4F6E6C792061646D696E2063616E20706572666F726D2074686973206F PUSH1 0x0 DUP3 ADD MSTORE PUSH32 0x7065726174696F6E5F5F5F000000000000000000000000000000000000000000 PUSH1 0x20 DUP3 ADD MSTORE POP JUMP JUMPDEST PUSH1 0x0 PUSH2 0x2D2E PUSH1 0x2B DUP4 PUSH2 0x1EC1 JUMP JUMPDEST SWAP2 POP PUSH2 0x2D39 DUP3 PUSH2 0x2CD2 JUMP JUMPDEST PUSH1 0x40 DUP3 ADD SWAP1 POP SWAP2 SWAP1 POP JUMP JUMPDEST PUSH1 0x0 PUSH1 0x20 DUP3 ADD SWAP1 POP DUP2 DUP2 SUB PUSH1 0x0 DUP4 ADD MSTORE PUSH2 0x2D5D DUP2 PUSH2 0x2D21 JUMP JUMPDEST SWAP1 POP SWAP2 SWAP1 POP JUMP JUMPDEST PUSH32 0x5F5F5F4669727374206E616D6520616E64206C617374206E616D652063616E6E PUSH1 0x0 DUP3 ADD MSTORE PUSH32 0x6F7420626520656D7074795F5F5F000000000000000000000000000000000000 PUSH1 0x20 DUP3 ADD MSTORE POP JUMP JUMPDEST PUSH1 0x0 PUSH2 0x2DC0 PUSH1 0x2E DUP4 PUSH2 0x1EC1 JUMP JUMPDEST SWAP2 POP PUSH2 0x2DCB DUP3 PUSH2 0x2D64 JUMP JUMPDEST PUSH1 0x40 DUP3 ADD SWAP1 POP SWAP2 SWAP1 POP JUMP JUMPDEST PUSH1 0x0 PUSH1 0x20 DUP3 ADD SWAP1 POP DUP2 DUP2 SUB PUSH1 0x0 DUP4 ADD MSTORE PUSH2 0x2DEF DUP2 PUSH2 0x2DB3 JUMP JUMPDEST SWAP1 POP SWAP2 SWAP1 POP JUMP JUMPDEST PUSH32 0x5F5F5F456D61696C2063616E6E6F7420626520656D7074795F5F5F0000000000 PUSH1 0x0 DUP3 ADD MSTORE POP JUMP JUMPDEST PUSH1 0x0 PUSH2 0x2E2C PUSH1 0x1B DUP4 PUSH2 0x1EC1 JUMP JUMPDEST SWAP2 POP PUSH2 0x2E37 DUP3 PUSH2 0x2DF6 JUMP JUMPDEST PUSH1 0x20 DUP3 ADD SWAP1 POP SWAP2 SWAP1 POP JUMP JUMPDEST PUSH1 0x0 PUSH1 0x20 DUP3 ADD SWAP1 POP DUP2 DUP2 SUB PUSH1 0x0 DUP4 ADD MSTORE PUSH2 0x2E5B DUP2 PUSH2 0x2E1F JUMP JUMPDEST SWAP1 POP SWAP2 SWAP1 POP JUMP JUMPDEST PUSH32 0x5F5F5F416765206D75737420626520657175616C20746F206F72206772656174 PUSH1 0x0 DUP3 ADD MSTORE PUSH32 0x6572207468616E2031385F5F5F00000000000000000000000000000000000000 PUSH1 0x20 DUP3 ADD MSTORE POP JUMP JUMPDEST PUSH1 0x0 PUSH2 0x2EBE PUSH1 0x2D DUP4 PUSH2 0x1EC1 JUMP JUMPDEST SWAP2 POP PUSH2 0x2EC9 DUP3 PUSH2 0x2E62 JUMP JUMPDEST PUSH1 0x40 DUP3 ADD SWAP1 POP SWAP2 SWAP1 POP JUMP JUMPDEST PUSH1 0x0 PUSH1 0x20 DUP3 ADD SWAP1 POP DUP2 DUP2 SUB PUSH1 0x0 DUP4 ADD MSTORE PUSH2 0x2EED DUP2 PUSH2 0x2EB1 JUMP JUMPDEST SWAP1 POP SWAP2 SWAP1 POP JUMP JUMPDEST PUSH32 0x5F5F5F456D61696C206164647265737320616C7265616479206578697374735F PUSH1 0x0 DUP3 ADD MSTORE PUSH32 0x5F5F000000000000000000000000000000000000000000000000000000000000 PUSH1 0x20 DUP3 ADD MSTORE POP JUMP JUMPDEST PUSH1 0x0 PUSH2 0x2F50 PUSH1 0x22 DUP4 PUSH2 0x1EC1 JUMP JUMPDEST SWAP2 POP PUSH2 0x2F5B DUP3 PUSH2 0x2EF4 JUMP JUMPDEST PUSH1 0x40 DUP3 ADD SWAP1 POP SWAP2 SWAP1 POP JUMP JUMPDEST PUSH1 0x0 PUSH1 0x20 DUP3 ADD SWAP1 POP DUP2 DUP2 SUB PUSH1 0x0 DUP4 ADD MSTORE PUSH2 0x2F7F DUP2 PUSH2 0x2F43 JUMP JUMPDEST SWAP1 POP SWAP2 SWAP1 POP JUMP JUMPDEST PUSH32 0x5F5F5F596F752061726520616C72656164792061207265676973746572656420 PUSH1 0x0 DUP3 ADD MSTORE PUSH32 0x766F7465725F5F5F000000000000000000000000000000000000000000000000 PUSH1 0x20 DUP3 ADD MSTORE POP JUMP JUMPDEST PUSH1 0x0 PUSH2 0x2FE2 PUSH1 0x28 DUP4 PUSH2 0x1EC1 JUMP JUMPDEST SWAP2 POP PUSH2 0x2FED DUP3 PUSH2 0x2F86 JUMP JUMPDEST PUSH1 0x40 DUP3 ADD SWAP1 POP SWAP2 SWAP1 POP JUMP JUMPDEST PUSH1 0x0 PUSH1 0x20 DUP3 ADD SWAP1 POP DUP2 DUP2 SUB PUSH1 0x0 DUP4 ADD MSTORE PUSH2 0x3011 DUP2 PUSH2 0x2FD5 JUMP JUMPDEST SWAP1 POP SWAP2 SWAP1 POP JUMP JUMPDEST PUSH1 0x0 DUP2 SWAP1 POP DUP2 PUSH1 0x0 MSTORE PUSH1 0x20 PUSH1 0x0 KECCAK256 SWAP1 POP SWAP2 SWAP1 POP JUMP JUMPDEST PUSH1 0x0 PUSH1 0x20 PUSH1 0x1F DUP4 ADD DIV SWAP1 POP SWAP2 SWAP1 POP JUMP JUMPDEST PUSH1 0x0 DUP3 DUP3 SHL SWAP1 POP SWAP3 SWAP2 POP POP JUMP JUMPDEST PUSH1 0x0 PUSH1 0x8 DUP4 MUL PUSH2 0x307A PUSH32 0xFFFFFFFFFFFFFFFFFFFFFFFFFFFFFFFFFFFFFFFFFFFFFFFFFFFFFFFFFFFFFFFF DUP3 PUSH2 0x303D JUMP JUMPDEST PUSH2 0x3084 DUP7 DUP4 PUSH2 0x303D JUMP JUMPDEST SWAP6 POP DUP1 NOT DUP5 AND SWAP4 POP DUP1 DUP7 AND DUP5 OR SWAP3 POP POP POP SWAP4 SWAP3 POP POP POP JUMP JUMPDEST PUSH1 0x0 DUP2 SWAP1 POP SWAP2 SWAP1 POP JUMP JUMPDEST PUSH1 0x0 PUSH2 0x30C1 PUSH2 0x30BC PUSH2 0x30B7 DUP5 PUSH2 0x1E44 JUMP JUMPDEST PUSH2 0x309C JUMP JUMPDEST PUSH2 0x1E44 JUMP JUMPDEST SWAP1 POP SWAP2 SWAP1 POP JUMP JUMPDEST PUSH1 0x0 DUP2 SWAP1 POP SWAP2 SWAP1 POP JUMP JUMPDEST PUSH2 0x30DB DUP4 PUSH2 0x30A6 JUMP JUMPDEST PUSH2 0x30EF PUSH2 0x30E7 DUP3 PUSH2 0x30C8 JUMP JUMPDEST DUP5 DUP5 SLOAD PUSH2 0x304A JUMP JUMPDEST DUP3 SSTORE POP POP POP POP JUMP JUMPDEST PUSH1 0x0 SWAP1 JUMP JUMPDEST PUSH2 0x3104 PUSH2 0x30F7 JUMP JUMPDEST PUSH2 0x310F DUP2 DUP5 DUP5 PUSH2 0x30D2 JUMP JUMPDEST POP POP POP JUMP JUMPDEST JUMPDEST DUP2 DUP2 LT ISZERO PUSH2 0x3133 JUMPI PUSH2 0x3128 PUSH1 0x0 DUP3 PUSH2 0x30FC JUMP JUMPDEST PUSH1 0x1 DUP2 ADD SWAP1 POP PUSH2 0x3115 JUMP JUMPDEST POP POP JUMP JUMPDEST PUSH1 0x1F DUP3 GT ISZERO PUSH2 0x3178 JUMPI PUSH2 0x3149 DUP2 PUSH2 0x3018 JUMP JUMPDEST PUSH2 0x3152 DUP5 PUSH2 0x302D JUMP JUMPDEST DUP2 ADD PUSH1 0x20 DUP6 LT ISZERO PUSH2 0x3161 JUMPI DUP2 SWAP1 POP JUMPDEST PUSH2 0x3175 PUSH2 0x316D DUP6 PUSH2 0x302D JUMP JUMPDEST DUP4 ADD DUP3 PUSH2 0x3114 JUMP JUMPDEST POP POP JUMPDEST POP POP POP JUMP JUMPDEST PUSH1 0x0 DUP3 DUP3 SHR SWAP1 POP SWAP3 SWAP2 POP POP JUMP JUMPDEST PUSH1 0x0 PUSH2 0x319B PUSH1 0x0 NOT DUP5 PUSH1 0x8 MUL PUSH2 0x317D JUMP JUMPDEST NOT DUP1 DUP4 AND SWAP2 POP POP SWAP3 SWAP2 POP POP JUMP JUMPDEST PUSH1 0x0 PUSH2 0x31B4 DUP4 DUP4 PUSH2 0x318A JUMP JUMPDEST SWAP2 POP DUP3 PUSH1 0x2 MUL DUP3 OR SWAP1 POP SWAP3 SWAP2 POP POP JUMP JUMPDEST PUSH2 0x31CD DUP3 PUSH2 0x1EB6 JUMP JUMPDEST PUSH8 0xFFFFFFFFFFFFFFFF DUP2 GT ISZERO PUSH2 0x31E6 JUMPI PUSH2 0x31E5 PUSH2 0x2161 JUMP JUMPDEST JUMPDEST PUSH2 0x31F0 DUP3 SLOAD PUSH2 0x2AE2 JUMP JUMPDEST PUSH2 0x31FB DUP3 DUP3 DUP6 PUSH2 0x3137 JUMP JUMPDEST PUSH1 0x0 PUSH1 0x20 SWAP1 POP PUSH1 0x1F DUP4 GT PUSH1 0x1 DUP2 EQ PUSH2 0x322E JUMPI PUSH1 0x0 DUP5 ISZERO PUSH2 0x321C JUMPI DUP3 DUP8 ADD MLOAD SWAP1 POP JUMPDEST PUSH2 0x3226 DUP6 DUP3 PUSH2 0x31A8 JUMP JUMPDEST DUP7 SSTORE POP PUSH2 0x328E JUMP JUMPDEST PUSH1 0x1F NOT DUP5 AND PUSH2 0x323C DUP7 PUSH2 0x3018 JUMP JUMPDEST PUSH1 0x0 JUMPDEST DUP3 DUP2 LT ISZERO PUSH2 0x3264 JUMPI DUP5 DUP10 ADD MLOAD DUP3 SSTORE PUSH1 0x1 DUP3 ADD SWAP2 POP PUSH1 0x20 DUP6 ADD SWAP5 POP PUSH1 0x20 DUP2 ADD SWAP1 POP PUSH2 0x323F JUMP JUMPDEST DUP7 DUP4 LT ISZERO PUSH2 0x3281 JUMPI DUP5 DUP10 ADD MLOAD PUSH2 0x327D PUSH1 0x1F DUP10 AND DUP3 PUSH2 0x318A JUMP JUMPDEST DUP4 SSTORE POP JUMPDEST PUSH1 0x1 PUSH1 0x2 DUP9 MUL ADD DUP9 SSTORE POP POP POP JUMPDEST POP POP POP POP POP POP JUMP JUMPDEST PUSH1 0x0 PUSH1 0xC0 DUP3 ADD SWAP1 POP DUP2 DUP2 SUB PUSH1 0x0 DUP4 ADD MSTORE PUSH2 0x32B0 DUP2 DUP10 PUSH2 0x1F0D JUMP JUMPDEST SWAP1 POP DUP2 DUP2 SUB PUSH1 0x20 DUP4 ADD MSTORE PUSH2 0x32C4 DUP2 DUP9 PUSH2 0x1F0D JUMP JUMPDEST SWAP1 POP DUP2 DUP2 SUB PUSH1 0x40 DUP4 ADD MSTORE PUSH2 0x32D8 DUP2 DUP8 PUSH2 0x1F0D JUMP JUMPDEST SWAP1 POP PUSH2 0x32E7 PUSH1 0x60 DUP4 ADD DUP7 PUSH2 0x1EA7 JUMP JUMPDEST DUP2 DUP2 SUB PUSH1 0x80 DUP4 ADD MSTORE PUSH2 0x32F9 DUP2 DUP6 PUSH2 0x1F0D JUMP JUMPDEST SWAP1 POP DUP2 DUP2 SUB PUSH1 0xA0 DUP4 ADD MSTORE PUSH2 0x330D DUP2 DUP5 PUSH2 0x1F0D JUMP JUMPDEST SWAP1 POP SWAP8 SWAP7 POP POP POP POP POP POP POP JUMP JUMPDEST PUSH1 0x0 DUP2 SLOAD PUSH2 0x3327 DUP2 PUSH2 0x2AE2 JUMP JUMPDEST PUSH2 0x3331 DUP2 DUP7 PUSH2 0x2BA5 JUMP JUMPDEST SWAP5 POP PUSH1 0x1 DUP3 AND PUSH1 0x0 DUP2 EQ PUSH2 0x334C JUMPI PUSH1 0x1 DUP2 EQ PUSH2 0x3361 JUMPI PUSH2 0x3394 JUMP JUMPDEST PUSH1 0xFF NOT DUP4 AND DUP7 MSTORE DUP2 ISZERO ISZERO DUP3 MUL DUP7 ADD SWAP4 POP PUSH2 0x3394 JUMP JUMPDEST PUSH2 0x336A DUP6 PUSH2 0x3018 JUMP JUMPDEST PUSH1 0x0 JUMPDEST DUP4 DUP2 LT ISZERO PUSH2 0x338C JUMPI DUP2 SLOAD DUP2 DUP10 ADD MSTORE PUSH1 0x1 DUP3 ADD SWAP2 POP PUSH1 0x20 DUP2 ADD SWAP1 POP PUSH2 0x336D JUMP JUMPDEST DUP4 DUP9 ADD SWAP6 POP POP POP JUMPDEST POP POP POP SWAP3 SWAP2 POP POP JUMP JUMPDEST PUSH1 0x0 PUSH2 0x33A9 DUP3 DUP5 PUSH2 0x331A JUMP JUMPDEST SWAP2 POP DUP2 SWAP1 POP SWAP3 SWAP2 POP POP JUMP JUMPDEST PUSH32 0x5F5F5F496E76616C696420706F736974696F6E5F5F5F00000000000000000000 PUSH1 0x0 DUP3 ADD MSTORE POP JUMP JUMPDEST PUSH1 0x0 PUSH2 0x33EA PUSH1 0x16 DUP4 PUSH2 0x1EC1 JUMP JUMPDEST SWAP2 POP PUSH2 0x33F5 DUP3 PUSH2 0x33B4 JUMP JUMPDEST PUSH1 0x20 DUP3 ADD SWAP1 POP SWAP2 SWAP1 POP JUMP JUMPDEST PUSH1 0x0 PUSH1 0x20 DUP3 ADD SWAP1 POP DUP2 DUP2 SUB PUSH1 0x0 DUP4 ADD MSTORE PUSH2 0x3419 DUP2 PUSH2 0x33DD JUMP JUMPDEST SWAP1 POP SWAP2 SWAP1 POP JUMP JUMPDEST PUSH32 0x5F5F5F43616E6E6F742072656769737465722063616E64696461746573206166 PUSH1 0x0 DUP3 ADD MSTORE PUSH32 0x74657220656C656374696F6E2068617320737461727465645F5F5F0000000000 PUSH1 0x20 DUP3 ADD MSTORE POP JUMP JUMPDEST PUSH1 0x0 PUSH2 0x347C PUSH1 0x3B DUP4 PUSH2 0x1EC1 JUMP JUMPDEST SWAP2 POP PUSH2 0x3487 DUP3 PUSH2 0x3420 JUMP JUMPDEST PUSH1 0x40 DUP3 ADD SWAP1 POP SWAP2 SWAP1 POP JUMP JUMPDEST PUSH1 0x0 PUSH1 0x20 DUP3 ADD SWAP1 POP DUP2 DUP2 SUB PUSH1 0x0 DUP4 ADD MSTORE PUSH2 0x34AB DUP2 PUSH2 0x346F JUMP JUMPDEST SWAP1 POP SWAP2 SWAP1 POP JUMP JUMPDEST PUSH1 0x0 PUSH1 0xE0 DUP3 ADD SWAP1 POP PUSH2 0x34C7 PUSH1 0x0 DUP4 ADD DUP11 PUSH2 0x1EA7 JUMP JUMPDEST DUP2 DUP2 SUB PUSH1 0x20 DUP4 ADD MSTORE PUSH2 0x34D9 DUP2 DUP10 PUSH2 0x1F0D JUMP JUMPDEST SWAP1 POP DUP2 DUP2 SUB PUSH1 0x40 DUP4 ADD MSTORE PUSH2 0x34ED DUP2 DUP9 PUSH2 0x1F0D JUMP JUMPDEST SWAP1 POP DUP2 DUP2 SUB PUSH1 0x60 DUP4 ADD MSTORE PUSH2 0x3501 DUP2 DUP8 PUSH2 0x1F0D JUMP JUMPDEST SWAP1 POP DUP2 DUP2 SUB PUSH1 0x80 DUP4 ADD MSTORE PUSH2 0x3515 DUP2 DUP7 PUSH2 0x1F0D JUMP JUMPDEST SWAP1 POP DUP2 DUP2 SUB PUSH1 0xA0 DUP4 ADD MSTORE PUSH2 0x3529 DUP2 DUP6 PUSH2 0x1F0D JUMP JUMPDEST SWAP1 POP DUP2 DUP2 SUB PUSH1 0xC0 DUP4 ADD MSTORE PUSH2 0x353D DUP2 DUP5 PUSH2 0x1F0D JUMP JUMPDEST SWAP1 POP SWAP9 SWAP8 POP POP POP POP POP POP POP POP JUMP INVALID LOG2 PUSH5 0x6970667358 0x22 SLT KECCAK256 0xE2 0xBD PUSH1 0x16 TSTORE PREVRANDAO MSTORE 0xC0 ADD SMOD PUSH30 0x566752C03CFA51F23D8333B4F49F3E29705557B8F64736F6C6343000818 STOP CALLER "},"methodIdentifiers":{"admin()":"f851a440","candidateCount()":"a9a981a3","candidateEmailExists(string)":"a5499a31","candidates(uint256)":"3477ee2e","electionStarted()":"d5346da1","endElection()":"59f78468","getCandidateList()":"fdbc4006","positions(uint256)":"99fbab88","registerCandidate(string,string,string,string,string,string)":"f1a68302","registerVoter(string,string,string,uint256,string,string)":"b70ddeed","startElection()":"62d73eb8","vote(uint256)":"0121b93f","voterEmailExists(string)":"dec963d5","voters(address)":"a3ec138d"}}}}}