{
  "_format": "hh-sol-artifact-1",
  "contractName": "Election",
  "sourceName": "contracts/Election.sol",
  "abi": [
    {
      "inputs": [
        {
          "internalType": "string[]",
          "name": "_firstNames",
          "type": "string[]"
        },
        {
          "internalType": "string[]",
          "name": "_lastNames",
          "type": "string[]"
        },
        {
          "internalType": "string[]",
          "name": "_emails",
          "type": "string[]"
        },
        {
          "internalType": "string[]",
          "name": "_genders",
          "type": "string[]"
        },
        {
          "internalType": "string[]",
          "name": "_positions",
          "type": "string[]"
        },
        {
          "internalType": "string[]",
          "name": "_manifestos",
          "type": "string[]"
        }
      ],
      "stateMutability": "nonpayable",
      "type": "constructor"
    },
    {
      "anonymous": false,
      "inputs": [
        {
          "indexed": false,
          "internalType": "uint256",
          "name": "id",
          "type": "uint256"
        },
        {
          "indexed": false,
          "internalType": "string",
          "name": "firstName",
          "type": "string"
        },
        {
          "indexed": false,
          "internalType": "string",
          "name": "lastName",
          "type": "string"
        },
        {
          "indexed": false,
          "internalType": "string",
          "name": "email",
          "type": "string"
        },
        {
          "indexed": false,
          "internalType": "string",
          "name": "gender",
          "type": "string"
        },
        {
          "indexed": false,
          "internalType": "string",
          "name": "position",
          "type": "string"
        },
        {
          "indexed": false,
          "internalType": "string",
          "name": "manifesto",
          "type": "string"
        }
      ],
      "name": "CandidateRegistered",
      "type": "event"
    },
    {
      "anonymous": false,
      "inputs": [
        {
          "indexed": false,
          "internalType": "string",
          "name": "position",
          "type": "string"
        },
        {
          "indexed": false,
          "internalType": "string",
          "name": "winner",
          "type": "string"
        }
      ],
      "name": "ElectionResult",
      "type": "event"
    },
    {
      "anonymous": false,
      "inputs": [
        {
          "indexed": false,
          "internalType": "string",
          "name": "position",
          "type": "string"
        },
        {
          "indexed": false,
          "internalType": "string",
          "name": "winner",
          "type": "string"
        },
        {
          "indexed": false,
          "internalType": "uint256",
          "name": "voteCount",
          "type": "uint256"
        }
      ],
      "name": "ElectionResultss",
      "type": "event"
    },
    {
      "anonymous": false,
      "inputs": [
        {
          "indexed": true,
          "internalType": "address",
          "name": "voterAddress",
          "type": "address"
        },
        {
          "indexed": true,
          "internalType": "uint256",
          "name": "candidateId",
          "type": "uint256"
        }
      ],
      "name": "VoteCast",
      "type": "event"
    },
    {
      "anonymous": false,
      "inputs": [
        {
          "indexed": true,
          "internalType": "address",
          "name": "voterAddress",
          "type": "address"
        },
        {
          "indexed": false,
          "internalType": "string",
          "name": "firstName",
          "type": "string"
        },
        {
          "indexed": false,
          "internalType": "string",
          "name": "lastName",
          "type": "string"
        },
        {
          "indexed": false,
          "internalType": "string",
          "name": "email",
          "type": "string"
        },
        {
          "indexed": false,
          "internalType": "uint256",
          "name": "age",
          "type": "uint256"
        },
        {
          "indexed": false,
          "internalType": "string",
          "name": "gender",
          "type": "string"
        },
        {
          "indexed": false,
          "internalType": "string",
          "name": "nationality",
          "type": "string"
        }
      ],
      "name": "VoterRegistered",
      "type": "event"
    },
    {
      "inputs": [],
      "name": "admin",
      "outputs": [
        {
          "internalType": "address",
          "name": "",
          "type": "address"
        }
      ],
      "stateMutability": "view",
      "type": "function"
    },
    {
      "inputs": [],
      "name": "candidateCount",
      "outputs": [
        {
          "internalType": "uint256",
          "name": "",
          "type": "uint256"
        }
      ],
      "stateMutability": "view",
      "type": "function"
    },
    {
      "inputs": [
        {
          "internalType": "string",
          "name": "",
          "type": "string"
        }
      ],
      "name": "candidateEmailExists",
      "outputs": [
        {
          "internalType": "bool",
          "name": "",
          "type": "bool"
        }
      ],
      "stateMutability": "view",
      "type": "function"
    },
    {
      "inputs": [
        {
          "internalType": "uint256",
          "name": "",
          "type": "uint256"
        }
      ],
      "name": "candidates",
      "outputs": [
        {
          "internalType": "uint256",
          "name": "id",
          "type": "uint256"
        },
        {
          "internalType": "string",
          "name": "firstName",
          "type": "string"
        },
        {
          "internalType": "string",
          "name": "lastName",
          "type": "string"
        },
        {
          "internalType": "string",
          "name": "email",
          "type": "string"
        },
        {
          "internalType": "string",
          "name": "gender",
          "type": "string"
        },
        {
          "internalType": "string",
          "name": "position",
          "type": "string"
        },
        {
          "internalType": "string",
          "name": "manifesto",
          "type": "string"
        },
        {
          "internalType": "uint256",
          "name": "voteCount",
          "type": "uint256"
        },
        {
          "internalType": "bool",
          "name": "registered",
          "type": "bool"
        }
      ],
      "stateMutability": "view",
      "type": "function"
    },
    {
      "inputs": [],
      "name": "electionStarted",
      "outputs": [
        {
          "internalType": "bool",
          "name": "",
          "type": "bool"
        }
      ],
      "stateMutability": "view",
      "type": "function"
    },
    {
      "inputs": [],
      "name": "endElection",
      "outputs": [],
      "stateMutability": "nonpayable",
      "type": "function"
    },
    {
      "inputs": [],
      "name": "getCandidateList",
      "outputs": [
        {
          "components": [
            {
              "internalType": "uint256",
              "name": "id",
              "type": "uint256"
            },
            {
              "internalType": "string",
              "name": "firstName",
              "type": "string"
            },
            {
              "internalType": "string",
              "name": "lastName",
              "type": "string"
            },
            {
              "internalType": "string",
              "name": "email",
              "type": "string"
            },
            {
              "internalType": "string",
              "name": "gender",
              "type": "string"
            },
            {
              "internalType": "string",
              "name": "position",
              "type": "string"
            },
            {
              "internalType": "string",
              "name": "manifesto",
              "type": "string"
            },
            {
              "internalType": "uint256",
              "name": "voteCount",
              "type": "uint256"
            },
            {
              "internalType": "bool",
              "name": "registered",
              "type": "bool"
            },
            {
              "internalType": "address[]",
              "name": "votersWhoVotedForCandidate",
              "type": "address[]"
            }
          ],
          "internalType": "struct Election.Candidate[]",
          "name": "",
          "type": "tuple[]"
        }
      ],
      "stateMutability": "view",
      "type": "function"
    },
    {
      "inputs": [
        {
          "internalType": "uint256",
          "name": "",
          "type": "uint256"
        }
      ],
      "name": "positions",
      "outputs": [
        {
          "internalType": "string",
          "name": "",
          "type": "string"
        }
      ],
      "stateMutability": "view",
      "type": "function"
    },
    {
      "inputs": [
        {
          "internalType": "string",
          "name": "_firstName",
          "type": "string"
        },
        {
          "internalType": "string",
          "name": "_lastName",
          "type": "string"
        },
        {
          "internalType": "string",
          "name": "_email",
          "type": "string"
        },
        {
          "internalType": "string",
          "name": "_gender",
          "type": "string"
        },
        {
          "internalType": "string",
          "name": "_position",
          "type": "string"
        },
        {
          "internalType": "string",
          "name": "_manifesto",
          "type": "string"
        }
      ],
      "name": "registerCandidate",
      "outputs": [],
      "stateMutability": "nonpayable",
      "type": "function"
    },
    {
      "inputs": [
        {
          "internalType": "string",
          "name": "_firstName",
          "type": "string"
        },
        {
          "internalType": "string",
          "name": "_lastName",
          "type": "string"
        },
        {
          "internalType": "string",
          "name": "_email",
          "type": "string"
        },
        {
          "internalType": "uint256",
          "name": "_age",
          "type": "uint256"
        },
        {
          "internalType": "string",
          "name": "_gender",
          "type": "string"
        },
        {
          "internalType": "string",
          "name": "_nationality",
          "type": "string"
        }
      ],
      "name": "registerVoter",
      "outputs": [],
      "stateMutability": "nonpayable",
      "type": "function"
    },
    {
      "inputs": [],
      "name": "startElection",
      "outputs": [],
      "stateMutability": "nonpayable",
      "type": "function"
    },
    {
      "inputs": [
        {
          "internalType": "uint256",
          "name": "_candidateId",
          "type": "uint256"
        }
      ],
      "name": "vote",
      "outputs": [],
      "stateMutability": "nonpayable",
      "type": "function"
    },
    {
      "inputs": [
        {
          "internalType": "string",
          "name": "",
          "type": "string"
        }
      ],
      "name": "voterEmailExists",
      "outputs": [
        {
          "internalType": "bool",
          "name": "",
          "type": "bool"
        }
      ],
      "stateMutability": "view",
      "type": "function"
    },
    {
      "inputs": [
        {
          "internalType": "address",
          "name": "",
          "type": "address"
        }
      ],
      "name": "voters",
      "outputs": [
        {
          "internalType": "string",
          "name": "firstName",
          "type": "string"
        },
        {
          "internalType": "string",
          "name": "lastName",
          "type": "string"
        },
        {
          "internalType": "string",
          "name": "email",
          "type": "string"
        },
        {
          "internalType": "uint256",
          "name": "age",
          "type": "uint256"
        },
        {
          "internalType": "string",
          "name": "gender",
          "type": "string"
        },
        {
          "internalType": "string",
          "name": "nationality",
          "type": "string"
        },
        {
          "internalType": "bool",
          "name": "voted",
          "type": "bool"
        }
      ],
      "stateMutability": "view",
      "type": "function"
    }
  ],
  "bytecode": "0x608060405260405180606001604052806040518060400160405280600981526020017f507265736964656e74000000000000000000000000000000000000000000000081525081526020016040518060400160405280600e81526020017f5669636520507265736964656e7400000000000000000000000000000000000081525081526020016040518060400160405280600781526020017f53656e61746f72000000000000000000000000000000000000000000000000008152508152506006906003620000d09291906200050f565b50348015620000de57600080fd5b50604051620047bc380380620047bc83398181016040528101906200010491906200091a565b336000806101000a81548173ffffffffffffffffffffffffffffffffffffffff021916908373ffffffffffffffffffffffffffffffffffffffff1602179055508451865114801562000157575083518551145b801562000165575082518451145b801562000173575081518351145b801562000181575080518251145b620001c3576040517f08c379a0000000000000000000000000000000000000000000000000000000008152600401620001ba9062000ad1565b60405180910390fd5b60005b8651811015620004fa5760606001604051806101400160405280600185620001ef919062000b2c565b81526020018a85815181106200020a576200020962000b67565b5b602002602001015181526020018985815181106200022d576200022c62000b67565b5b6020026020010151815260200188858151811062000250576200024f62000b67565b5b6020026020010151815260200187858151811062000273576200027262000b67565b5b6020026020010151815260200186858151811062000296576200029562000b67565b5b60200260200101518152602001858581518110620002b957620002b862000b67565b5b60200260200101518152602001600081526020016001151581526020018381525090806001815401808255809150506001900390600052602060002090600a020160009091909190915060008201518160000155602082015181600101908162000324919062000dd7565b5060408201518160020190816200033c919062000dd7565b50606082015181600301908162000354919062000dd7565b5060808201518160040190816200036c919062000dd7565b5060a082015181600501908162000384919062000dd7565b5060c08201518160060190816200039c919062000dd7565b5060e082015181600701556101008201518160080160006101000a81548160ff021916908315150217905550610120820151816009019080519060200190620003e79291906200056f565b5050507fcdc63be4a9722ee4b9b2d4e39199d658bd01d6a91201c97399dd7926ad13bd006001836200041a919062000b2c565b89848151811062000430576200042f62000b67565b5b60200260200101518985815181106200044e576200044d62000b67565b5b60200260200101518986815181106200046c576200046b62000b67565b5b60200260200101518987815181106200048a576200048962000b67565b5b6020026020010151898881518110620004a857620004a762000b67565b5b6020026020010151898981518110620004c657620004c562000b67565b5b6020026020010151604051620004e3979695949392919062000f10565b60405180910390a1508080600101915050620001c6565b50855160058190555050505050505062000fb7565b8280548282559060005260206000209081019282156200055c579160200282015b828111156200055b5782518290816200054a919062000dd7565b509160200191906001019062000530565b5b5090506200056b9190620005fe565b5090565b828054828255906000526020600020908101928215620005eb579160200282015b82811115620005ea5782518260006101000a81548173ffffffffffffffffffffffffffffffffffffffff021916908373ffffffffffffffffffffffffffffffffffffffff1602179055509160200191906001019062000590565b5b509050620005fa919062000626565b5090565b5b8082111562000622576000818162000618919062000645565b50600101620005ff565b5090565b5b808211156200064157600081600090555060010162000627565b5090565b508054620006539062000bd0565b6000825580601f1062000667575062000688565b601f01602090049060005260206000209081019062000687919062000626565b5b50565b6000604051905090565b600080fd5b600080fd5b600080fd5b6000601f19601f8301169050919050565b7f4e487b7100000000000000000000000000000000000000000000000000000000600052604160045260246000fd5b620006ef82620006a4565b810181811067ffffffffffffffff82111715620007115762000710620006b5565b5b80604052505050565b6000620007266200068b565b9050620007348282620006e4565b919050565b600067ffffffffffffffff821115620007575762000756620006b5565b5b602082029050602081019050919050565b600080fd5b600080fd5b600067ffffffffffffffff82111562000790576200078f620006b5565b5b6200079b82620006a4565b9050602081019050919050565b60005b83811015620007c8578082015181840152602081019050620007ab565b60008484015250505050565b6000620007eb620007e58462000772565b6200071a565b9050828152602081018484840111156200080a57620008096200076d565b5b62000817848285620007a8565b509392505050565b600082601f8301126200083757620008366200069f565b5b815162000849848260208601620007d4565b91505092915050565b600062000869620008638462000739565b6200071a565b905080838252602082019050602084028301858111156200088f576200088e62000768565b5b835b81811015620008dd57805167ffffffffffffffff811115620008b857620008b76200069f565b5b808601620008c789826200081f565b8552602085019450505060208101905062000891565b5050509392505050565b600082601f830112620008ff57620008fe6200069f565b5b81516200091184826020860162000852565b91505092915050565b60008060008060008060c087890312156200093a576200093962000695565b5b600087015167ffffffffffffffff8111156200095b576200095a6200069a565b5b6200096989828a01620008e7565b965050602087015167ffffffffffffffff8111156200098d576200098c6200069a565b5b6200099b89828a01620008e7565b955050604087015167ffffffffffffffff811115620009bf57620009be6200069a565b5b620009cd89828a01620008e7565b945050606087015167ffffffffffffffff811115620009f157620009f06200069a565b5b620009ff89828a01620008e7565b935050608087015167ffffffffffffffff81111562000a235762000a226200069a565b5b62000a3189828a01620008e7565b92505060a087015167ffffffffffffffff81111562000a555762000a546200069a565b5b62000a6389828a01620008e7565b9150509295509295509295565b600082825260208201905092915050565b7f5f5f5f496e76616c696420696e707574206c656e677468735f5f5f0000000000600082015250565b600062000ab9601b8362000a70565b915062000ac68262000a81565b602082019050919050565b6000602082019050818103600083015262000aec8162000aaa565b9050919050565b6000819050919050565b7f4e487b7100000000000000000000000000000000000000000000000000000000600052601160045260246000fd5b600062000b398262000af3565b915062000b468362000af3565b925082820190508082111562000b615762000b6062000afd565b5b92915050565b7f4e487b7100000000000000000000000000000000000000000000000000000000600052603260045260246000fd5b600081519050919050565b7f4e487b7100000000000000000000000000000000000000000000000000000000600052602260045260246000fd5b6000600282049050600182168062000be957607f821691505b60208210810362000bff5762000bfe62000ba1565b5b50919050565b60008190508160005260206000209050919050565b60006020601f8301049050919050565b600082821b905092915050565b60006008830262000c697fffffffffffffffffffffffffffffffffffffffffffffffffffffffffffffffff8262000c2a565b62000c75868362000c2a565b95508019841693508086168417925050509392505050565b6000819050919050565b600062000cb862000cb262000cac8462000af3565b62000c8d565b62000af3565b9050919050565b6000819050919050565b62000cd48362000c97565b62000cec62000ce38262000cbf565b84845462000c37565b825550505050565b600090565b62000d0362000cf4565b62000d1081848462000cc9565b505050565b5b8181101562000d385762000d2c60008262000cf9565b60018101905062000d16565b5050565b601f82111562000d875762000d518162000c05565b62000d5c8462000c1a565b8101602085101562000d6c578190505b62000d8462000d7b8562000c1a565b83018262000d15565b50505b505050565b600082821c905092915050565b600062000dac6000198460080262000d8c565b1980831691505092915050565b600062000dc7838362000d99565b9150826002028217905092915050565b62000de28262000b96565b67ffffffffffffffff81111562000dfe5762000dfd620006b5565b5b62000e0a825462000bd0565b62000e1782828562000d3c565b600060209050601f83116001811462000e4f576000841562000e3a578287015190505b62000e46858262000db9565b86555062000eb6565b601f19841662000e5f8662000c05565b60005b8281101562000e895784890151825560018201915060208501945060208101905062000e62565b8683101562000ea9578489015162000ea5601f89168262000d99565b8355505b6001600288020188555050505b505050505050565b62000ec98162000af3565b82525050565b600062000edc8262000b96565b62000ee8818562000a70565b935062000efa818560208601620007a8565b62000f0581620006a4565b840191505092915050565b600060e08201905062000f27600083018a62000ebe565b818103602083015262000f3b818962000ecf565b9050818103604083015262000f51818862000ecf565b9050818103606083015262000f67818762000ecf565b9050818103608083015262000f7d818662000ecf565b905081810360a083015262000f93818562000ecf565b905081810360c083015262000fa9818462000ecf565b905098975050505050505050565b6137f58062000fc76000396000f3fe608060405234801561001057600080fd5b50600436106100ea5760003560e01c8063a9a981a31161008c578063dec963d511610066578063dec963d514610245578063f1a6830214610275578063f851a44014610291578063fdbc4006146102af576100ea565b8063a9a981a3146101ed578063b70ddeed1461020b578063d5346da114610227576100ea565b806362d73eb8116100c857806362d73eb81461014d57806399fbab8814610157578063a3ec138d14610187578063a5499a31146101bd576100ea565b80630121b93f146100ef5780633477ee2e1461010b57806359f7846814610143575b600080fd5b610109600480360381019061010491906120ee565b6102cd565b005b610125600480360381019061012091906120ee565b610830565b60405161013a999897969594939291906121d5565b60405180910390f35b61014b610bcb565b005b610155610cc4565b005b610171600480360381019061016c91906120ee565b610d77565b60405161017e919061228c565b60405180910390f35b6101a1600480360381019061019c919061230c565b610e23565b6040516101b49796959493929190612339565b60405180910390f35b6101d760048036038101906101d29190612500565b61111a565b6040516101e49190612549565b60405180910390f35b6101f5611150565b6040516102029190612564565b60405180910390f35b6102256004803603810190610220919061257f565b611156565b005b61022f611487565b60405161023c9190612549565b60405180910390f35b61025f600480360381019061025a9190612500565b61149a565b60405161026c9190612549565b60405180910390f35b61028f600480360381019061028a9190612698565b6114d0565b005b6102996118e4565b6040516102a691906127dc565b60405180910390f35b6102b7611908565b6040516102c49190612ae3565b60405180910390f35b600060149054906101000a900460ff1661031c576040517f08c379a000000000000000000000000000000000000000000000000000000000815260040161031390612b77565b60405180910390fd5b60008111801561033157506001805490508111155b610370576040517f08c379a000000000000000000000000000000000000000000000000000000000815260040161036790612be3565b60405180910390fd5b6001808261037e9190612c32565b8154811061038f5761038e612c66565b5b90600052602060002090600a020160080160009054906101000a900460ff166103ed576040517f08c379a00000000000000000000000000000000000000000000000000000000081526004016103e490612d07565b60405180910390fd5b6000600260003373ffffffffffffffffffffffffffffffffffffffff1673ffffffffffffffffffffffffffffffffffffffff168152602001908152602001600020600001805461043c90612d56565b90501161047e576040517f08c379a000000000000000000000000000000000000000000000000000000000815260040161047590612df9565b60405180910390fd5b60006001808361048e9190612c32565b8154811061049f5761049e612c66565b5b90600052602060002090600a020160050180546104bb90612d56565b80601f01602080910402602001604051908101604052809291908181526020018280546104e790612d56565b80156105345780601f1061050957610100808354040283529160200191610534565b820191906000526020600020905b81548152906001019060200180831161051757829003601f168201915b50505050509050600260003373ffffffffffffffffffffffffffffffffffffffff1673ffffffffffffffffffffffffffffffffffffffff1681526020019081526020016000206006018160405161058b9190612e55565b908152602001604051809103902060009054906101000a900460ff1615806106005750600260003373ffffffffffffffffffffffffffffffffffffffff1673ffffffffffffffffffffffffffffffffffffffff16815260200190815260200160002060070160009054906101000a900460ff16155b61063f576040517f08c379a000000000000000000000000000000000000000000000000000000000815260040161063690612ede565b60405180910390fd5b6001808361064d9190612c32565b8154811061065e5761065d612c66565b5b90600052602060002090600a0201600701600081548092919061068090612efe565b9190505550600180836106939190612c32565b815481106106a4576106a3612c66565b5b90600052602060002090600a0201600901339080600181540180825580915050600190039060005260206000200160009091909190916101000a81548173ffffffffffffffffffffffffffffffffffffffff021916908373ffffffffffffffffffffffffffffffffffffffff1602179055506001600260003373ffffffffffffffffffffffffffffffffffffffff1673ffffffffffffffffffffffffffffffffffffffff168152602001908152602001600020600601826040516107689190612e55565b908152602001604051809103902060006101000a81548160ff0219169083151502179055506001600260003373ffffffffffffffffffffffffffffffffffffffff1673ffffffffffffffffffffffffffffffffffffffff16815260200190815260200160002060070160006101000a81548160ff021916908315150217905550813373ffffffffffffffffffffffffffffffffffffffff167fa36cc2bebb74db33e9f88110a07ef56e1b31b24b4c4f51b54b1664266e29f45b60405160405180910390a35050565b6001818154811061084057600080fd5b90600052602060002090600a020160009150905080600001549080600101805461086990612d56565b80601f016020809104026020016040519081016040528092919081815260200182805461089590612d56565b80156108e25780601f106108b7576101008083540402835291602001916108e2565b820191906000526020600020905b8154815290600101906020018083116108c557829003601f168201915b5050505050908060020180546108f790612d56565b80601f016020809104026020016040519081016040528092919081815260200182805461092390612d56565b80156109705780601f1061094557610100808354040283529160200191610970565b820191906000526020600020905b81548152906001019060200180831161095357829003601f168201915b50505050509080600301805461098590612d56565b80601f01602080910402602001604051908101604052809291908181526020018280546109b190612d56565b80156109fe5780601f106109d3576101008083540402835291602001916109fe565b820191906000526020600020905b8154815290600101906020018083116109e157829003601f168201915b505050505090806004018054610a1390612d56565b80601f0160208091040260200160405190810160405280929190818152602001828054610a3f90612d56565b8015610a8c5780601f10610a6157610100808354040283529160200191610a8c565b820191906000526020600020905b815481529060010190602001808311610a6f57829003601f168201915b505050505090806005018054610aa190612d56565b80601f0160208091040260200160405190810160405280929190818152602001828054610acd90612d56565b8015610b1a5780601f10610aef57610100808354040283529160200191610b1a565b820191906000526020600020905b815481529060010190602001808311610afd57829003601f168201915b505050505090806006018054610b2f90612d56565b80601f0160208091040260200160405190810160405280929190818152602001828054610b5b90612d56565b8015610ba85780601f10610b7d57610100808354040283529160200191610ba8565b820191906000526020600020905b815481529060010190602001808311610b8b57829003601f168201915b5050505050908060070154908060080160009054906101000a900460ff16905089565b60008054906101000a900473ffffffffffffffffffffffffffffffffffffffff1673ffffffffffffffffffffffffffffffffffffffff163373ffffffffffffffffffffffffffffffffffffffff1614610c59576040517f08c379a0000000000000000000000000000000000000000000000000000000008152600401610c5090612fb8565b60405180910390fd5b600060149054906101000a900460ff16610ca8576040517f08c379a0000000000000000000000000000000000000000000000000000000008152600401610c9f90612b77565b60405180910390fd5b60008060146101000a81548160ff021916908315150217905550565b60008054906101000a900473ffffffffffffffffffffffffffffffffffffffff1673ffffffffffffffffffffffffffffffffffffffff163373ffffffffffffffffffffffffffffffffffffffff1614610d52576040517f08c379a0000000000000000000000000000000000000000000000000000000008152600401610d4990612fb8565b60405180910390fd5b610d5a611d91565b6001600060146101000a81548160ff021916908315150217905550565b60068181548110610d8757600080fd5b906000526020600020016000915090508054610da290612d56565b80601f0160208091040260200160405190810160405280929190818152602001828054610dce90612d56565b8015610e1b5780601f10610df057610100808354040283529160200191610e1b565b820191906000526020600020905b815481529060010190602001808311610dfe57829003601f168201915b505050505081565b6002602052806000526040600020600091509050806000018054610e4690612d56565b80601f0160208091040260200160405190810160405280929190818152602001828054610e7290612d56565b8015610ebf5780601f10610e9457610100808354040283529160200191610ebf565b820191906000526020600020905b815481529060010190602001808311610ea257829003601f168201915b505050505090806001018054610ed490612d56565b80601f0160208091040260200160405190810160405280929190818152602001828054610f0090612d56565b8015610f4d5780601f10610f2257610100808354040283529160200191610f4d565b820191906000526020600020905b815481529060010190602001808311610f3057829003601f168201915b505050505090806002018054610f6290612d56565b80601f0160208091040260200160405190810160405280929190818152602001828054610f8e90612d56565b8015610fdb5780601f10610fb057610100808354040283529160200191610fdb565b820191906000526020600020905b815481529060010190602001808311610fbe57829003601f168201915b505050505090806003015490806004018054610ff690612d56565b80601f016020809104026020016040519081016040528092919081815260200182805461102290612d56565b801561106f5780601f106110445761010080835404028352916020019161106f565b820191906000526020600020905b81548152906001019060200180831161105257829003601f168201915b50505050509080600501805461108490612d56565b80601f01602080910402602001604051908101604052809291908181526020018280546110b090612d56565b80156110fd5780601f106110d2576101008083540402835291602001916110fd565b820191906000526020600020905b8154815290600101906020018083116110e057829003601f168201915b5050505050908060070160009054906101000a900460ff16905087565b6003818051602081018201805184825260208301602085012081835280955050505050506000915054906101000a900460ff1681565b60055481565b60008651118015611168575060008551115b6111a7576040517f08c379a000000000000000000000000000000000000000000000000000000000815260040161119e9061304a565b60405180910390fd5b60008451116111eb576040517f08c379a00000000000000000000000000000000000000000000000000000000081526004016111e2906130b6565b60405180910390fd5b601283101561122f576040517f08c379a000000000000000000000000000000000000000000000000000000000815260040161122690613148565b60405180910390fd5b60048460405161123f9190612e55565b908152602001604051809103902060009054906101000a900460ff161561129b576040517f08c379a0000000000000000000000000000000000000000000000000000000008152600401611292906131da565b60405180910390fd5b6000600260003373ffffffffffffffffffffffffffffffffffffffff1673ffffffffffffffffffffffffffffffffffffffff16815260200190815260200160002060000180546112ea90612d56565b90501461132c576040517f08c379a00000000000000000000000000000000000000000000000000000000081526004016113239061326c565b60405180910390fd5b6000600260003373ffffffffffffffffffffffffffffffffffffffff1673ffffffffffffffffffffffffffffffffffffffff1681526020019081526020016000209050868160000190816113809190613438565b50858160010190816113929190613438565b50848160020190816113a49190613438565b50838160030181905550828160040190816113bf9190613438565b50818160050190816113d19190613438565b5060008160070160006101000a81548160ff02191690831515021790555060016004866040516114019190612e55565b908152602001604051809103902060006101000a81548160ff0219169083151502179055503373ffffffffffffffffffffffffffffffffffffffff167fccad38708687df5dfce467bfbba52384231a28b8bd086df4175aa538a803f96b8888888888886040516114769695949392919061350a565b60405180910390a250505050505050565b600060149054906101000a900460ff1681565b6004818051602081018201805184825260208301602085012081835280955050505050506000915054906101000a900460ff1681565b60008054906101000a900473ffffffffffffffffffffffffffffffffffffffff1673ffffffffffffffffffffffffffffffffffffffff163373ffffffffffffffffffffffffffffffffffffffff161461155e576040517f08c379a000000000000000000000000000000000000000000000000000000000815260040161155590612fb8565b60405180910390fd5b816000805b6006805490508110156115f657826040516020016115819190612e55565b60405160208183030381529060405280519060200120600682815481106115ab576115aa612c66565b5b906000526020600020016040516020016115c59190613611565b60405160208183030381529060405280519060200120036115e957600191506115f6565b8080600101915050611563565b5080611637576040517f08c379a000000000000000000000000000000000000000000000000000000000815260040161162e90613674565b60405180910390fd5b600060149054906101000a900460ff1615611687576040517f08c379a000000000000000000000000000000000000000000000000000000000815260040161167e90613706565b60405180910390fd5b6003866040516116979190612e55565b908152602001604051809103902060009054906101000a900460ff16156116f3576040517f08c379a00000000000000000000000000000000000000000000000000000000081526004016116ea906131da565b60405180910390fd5b6005600081548092919061170690612efe565b91905055506060600160405180610140016040528060055481526020018b81526020018a8152602001898152602001888152602001878152602001868152602001600081526020016001151581526020018381525090806001815401808255809150506001900390600052602060002090600a02016000909190919091506000820151816000015560208201518160010190816117a39190613438565b5060408201518160020190816117b99190613438565b5060608201518160030190816117cf9190613438565b5060808201518160040190816117e59190613438565b5060a08201518160050190816117fb9190613438565b5060c08201518160060190816118119190613438565b5060e082015181600701556101008201518160080160006101000a81548160ff02191690831515021790555061012082015181600901908051906020019061185a929190611ffd565b505050600160038860405161186f9190612e55565b908152602001604051809103902060006101000a81548160ff0219169083151502179055507fcdc63be4a9722ee4b9b2d4e39199d658bd01d6a91201c97399dd7926ad13bd006005548a8a8a8a8a8a6040516118d19796959493929190613726565b60405180910390a1505050505050505050565b60008054906101000a900473ffffffffffffffffffffffffffffffffffffffff1681565b60606001805480602002602001604051908101604052809291908181526020016000905b82821015611d8857838290600052602060002090600a0201604051806101400160405290816000820154815260200160018201805461196a90612d56565b80601f016020809104026020016040519081016040528092919081815260200182805461199690612d56565b80156119e35780601f106119b8576101008083540402835291602001916119e3565b820191906000526020600020905b8154815290600101906020018083116119c657829003601f168201915b505050505081526020016002820180546119fc90612d56565b80601f0160208091040260200160405190810160405280929190818152602001828054611a2890612d56565b8015611a755780601f10611a4a57610100808354040283529160200191611a75565b820191906000526020600020905b815481529060010190602001808311611a5857829003601f168201915b50505050508152602001600382018054611a8e90612d56565b80601f0160208091040260200160405190810160405280929190818152602001828054611aba90612d56565b8015611b075780601f10611adc57610100808354040283529160200191611b07565b820191906000526020600020905b815481529060010190602001808311611aea57829003601f168201915b50505050508152602001600482018054611b2090612d56565b80601f0160208091040260200160405190810160405280929190818152602001828054611b4c90612d56565b8015611b995780601f10611b6e57610100808354040283529160200191611b99565b820191906000526020600020905b815481529060010190602001808311611b7c57829003601f168201915b50505050508152602001600582018054611bb290612d56565b80601f0160208091040260200160405190810160405280929190818152602001828054611bde90612d56565b8015611c2b5780601f10611c0057610100808354040283529160200191611c2b565b820191906000526020600020905b815481529060010190602001808311611c0e57829003601f168201915b50505050508152602001600682018054611c4490612d56565b80601f0160208091040260200160405190810160405280929190818152602001828054611c7090612d56565b8015611cbd5780601f10611c9257610100808354040283529160200191611cbd565b820191906000526020600020905b815481529060010190602001808311611ca057829003601f168201915b50505050508152602001600782015481526020016008820160009054906101000a900460ff1615151515815260200160098201805480602002602001604051908101604052809291908181526020018280548015611d7057602002820191906000526020600020905b8160009054906101000a900473ffffffffffffffffffffffffffffffffffffffff1673ffffffffffffffffffffffffffffffffffffffff1681526020019060010190808311611d26575b5050505050815250508152602001906001019061192c565b50505050905090565b60005b600180549050811015611ffa57600060018281548110611db757611db6612c66565b5b90600052602060002090600a02016007018190555060005b60018281548110611de357611de2612c66565b5b90600052602060002090600a020160090180549050811015611f6957600060018381548110611e1557611e14612c66565b5b90600052602060002090600a02016009018281548110611e3857611e37612c66565b5b9060005260206000200160009054906101000a900473ffffffffffffffffffffffffffffffffffffffff1690506000600260008373ffffffffffffffffffffffffffffffffffffffff1673ffffffffffffffffffffffffffffffffffffffff16815260200190815260200160002060070160006101000a81548160ff0219169083151502179055506000600260008373ffffffffffffffffffffffffffffffffffffffff1673ffffffffffffffffffffffffffffffffffffffff16815260200190815260200160002060060160018581548110611f1857611f17612c66565b5b90600052602060002090600a0201600501604051611f369190613611565b908152602001604051809103902060006101000a81548160ff021916908315150217905550508080600101915050611dcf565b50600067ffffffffffffffff811115611f8557611f846123d5565b5b604051908082528060200260200182016040528015611fb35781602001602082028036833780820191505090505b5060018281548110611fc857611fc7612c66565b5b90600052602060002090600a02016009019080519060200190611fec929190611ffd565b508080600101915050611d94565b50565b828054828255906000526020600020908101928215612076579160200282015b828111156120755782518260006101000a81548173ffffffffffffffffffffffffffffffffffffffff021916908373ffffffffffffffffffffffffffffffffffffffff1602179055509160200191906001019061201d565b5b5090506120839190612087565b5090565b5b808211156120a0576000816000905550600101612088565b5090565b6000604051905090565b600080fd5b600080fd5b6000819050919050565b6120cb816120b8565b81146120d657600080fd5b50565b6000813590506120e8816120c2565b92915050565b600060208284031215612104576121036120ae565b5b6000612112848285016120d9565b91505092915050565b612124816120b8565b82525050565b600081519050919050565b600082825260208201905092915050565b60005b83811015612164578082015181840152602081019050612149565b60008484015250505050565b6000601f19601f8301169050919050565b600061218c8261212a565b6121968185612135565b93506121a6818560208601612146565b6121af81612170565b840191505092915050565b60008115159050919050565b6121cf816121ba565b82525050565b6000610120820190506121eb600083018c61211b565b81810360208301526121fd818b612181565b90508181036040830152612211818a612181565b905081810360608301526122258189612181565b905081810360808301526122398188612181565b905081810360a083015261224d8187612181565b905081810360c08301526122618186612181565b905061227060e083018561211b565b61227e6101008301846121c6565b9a9950505050505050505050565b600060208201905081810360008301526122a68184612181565b905092915050565b600073ffffffffffffffffffffffffffffffffffffffff82169050919050565b60006122d9826122ae565b9050919050565b6122e9816122ce565b81146122f457600080fd5b50565b600081359050612306816122e0565b92915050565b600060208284031215612322576123216120ae565b5b6000612330848285016122f7565b91505092915050565b600060e0820190508181036000830152612353818a612181565b905081810360208301526123678189612181565b9050818103604083015261237b8188612181565b905061238a606083018761211b565b818103608083015261239c8186612181565b905081810360a08301526123b08185612181565b90506123bf60c08301846121c6565b98975050505050505050565b600080fd5b600080fd5b7f4e487b7100000000000000000000000000000000000000000000000000000000600052604160045260246000fd5b61240d82612170565b810181811067ffffffffffffffff8211171561242c5761242b6123d5565b5b80604052505050565b600061243f6120a4565b905061244b8282612404565b919050565b600067ffffffffffffffff82111561246b5761246a6123d5565b5b61247482612170565b9050602081019050919050565b82818337600083830152505050565b60006124a361249e84612450565b612435565b9050828152602081018484840111156124bf576124be6123d0565b5b6124ca848285612481565b509392505050565b600082601f8301126124e7576124e66123cb565b5b81356124f7848260208601612490565b91505092915050565b600060208284031215612516576125156120ae565b5b600082013567ffffffffffffffff811115612534576125336120b3565b5b612540848285016124d2565b91505092915050565b600060208201905061255e60008301846121c6565b92915050565b6000602082019050612579600083018461211b565b92915050565b60008060008060008060c0878903121561259c5761259b6120ae565b5b600087013567ffffffffffffffff8111156125ba576125b96120b3565b5b6125c689828a016124d2565b965050602087013567ffffffffffffffff8111156125e7576125e66120b3565b5b6125f389828a016124d2565b955050604087013567ffffffffffffffff811115612614576126136120b3565b5b61262089828a016124d2565b945050606061263189828a016120d9565b935050608087013567ffffffffffffffff811115612652576126516120b3565b5b61265e89828a016124d2565b92505060a087013567ffffffffffffffff81111561267f5761267e6120b3565b5b61268b89828a016124d2565b9150509295509295509295565b60008060008060008060c087890312156126b5576126b46120ae565b5b600087013567ffffffffffffffff8111156126d3576126d26120b3565b5b6126df89828a016124d2565b965050602087013567ffffffffffffffff811115612700576126ff6120b3565b5b61270c89828a016124d2565b955050604087013567ffffffffffffffff81111561272d5761272c6120b3565b5b61273989828a016124d2565b945050606087013567ffffffffffffffff81111561275a576127596120b3565b5b61276689828a016124d2565b935050608087013567ffffffffffffffff811115612787576127866120b3565b5b61279389828a016124d2565b92505060a087013567ffffffffffffffff8111156127b4576127b36120b3565b5b6127c089828a016124d2565b9150509295509295509295565b6127d6816122ce565b82525050565b60006020820190506127f160008301846127cd565b92915050565b600081519050919050565b600082825260208201905092915050565b6000819050602082019050919050565b61282c816120b8565b82525050565b600082825260208201905092915050565b600061284e8261212a565b6128588185612832565b9350612868818560208601612146565b61287181612170565b840191505092915050565b612885816121ba565b82525050565b600081519050919050565b600082825260208201905092915050565b6000819050602082019050919050565b6128c0816122ce565b82525050565b60006128d283836128b7565b60208301905092915050565b6000602082019050919050565b60006128f68261288b565b6129008185612896565b935061290b836128a7565b8060005b8381101561293c57815161292388826128c6565b975061292e836128de565b92505060018101905061290f565b5085935050505092915050565b6000610140830160008301516129626000860182612823565b506020830151848203602086015261297a8282612843565b915050604083015184820360408601526129948282612843565b915050606083015184820360608601526129ae8282612843565b915050608083015184820360808601526129c88282612843565b91505060a083015184820360a08601526129e28282612843565b91505060c083015184820360c08601526129fc8282612843565b91505060e0830151612a1160e0860182612823565b50610100830151612a2661010086018261287c565b50610120830151848203610120860152612a4082826128eb565b9150508091505092915050565b6000612a598383612949565b905092915050565b6000602082019050919050565b6000612a79826127f7565b612a838185612802565b935083602082028501612a9585612813565b8060005b85811015612ad15784840389528151612ab28582612a4d565b9450612abd83612a61565b925060208a01995050600181019050612a99565b50829750879550505050505092915050565b60006020820190508181036000830152612afd8184612a6e565b905092915050565b7f5f5f5f456c656374696f6e20686173206e6f742073746172746564207965745f60008201527f5f5f000000000000000000000000000000000000000000000000000000000000602082015250565b6000612b61602283612135565b9150612b6c82612b05565b604082019050919050565b60006020820190508181036000830152612b9081612b54565b9050919050565b7f5f5f5f496e76616c69642063616e6469646174652049445f5f5f000000000000600082015250565b6000612bcd601a83612135565b9150612bd882612b97565b602082019050919050565b60006020820190508181036000830152612bfc81612bc0565b9050919050565b7f4e487b7100000000000000000000000000000000000000000000000000000000600052601160045260246000fd5b6000612c3d826120b8565b9150612c48836120b8565b9250828203905081811115612c6057612c5f612c03565b5b92915050565b7f4e487b7100000000000000000000000000000000000000000000000000000000600052603260045260246000fd5b7f5f5f5f43616e646964617465206e6f7420666f756e64206f72206e6f7420726560008201527f67697374657265645f5f5f000000000000000000000000000000000000000000602082015250565b6000612cf1602b83612135565b9150612cfc82612c95565b604082019050919050565b60006020820190508181036000830152612d2081612ce4565b9050919050565b7f4e487b7100000000000000000000000000000000000000000000000000000000600052602260045260246000fd5b60006002820490506001821680612d6e57607f821691505b602082108103612d8157612d80612d27565b5b50919050565b7f5f5f5f596f7520617265206e6f742061207265676973746572656420766f746560008201527f725f5f5f00000000000000000000000000000000000000000000000000000000602082015250565b6000612de3602483612135565b9150612dee82612d87565b604082019050919050565b60006020820190508181036000830152612e1281612dd6565b9050919050565b600081905092915050565b6000612e2f8261212a565b612e398185612e19565b9350612e49818560208601612146565b80840191505092915050565b6000612e618284612e24565b915081905092915050565b7f5f5f5f596f75206861766520616c726561647920766f74656420666f7220612060008201527f63616e64696461746520696e207468697320706f736974696f6e5f5f5f000000602082015250565b6000612ec8603d83612135565b9150612ed382612e6c565b604082019050919050565b60006020820190508181036000830152612ef781612ebb565b9050919050565b6000612f09826120b8565b91507fffffffffffffffffffffffffffffffffffffffffffffffffffffffffffffffff8203612f3b57612f3a612c03565b5b600182019050919050565b7f5f5f5f4f6e6c792061646d696e2063616e20706572666f726d2074686973206f60008201527f7065726174696f6e5f5f5f000000000000000000000000000000000000000000602082015250565b6000612fa2602b83612135565b9150612fad82612f46565b604082019050919050565b60006020820190508181036000830152612fd181612f95565b9050919050565b7f5f5f5f4669727374206e616d6520616e64206c617374206e616d652063616e6e60008201527f6f7420626520656d7074795f5f5f000000000000000000000000000000000000602082015250565b6000613034602e83612135565b915061303f82612fd8565b604082019050919050565b6000602082019050818103600083015261306381613027565b9050919050565b7f5f5f5f456d61696c2063616e6e6f7420626520656d7074795f5f5f0000000000600082015250565b60006130a0601b83612135565b91506130ab8261306a565b602082019050919050565b600060208201905081810360008301526130cf81613093565b9050919050565b7f5f5f5f416765206d75737420626520657175616c20746f206f7220677265617460008201527f6572207468616e2031385f5f5f00000000000000000000000000000000000000602082015250565b6000613132602d83612135565b915061313d826130d6565b604082019050919050565b6000602082019050818103600083015261316181613125565b9050919050565b7f5f5f5f456d61696c206164647265737320616c7265616479206578697374735f60008201527f5f5f000000000000000000000000000000000000000000000000000000000000602082015250565b60006131c4602283612135565b91506131cf82613168565b604082019050919050565b600060208201905081810360008301526131f3816131b7565b9050919050565b7f5f5f5f596f752061726520616c7265616479206120726567697374657265642060008201527f766f7465725f5f5f000000000000000000000000000000000000000000000000602082015250565b6000613256602883612135565b9150613261826131fa565b604082019050919050565b6000602082019050818103600083015261328581613249565b9050919050565b60008190508160005260206000209050919050565b60006020601f8301049050919050565b600082821b905092915050565b6000600883026132ee7fffffffffffffffffffffffffffffffffffffffffffffffffffffffffffffffff826132b1565b6132f886836132b1565b95508019841693508086168417925050509392505050565b6000819050919050565b600061333561333061332b846120b8565b613310565b6120b8565b9050919050565b6000819050919050565b61334f8361331a565b61336361335b8261333c565b8484546132be565b825550505050565b600090565b61337861336b565b613383818484613346565b505050565b5b818110156133a75761339c600082613370565b600181019050613389565b5050565b601f8211156133ec576133bd8161328c565b6133c6846132a1565b810160208510156133d5578190505b6133e96133e1856132a1565b830182613388565b50505b505050565b600082821c905092915050565b600061340f600019846008026133f1565b1980831691505092915050565b600061342883836133fe565b9150826002028217905092915050565b6134418261212a565b67ffffffffffffffff81111561345a576134596123d5565b5b6134648254612d56565b61346f8282856133ab565b600060209050601f8311600181146134a25760008415613490578287015190505b61349a858261341c565b865550613502565b601f1984166134b08661328c565b60005b828110156134d8578489015182556001820191506020850194506020810190506134b3565b868310156134f557848901516134f1601f8916826133fe565b8355505b6001600288020188555050505b505050505050565b600060c08201905081810360008301526135248189612181565b905081810360208301526135388188612181565b9050818103604083015261354c8187612181565b905061355b606083018661211b565b818103608083015261356d8185612181565b905081810360a08301526135818184612181565b9050979650505050505050565b6000815461359b81612d56565b6135a58186612e19565b945060018216600081146135c057600181146135d557613608565b60ff1983168652811515820286019350613608565b6135de8561328c565b60005b83811015613600578154818901526001820191506020810190506135e1565b838801955050505b50505092915050565b600061361d828461358e565b915081905092915050565b7f5f5f5f496e76616c696420706f736974696f6e5f5f5f00000000000000000000600082015250565b600061365e601683612135565b915061366982613628565b602082019050919050565b6000602082019050818103600083015261368d81613651565b9050919050565b7f5f5f5f43616e6e6f742072656769737465722063616e6469646174657320616660008201527f74657220656c656374696f6e2068617320737461727465645f5f5f0000000000602082015250565b60006136f0603b83612135565b91506136fb82613694565b604082019050919050565b6000602082019050818103600083015261371f816136e3565b9050919050565b600060e08201905061373b600083018a61211b565b818103602083015261374d8189612181565b905081810360408301526137618188612181565b905081810360608301526137758187612181565b905081810360808301526137898186612181565b905081810360a083015261379d8185612181565b905081810360c08301526137b18184612181565b90509897505050505050505056fea26469706673582212205cc2e0e2853c4ed6c5db122cd287065eff48dec503b0c74ae0e815e21c53235164736f6c63430008180033",
  "linkReferences": {},
  "deployedLinkReferences": {}
}