{
  "_format": "hh-sol-artifact-1",
  "contractName": "Election",
  "sourceName": "contracts/Election.sol",
  "abi": [
    {
      "inputs": [
        {
          "internalType": "string[]",
          "name": "_firstNames",
          "type": "string[]"
        },
        {
          "internalType": "string[]",
          "name": "_lastNames",
          "type": "string[]"
        },
        {
          "internalType": "string[]",
          "name": "_emails",
          "type": "string[]"
        },
        {
          "internalType": "string[]",
          "name": "_genders",
          "type": "string[]"
        },
        {
          "internalType": "string[]",
          "name": "_positions",
          "type": "string[]"
        },
        {
          "internalType": "string[]",
          "name": "_manifestos",
          "type": "string[]"
        }
      ],
      "stateMutability": "nonpayable",
      "type": "constructor"
    },
    {
      "anonymous": false,
      "inputs": [
        {
          "indexed": false,
          "internalType": "uint256",
          "name": "id",
          "type": "uint256"
        },
        {
          "indexed": false,
          "internalType": "string",
          "name": "firstName",
          "type": "string"
        },
        {
          "indexed": false,
          "internalType": "string",
          "name": "lastName",
          "type": "string"
        },
        {
          "indexed": false,
          "internalType": "string",
          "name": "email",
          "type": "string"
        },
        {
          "indexed": false,
          "internalType": "string",
          "name": "gender",
          "type": "string"
        },
        {
          "indexed": false,
          "internalType": "string",
          "name": "position",
          "type": "string"
        },
        {
          "indexed": false,
          "internalType": "string",
          "name": "manifesto",
          "type": "string"
        }
      ],
      "name": "CandidateRegistered",
      "type": "event"
    },
    {
      "anonymous": false,
      "inputs": [
        {
          "indexed": false,
          "internalType": "string",
          "name": "position",
          "type": "string"
        },
        {
          "indexed": false,
          "internalType": "string",
          "name": "winner",
          "type": "string"
        }
      ],
      "name": "ElectionResult",
      "type": "event"
    },
    {
      "anonymous": false,
      "inputs": [
        {
          "indexed": false,
          "internalType": "string",
          "name": "position",
          "type": "string"
        },
        {
          "indexed": false,
          "internalType": "string",
          "name": "winner",
          "type": "string"
        },
        {
          "indexed": false,
          "internalType": "uint256",
          "name": "voteCount",
          "type": "uint256"
        }
      ],
      "name": "ElectionResultss",
      "type": "event"
    },
    {
      "anonymous": false,
      "inputs": [
        {
          "indexed": true,
          "internalType": "address",
          "name": "voterAddress",
          "type": "address"
        },
        {
          "indexed": true,
          "internalType": "uint256",
          "name": "candidateId",
          "type": "uint256"
        }
      ],
      "name": "VoteCast",
      "type": "event"
    },
    {
      "anonymous": false,
      "inputs": [
        {
          "indexed": true,
          "internalType": "address",
          "name": "voterAddress",
          "type": "address"
        },
        {
          "indexed": false,
          "internalType": "string",
          "name": "firstName",
          "type": "string"
        },
        {
          "indexed": false,
          "internalType": "string",
          "name": "lastName",
          "type": "string"
        },
        {
          "indexed": false,
          "internalType": "string",
          "name": "email",
          "type": "string"
        },
        {
          "indexed": false,
          "internalType": "uint256",
          "name": "age",
          "type": "uint256"
        },
        {
          "indexed": false,
          "internalType": "string",
          "name": "gender",
          "type": "string"
        },
        {
          "indexed": false,
          "internalType": "string",
          "name": "nationality",
          "type": "string"
        }
      ],
      "name": "VoterRegistered",
      "type": "event"
    },
    {
      "inputs": [],
      "name": "admin",
      "outputs": [
        {
          "internalType": "address",
          "name": "",
          "type": "address"
        }
      ],
      "stateMutability": "view",
      "type": "function"
    },
    {
      "inputs": [],
      "name": "candidateCount",
      "outputs": [
        {
          "internalType": "uint256",
          "name": "",
          "type": "uint256"
        }
      ],
      "stateMutability": "view",
      "type": "function"
    },
    {
      "inputs": [
        {
          "internalType": "string",
          "name": "",
          "type": "string"
        }
      ],
      "name": "candidateEmailExists",
      "outputs": [
        {
          "internalType": "bool",
          "name": "",
          "type": "bool"
        }
      ],
      "stateMutability": "view",
      "type": "function"
    },
    {
      "inputs": [
        {
          "internalType": "uint256",
          "name": "",
          "type": "uint256"
        }
      ],
      "name": "candidates",
      "outputs": [
        {
          "internalType": "uint256",
          "name": "id",
          "type": "uint256"
        },
        {
          "internalType": "string",
          "name": "firstName",
          "type": "string"
        },
        {
          "internalType": "string",
          "name": "lastName",
          "type": "string"
        },
        {
          "internalType": "string",
          "name": "email",
          "type": "string"
        },
        {
          "internalType": "string",
          "name": "gender",
          "type": "string"
        },
        {
          "internalType": "string",
          "name": "position",
          "type": "string"
        },
        {
          "internalType": "string",
          "name": "manifesto",
          "type": "string"
        },
        {
          "internalType": "uint256",
          "name": "voteCount",
          "type": "uint256"
        },
        {
          "internalType": "bool",
          "name": "registered",
          "type": "bool"
        }
      ],
      "stateMutability": "view",
      "type": "function"
    },
    {
      "inputs": [],
      "name": "electionStarted",
      "outputs": [
        {
          "internalType": "bool",
          "name": "",
          "type": "bool"
        }
      ],
      "stateMutability": "view",
      "type": "function"
    },
    {
      "inputs": [],
      "name": "endElection",
      "outputs": [],
      "stateMutability": "nonpayable",
      "type": "function"
    },
    {
      "inputs": [],
      "name": "getCandidateList",
      "outputs": [
        {
          "components": [
            {
              "internalType": "uint256",
              "name": "id",
              "type": "uint256"
            },
            {
              "internalType": "string",
              "name": "firstName",
              "type": "string"
            },
            {
              "internalType": "string",
              "name": "lastName",
              "type": "string"
            },
            {
              "internalType": "string",
              "name": "email",
              "type": "string"
            },
            {
              "internalType": "string",
              "name": "gender",
              "type": "string"
            },
            {
              "internalType": "string",
              "name": "position",
              "type": "string"
            },
            {
              "internalType": "string",
              "name": "manifesto",
              "type": "string"
            },
            {
              "internalType": "uint256",
              "name": "voteCount",
              "type": "uint256"
            },
            {
              "internalType": "bool",
              "name": "registered",
              "type": "bool"
            },
            {
              "internalType": "address[]",
              "name": "votersWhoVotedForCandidate",
              "type": "address[]"
            }
          ],
          "internalType": "struct Election.Candidate[]",
          "name": "",
          "type": "tuple[]"
        }
      ],
      "stateMutability": "view",
      "type": "function"
    },
    {
      "inputs": [
        {
          "internalType": "address",
          "name": "_voterAddress",
          "type": "address"
        }
      ],
      "name": "getVoterDetails",
      "outputs": [
        {
          "internalType": "string",
          "name": "firstName",
          "type": "string"
        },
        {
          "internalType": "string",
          "name": "lastName",
          "type": "string"
        },
        {
          "internalType": "string",
          "name": "email",
          "type": "string"
        },
        {
          "internalType": "uint256",
          "name": "age",
          "type": "uint256"
        },
        {
          "internalType": "string",
          "name": "gender",
          "type": "string"
        },
        {
          "internalType": "string",
          "name": "nationality",
          "type": "string"
        },
        {
          "internalType": "bool",
          "name": "voted",
          "type": "bool"
        }
      ],
      "stateMutability": "view",
      "type": "function"
    },
    {
      "inputs": [
        {
          "internalType": "uint256",
          "name": "",
          "type": "uint256"
        }
      ],
      "name": "positions",
      "outputs": [
        {
          "internalType": "string",
          "name": "",
          "type": "string"
        }
      ],
      "stateMutability": "view",
      "type": "function"
    },
    {
      "inputs": [
        {
          "internalType": "string",
          "name": "_firstName",
          "type": "string"
        },
        {
          "internalType": "string",
          "name": "_lastName",
          "type": "string"
        },
        {
          "internalType": "string",
          "name": "_email",
          "type": "string"
        },
        {
          "internalType": "string",
          "name": "_gender",
          "type": "string"
        },
        {
          "internalType": "string",
          "name": "_position",
          "type": "string"
        },
        {
          "internalType": "string",
          "name": "_manifesto",
          "type": "string"
        }
      ],
      "name": "registerCandidate",
      "outputs": [],
      "stateMutability": "nonpayable",
      "type": "function"
    },
    {
      "inputs": [
        {
          "internalType": "string",
          "name": "_firstName",
          "type": "string"
        },
        {
          "internalType": "string",
          "name": "_lastName",
          "type": "string"
        },
        {
          "internalType": "string",
          "name": "_email",
          "type": "string"
        },
        {
          "internalType": "uint256",
          "name": "_age",
          "type": "uint256"
        },
        {
          "internalType": "string",
          "name": "_gender",
          "type": "string"
        },
        {
          "internalType": "string",
          "name": "_nationality",
          "type": "string"
        }
      ],
      "name": "registerVoter",
      "outputs": [],
      "stateMutability": "nonpayable",
      "type": "function"
    },
    {
      "inputs": [],
      "name": "startElection",
      "outputs": [],
      "stateMutability": "nonpayable",
      "type": "function"
    },
    {
      "inputs": [
        {
          "internalType": "uint256",
          "name": "_candidateId",
          "type": "uint256"
        }
      ],
      "name": "vote",
      "outputs": [],
      "stateMutability": "nonpayable",
      "type": "function"
    },
    {
      "inputs": [
        {
          "internalType": "string",
          "name": "",
          "type": "string"
        }
      ],
      "name": "voterEmailExists",
      "outputs": [
        {
          "internalType": "bool",
          "name": "",
          "type": "bool"
        }
      ],
      "stateMutability": "view",
      "type": "function"
    },
    {
      "inputs": [
        {
          "internalType": "address",
          "name": "",
          "type": "address"
        }
      ],
      "name": "voters",
      "outputs": [
        {
          "internalType": "string",
          "name": "firstName",
          "type": "string"
        },
        {
          "internalType": "string",
          "name": "lastName",
          "type": "string"
        },
        {
          "internalType": "string",
          "name": "email",
          "type": "string"
        },
        {
          "internalType": "uint256",
          "name": "age",
          "type": "uint256"
        },
        {
          "internalType": "string",
          "name": "gender",
          "type": "string"
        },
        {
          "internalType": "string",
          "name": "nationality",
          "type": "string"
        },
        {
          "internalType": "bool",
          "name": "voted",
          "type": "bool"
        }
      ],
      "stateMutability": "view",
      "type": "function"
    }
  ],
  "bytecode": "0x608060405260405180606001604052806040518060400160405280600981526020017f507265736964656e74000000000000000000000000000000000000000000000081525081526020016040518060400160405280600e81526020017f5669636520507265736964656e7400000000000000000000000000000000000081525081526020016040518060400160405280600781526020017f53656e61746f72000000000000000000000000000000000000000000000000008152508152506006906003620000d09291906200050f565b50348015620000de57600080fd5b5060405162004cac38038062004cac83398181016040528101906200010491906200091a565b336000806101000a81548173ffffffffffffffffffffffffffffffffffffffff021916908373ffffffffffffffffffffffffffffffffffffffff1602179055508451865114801562000157575083518551145b801562000165575082518451145b801562000173575081518351145b801562000181575080518251145b620001c3576040517f08c379a0000000000000000000000000000000000000000000000000000000008152600401620001ba9062000ad1565b60405180910390fd5b60005b8651811015620004fa5760606001604051806101400160405280600185620001ef919062000b2c565b81526020018a85815181106200020a576200020962000b67565b5b602002602001015181526020018985815181106200022d576200022c62000b67565b5b6020026020010151815260200188858151811062000250576200024f62000b67565b5b6020026020010151815260200187858151811062000273576200027262000b67565b5b6020026020010151815260200186858151811062000296576200029562000b67565b5b60200260200101518152602001858581518110620002b957620002b862000b67565b5b60200260200101518152602001600081526020016001151581526020018381525090806001815401808255809150506001900390600052602060002090600a020160009091909190915060008201518160000155602082015181600101908162000324919062000dd7565b5060408201518160020190816200033c919062000dd7565b50606082015181600301908162000354919062000dd7565b5060808201518160040190816200036c919062000dd7565b5060a082015181600501908162000384919062000dd7565b5060c08201518160060190816200039c919062000dd7565b5060e082015181600701556101008201518160080160006101000a81548160ff021916908315150217905550610120820151816009019080519060200190620003e79291906200056f565b5050507fcdc63be4a9722ee4b9b2d4e39199d658bd01d6a91201c97399dd7926ad13bd006001836200041a919062000b2c565b89848151811062000430576200042f62000b67565b5b60200260200101518985815181106200044e576200044d62000b67565b5b60200260200101518986815181106200046c576200046b62000b67565b5b60200260200101518987815181106200048a576200048962000b67565b5b6020026020010151898881518110620004a857620004a762000b67565b5b6020026020010151898981518110620004c657620004c562000b67565b5b6020026020010151604051620004e3979695949392919062000f10565b60405180910390a1508080600101915050620001c6565b50855160058190555050505050505062000fb7565b8280548282559060005260206000209081019282156200055c579160200282015b828111156200055b5782518290816200054a919062000dd7565b509160200191906001019062000530565b5b5090506200056b9190620005fe565b5090565b828054828255906000526020600020908101928215620005eb579160200282015b82811115620005ea5782518260006101000a81548173ffffffffffffffffffffffffffffffffffffffff021916908373ffffffffffffffffffffffffffffffffffffffff1602179055509160200191906001019062000590565b5b509050620005fa919062000626565b5090565b5b8082111562000622576000818162000618919062000645565b50600101620005ff565b5090565b5b808211156200064157600081600090555060010162000627565b5090565b508054620006539062000bd0565b6000825580601f1062000667575062000688565b601f01602090049060005260206000209081019062000687919062000626565b5b50565b6000604051905090565b600080fd5b600080fd5b600080fd5b6000601f19601f8301169050919050565b7f4e487b7100000000000000000000000000000000000000000000000000000000600052604160045260246000fd5b620006ef82620006a4565b810181811067ffffffffffffffff82111715620007115762000710620006b5565b5b80604052505050565b6000620007266200068b565b9050620007348282620006e4565b919050565b600067ffffffffffffffff821115620007575762000756620006b5565b5b602082029050602081019050919050565b600080fd5b600080fd5b600067ffffffffffffffff82111562000790576200078f620006b5565b5b6200079b82620006a4565b9050602081019050919050565b60005b83811015620007c8578082015181840152602081019050620007ab565b60008484015250505050565b6000620007eb620007e58462000772565b6200071a565b9050828152602081018484840111156200080a57620008096200076d565b5b62000817848285620007a8565b509392505050565b600082601f8301126200083757620008366200069f565b5b815162000849848260208601620007d4565b91505092915050565b600062000869620008638462000739565b6200071a565b905080838252602082019050602084028301858111156200088f576200088e62000768565b5b835b81811015620008dd57805167ffffffffffffffff811115620008b857620008b76200069f565b5b808601620008c789826200081f565b8552602085019450505060208101905062000891565b5050509392505050565b600082601f830112620008ff57620008fe6200069f565b5b81516200091184826020860162000852565b91505092915050565b60008060008060008060c087890312156200093a576200093962000695565b5b600087015167ffffffffffffffff8111156200095b576200095a6200069a565b5b6200096989828a01620008e7565b965050602087015167ffffffffffffffff8111156200098d576200098c6200069a565b5b6200099b89828a01620008e7565b955050604087015167ffffffffffffffff811115620009bf57620009be6200069a565b5b620009cd89828a01620008e7565b945050606087015167ffffffffffffffff811115620009f157620009f06200069a565b5b620009ff89828a01620008e7565b935050608087015167ffffffffffffffff81111562000a235762000a226200069a565b5b62000a3189828a01620008e7565b92505060a087015167ffffffffffffffff81111562000a555762000a546200069a565b5b62000a6389828a01620008e7565b9150509295509295509295565b600082825260208201905092915050565b7f5f5f5f496e76616c696420696e707574206c656e677468735f5f5f0000000000600082015250565b600062000ab9601b8362000a70565b915062000ac68262000a81565b602082019050919050565b6000602082019050818103600083015262000aec8162000aaa565b9050919050565b6000819050919050565b7f4e487b7100000000000000000000000000000000000000000000000000000000600052601160045260246000fd5b600062000b398262000af3565b915062000b468362000af3565b925082820190508082111562000b615762000b6062000afd565b5b92915050565b7f4e487b7100000000000000000000000000000000000000000000000000000000600052603260045260246000fd5b600081519050919050565b7f4e487b7100000000000000000000000000000000000000000000000000000000600052602260045260246000fd5b6000600282049050600182168062000be957607f821691505b60208210810362000bff5762000bfe62000ba1565b5b50919050565b60008190508160005260206000209050919050565b60006020601f8301049050919050565b600082821b905092915050565b60006008830262000c697fffffffffffffffffffffffffffffffffffffffffffffffffffffffffffffffff8262000c2a565b62000c75868362000c2a565b95508019841693508086168417925050509392505050565b6000819050919050565b600062000cb862000cb262000cac8462000af3565b62000c8d565b62000af3565b9050919050565b6000819050919050565b62000cd48362000c97565b62000cec62000ce38262000cbf565b84845462000c37565b825550505050565b600090565b62000d0362000cf4565b62000d1081848462000cc9565b505050565b5b8181101562000d385762000d2c60008262000cf9565b60018101905062000d16565b5050565b601f82111562000d875762000d518162000c05565b62000d5c8462000c1a565b8101602085101562000d6c578190505b62000d8462000d7b8562000c1a565b83018262000d15565b50505b505050565b600082821c905092915050565b600062000dac6000198460080262000d8c565b1980831691505092915050565b600062000dc7838362000d99565b9150826002028217905092915050565b62000de28262000b96565b67ffffffffffffffff81111562000dfe5762000dfd620006b5565b5b62000e0a825462000bd0565b62000e1782828562000d3c565b600060209050601f83116001811462000e4f576000841562000e3a578287015190505b62000e46858262000db9565b86555062000eb6565b601f19841662000e5f8662000c05565b60005b8281101562000e895784890151825560018201915060208501945060208101905062000e62565b8683101562000ea9578489015162000ea5601f89168262000d99565b8355505b6001600288020188555050505b505050505050565b62000ec98162000af3565b82525050565b600062000edc8262000b96565b62000ee8818562000a70565b935062000efa818560208601620007a8565b62000f0581620006a4565b840191505092915050565b600060e08201905062000f27600083018a62000ebe565b818103602083015262000f3b818962000ecf565b9050818103604083015262000f51818862000ecf565b9050818103606083015262000f67818762000ecf565b9050818103608083015262000f7d818662000ecf565b905081810360a083015262000f93818562000ecf565b905081810360c083015262000fa9818462000ecf565b905098975050505050505050565b613ce58062000fc76000396000f3fe608060405234801561001057600080fd5b50600436106100f55760003560e01c8063a9a981a311610097578063dec963d511610066578063dec963d514610286578063f1a68302146102b6578063f851a440146102d2578063fdbc4006146102f0576100f5565b8063a9a981a3146101f8578063b70ddeed14610216578063ba71bef014610232578063d5346da114610268576100f5565b806362d73eb8116100d357806362d73eb81461015857806399fbab8814610162578063a3ec138d14610192578063a5499a31146101c8576100f5565b80630121b93f146100fa5780633477ee2e1461011657806359f784681461014e575b600080fd5b610114600480360381019061010f91906125de565b61030e565b005b610130600480360381019061012b91906125de565b610871565b604051610145999897969594939291906126c5565b60405180910390f35b610156610c0c565b005b610160610d05565b005b61017c600480360381019061017791906125de565b610db8565b604051610189919061277c565b60405180910390f35b6101ac60048036038101906101a791906127fc565b610e64565b6040516101bf9796959493929190612829565b60405180910390f35b6101e260048036038101906101dd91906129f0565b61115b565b6040516101ef9190612a39565b60405180910390f35b610200611191565b60405161020d9190612a54565b60405180910390f35b610230600480360381019061022b9190612a6f565b611197565b005b61024c600480360381019061024791906127fc565b6114c8565b60405161025f9796959493929190612829565b60405180910390f35b610270611977565b60405161027d9190612a39565b60405180910390f35b6102a0600480360381019061029b91906129f0565b61198a565b6040516102ad9190612a39565b60405180910390f35b6102d060048036038101906102cb9190612b88565b6119c0565b005b6102da611dd4565b6040516102e79190612ccc565b60405180910390f35b6102f8611df8565b6040516103059190612fd3565b60405180910390f35b600060149054906101000a900460ff1661035d576040517f08c379a000000000000000000000000000000000000000000000000000000000815260040161035490613067565b60405180910390fd5b60008111801561037257506001805490508111155b6103b1576040517f08c379a00000000000000000000000000000000000000000000000000000000081526004016103a8906130d3565b60405180910390fd5b600180826103bf9190613122565b815481106103d0576103cf613156565b5b90600052602060002090600a020160080160009054906101000a900460ff1661042e576040517f08c379a0000000000000000000000000000000000000000000000000000000008152600401610425906131f7565b60405180910390fd5b6000600260003373ffffffffffffffffffffffffffffffffffffffff1673ffffffffffffffffffffffffffffffffffffffff168152602001908152602001600020600001805461047d90613246565b9050116104bf576040517f08c379a00000000000000000000000000000000000000000000000000000000081526004016104b6906132e9565b60405180910390fd5b6000600180836104cf9190613122565b815481106104e0576104df613156565b5b90600052602060002090600a020160050180546104fc90613246565b80601f016020809104026020016040519081016040528092919081815260200182805461052890613246565b80156105755780601f1061054a57610100808354040283529160200191610575565b820191906000526020600020905b81548152906001019060200180831161055857829003601f168201915b50505050509050600260003373ffffffffffffffffffffffffffffffffffffffff1673ffffffffffffffffffffffffffffffffffffffff168152602001908152602001600020600601816040516105cc9190613345565b908152602001604051809103902060009054906101000a900460ff1615806106415750600260003373ffffffffffffffffffffffffffffffffffffffff1673ffffffffffffffffffffffffffffffffffffffff16815260200190815260200160002060070160009054906101000a900460ff16155b610680576040517f08c379a0000000000000000000000000000000000000000000000000000000008152600401610677906133ce565b60405180910390fd5b6001808361068e9190613122565b8154811061069f5761069e613156565b5b90600052602060002090600a020160070160008154809291906106c1906133ee565b9190505550600180836106d49190613122565b815481106106e5576106e4613156565b5b90600052602060002090600a0201600901339080600181540180825580915050600190039060005260206000200160009091909190916101000a81548173ffffffffffffffffffffffffffffffffffffffff021916908373ffffffffffffffffffffffffffffffffffffffff1602179055506001600260003373ffffffffffffffffffffffffffffffffffffffff1673ffffffffffffffffffffffffffffffffffffffff168152602001908152602001600020600601826040516107a99190613345565b908152602001604051809103902060006101000a81548160ff0219169083151502179055506001600260003373ffffffffffffffffffffffffffffffffffffffff1673ffffffffffffffffffffffffffffffffffffffff16815260200190815260200160002060070160006101000a81548160ff021916908315150217905550813373ffffffffffffffffffffffffffffffffffffffff167fa36cc2bebb74db33e9f88110a07ef56e1b31b24b4c4f51b54b1664266e29f45b60405160405180910390a35050565b6001818154811061088157600080fd5b90600052602060002090600a02016000915090508060000154908060010180546108aa90613246565b80601f01602080910402602001604051908101604052809291908181526020018280546108d690613246565b80156109235780601f106108f857610100808354040283529160200191610923565b820191906000526020600020905b81548152906001019060200180831161090657829003601f168201915b50505050509080600201805461093890613246565b80601f016020809104026020016040519081016040528092919081815260200182805461096490613246565b80156109b15780601f10610986576101008083540402835291602001916109b1565b820191906000526020600020905b81548152906001019060200180831161099457829003601f168201915b5050505050908060030180546109c690613246565b80601f01602080910402602001604051908101604052809291908181526020018280546109f290613246565b8015610a3f5780601f10610a1457610100808354040283529160200191610a3f565b820191906000526020600020905b815481529060010190602001808311610a2257829003601f168201915b505050505090806004018054610a5490613246565b80601f0160208091040260200160405190810160405280929190818152602001828054610a8090613246565b8015610acd5780601f10610aa257610100808354040283529160200191610acd565b820191906000526020600020905b815481529060010190602001808311610ab057829003601f168201915b505050505090806005018054610ae290613246565b80601f0160208091040260200160405190810160405280929190818152602001828054610b0e90613246565b8015610b5b5780601f10610b3057610100808354040283529160200191610b5b565b820191906000526020600020905b815481529060010190602001808311610b3e57829003601f168201915b505050505090806006018054610b7090613246565b80601f0160208091040260200160405190810160405280929190818152602001828054610b9c90613246565b8015610be95780601f10610bbe57610100808354040283529160200191610be9565b820191906000526020600020905b815481529060010190602001808311610bcc57829003601f168201915b5050505050908060070154908060080160009054906101000a900460ff16905089565b60008054906101000a900473ffffffffffffffffffffffffffffffffffffffff1673ffffffffffffffffffffffffffffffffffffffff163373ffffffffffffffffffffffffffffffffffffffff1614610c9a576040517f08c379a0000000000000000000000000000000000000000000000000000000008152600401610c91906134a8565b60405180910390fd5b600060149054906101000a900460ff16610ce9576040517f08c379a0000000000000000000000000000000000000000000000000000000008152600401610ce090613067565b60405180910390fd5b60008060146101000a81548160ff021916908315150217905550565b60008054906101000a900473ffffffffffffffffffffffffffffffffffffffff1673ffffffffffffffffffffffffffffffffffffffff163373ffffffffffffffffffffffffffffffffffffffff1614610d93576040517f08c379a0000000000000000000000000000000000000000000000000000000008152600401610d8a906134a8565b60405180910390fd5b610d9b612281565b6001600060146101000a81548160ff021916908315150217905550565b60068181548110610dc857600080fd5b906000526020600020016000915090508054610de390613246565b80601f0160208091040260200160405190810160405280929190818152602001828054610e0f90613246565b8015610e5c5780601f10610e3157610100808354040283529160200191610e5c565b820191906000526020600020905b815481529060010190602001808311610e3f57829003601f168201915b505050505081565b6002602052806000526040600020600091509050806000018054610e8790613246565b80601f0160208091040260200160405190810160405280929190818152602001828054610eb390613246565b8015610f005780601f10610ed557610100808354040283529160200191610f00565b820191906000526020600020905b815481529060010190602001808311610ee357829003601f168201915b505050505090806001018054610f1590613246565b80601f0160208091040260200160405190810160405280929190818152602001828054610f4190613246565b8015610f8e5780601f10610f6357610100808354040283529160200191610f8e565b820191906000526020600020905b815481529060010190602001808311610f7157829003601f168201915b505050505090806002018054610fa390613246565b80601f0160208091040260200160405190810160405280929190818152602001828054610fcf90613246565b801561101c5780601f10610ff15761010080835404028352916020019161101c565b820191906000526020600020905b815481529060010190602001808311610fff57829003601f168201915b50505050509080600301549080600401805461103790613246565b80601f016020809104026020016040519081016040528092919081815260200182805461106390613246565b80156110b05780601f10611085576101008083540402835291602001916110b0565b820191906000526020600020905b81548152906001019060200180831161109357829003601f168201915b5050505050908060050180546110c590613246565b80601f01602080910402602001604051908101604052809291908181526020018280546110f190613246565b801561113e5780601f106111135761010080835404028352916020019161113e565b820191906000526020600020905b81548152906001019060200180831161112157829003601f168201915b5050505050908060070160009054906101000a900460ff16905087565b6003818051602081018201805184825260208301602085012081835280955050505050506000915054906101000a900460ff1681565b60055481565b600086511180156111a9575060008551115b6111e8576040517f08c379a00000000000000000000000000000000000000000000000000000000081526004016111df9061353a565b60405180910390fd5b600084511161122c576040517f08c379a0000000000000000000000000000000000000000000000000000000008152600401611223906135a6565b60405180910390fd5b6012831015611270576040517f08c379a000000000000000000000000000000000000000000000000000000000815260040161126790613638565b60405180910390fd5b6004846040516112809190613345565b908152602001604051809103902060009054906101000a900460ff16156112dc576040517f08c379a00000000000000000000000000000000000000000000000000000000081526004016112d3906136ca565b60405180910390fd5b6000600260003373ffffffffffffffffffffffffffffffffffffffff1673ffffffffffffffffffffffffffffffffffffffff168152602001908152602001600020600001805461132b90613246565b90501461136d576040517f08c379a00000000000000000000000000000000000000000000000000000000081526004016113649061375c565b60405180910390fd5b6000600260003373ffffffffffffffffffffffffffffffffffffffff1673ffffffffffffffffffffffffffffffffffffffff1681526020019081526020016000209050868160000190816113c19190613928565b50858160010190816113d39190613928565b50848160020190816113e59190613928565b50838160030181905550828160040190816114009190613928565b50818160050190816114129190613928565b5060008160070160006101000a81548160ff02191690831515021790555060016004866040516114429190613345565b908152602001604051809103902060006101000a81548160ff0219169083151502179055503373ffffffffffffffffffffffffffffffffffffffff167fccad38708687df5dfce467bfbba52384231a28b8bd086df4175aa538a803f96b8888888888886040516114b7969594939291906139fa565b60405180910390a250505050505050565b606080606060006060806000600260008973ffffffffffffffffffffffffffffffffffffffff1673ffffffffffffffffffffffffffffffffffffffff168152602001908152602001600020600001805461152190613246565b80601f016020809104026020016040519081016040528092919081815260200182805461154d90613246565b801561159a5780601f1061156f5761010080835404028352916020019161159a565b820191906000526020600020905b81548152906001019060200180831161157d57829003601f168201915b50505050509650600260008973ffffffffffffffffffffffffffffffffffffffff1673ffffffffffffffffffffffffffffffffffffffff16815260200190815260200160002060010180546115ee90613246565b80601f016020809104026020016040519081016040528092919081815260200182805461161a90613246565b80156116675780601f1061163c57610100808354040283529160200191611667565b820191906000526020600020905b81548152906001019060200180831161164a57829003601f168201915b50505050509550600260008973ffffffffffffffffffffffffffffffffffffffff1673ffffffffffffffffffffffffffffffffffffffff16815260200190815260200160002060020180546116bb90613246565b80601f01602080910402602001604051908101604052809291908181526020018280546116e790613246565b80156117345780601f1061170957610100808354040283529160200191611734565b820191906000526020600020905b81548152906001019060200180831161171757829003601f168201915b50505050509450600260008973ffffffffffffffffffffffffffffffffffffffff1673ffffffffffffffffffffffffffffffffffffffff168152602001908152602001600020600301549350600260008973ffffffffffffffffffffffffffffffffffffffff1673ffffffffffffffffffffffffffffffffffffffff16815260200190815260200160002060040180546117cd90613246565b80601f01602080910402602001604051908101604052809291908181526020018280546117f990613246565b80156118465780601f1061181b57610100808354040283529160200191611846565b820191906000526020600020905b81548152906001019060200180831161182957829003601f168201915b50505050509250600260008973ffffffffffffffffffffffffffffffffffffffff1673ffffffffffffffffffffffffffffffffffffffff168152602001908152602001600020600501805461189a90613246565b80601f01602080910402602001604051908101604052809291908181526020018280546118c690613246565b80156119135780601f106118e857610100808354040283529160200191611913565b820191906000526020600020905b8154815290600101906020018083116118f657829003601f168201915b50505050509150600260008973ffffffffffffffffffffffffffffffffffffffff1673ffffffffffffffffffffffffffffffffffffffff16815260200190815260200160002060070160009054906101000a900460ff169050919395979092949650565b600060149054906101000a900460ff1681565b6004818051602081018201805184825260208301602085012081835280955050505050506000915054906101000a900460ff1681565b60008054906101000a900473ffffffffffffffffffffffffffffffffffffffff1673ffffffffffffffffffffffffffffffffffffffff163373ffffffffffffffffffffffffffffffffffffffff1614611a4e576040517f08c379a0000000000000000000000000000000000000000000000000000000008152600401611a45906134a8565b60405180910390fd5b816000805b600680549050811015611ae65782604051602001611a719190613345565b6040516020818303038152906040528051906020012060068281548110611a9b57611a9a613156565b5b90600052602060002001604051602001611ab59190613b01565b6040516020818303038152906040528051906020012003611ad95760019150611ae6565b8080600101915050611a53565b5080611b27576040517f08c379a0000000000000000000000000000000000000000000000000000000008152600401611b1e90613b64565b60405180910390fd5b600060149054906101000a900460ff1615611b77576040517f08c379a0000000000000000000000000000000000000000000000000000000008152600401611b6e90613bf6565b60405180910390fd5b600386604051611b879190613345565b908152602001604051809103902060009054906101000a900460ff1615611be3576040517f08c379a0000000000000000000000000000000000000000000000000000000008152600401611bda906136ca565b60405180910390fd5b60056000815480929190611bf6906133ee565b91905055506060600160405180610140016040528060055481526020018b81526020018a8152602001898152602001888152602001878152602001868152602001600081526020016001151581526020018381525090806001815401808255809150506001900390600052602060002090600a0201600090919091909150600082015181600001556020820151816001019081611c939190613928565b506040820151816002019081611ca99190613928565b506060820151816003019081611cbf9190613928565b506080820151816004019081611cd59190613928565b5060a0820151816005019081611ceb9190613928565b5060c0820151816006019081611d019190613928565b5060e082015181600701556101008201518160080160006101000a81548160ff021916908315150217905550610120820151816009019080519060200190611d4a9291906124ed565b5050506001600388604051611d5f9190613345565b908152602001604051809103902060006101000a81548160ff0219169083151502179055507fcdc63be4a9722ee4b9b2d4e39199d658bd01d6a91201c97399dd7926ad13bd006005548a8a8a8a8a8a604051611dc19796959493929190613c16565b60405180910390a1505050505050505050565b60008054906101000a900473ffffffffffffffffffffffffffffffffffffffff1681565b60606001805480602002602001604051908101604052809291908181526020016000905b8282101561227857838290600052602060002090600a02016040518061014001604052908160008201548152602001600182018054611e5a90613246565b80601f0160208091040260200160405190810160405280929190818152602001828054611e8690613246565b8015611ed35780601f10611ea857610100808354040283529160200191611ed3565b820191906000526020600020905b815481529060010190602001808311611eb657829003601f168201915b50505050508152602001600282018054611eec90613246565b80601f0160208091040260200160405190810160405280929190818152602001828054611f1890613246565b8015611f655780601f10611f3a57610100808354040283529160200191611f65565b820191906000526020600020905b815481529060010190602001808311611f4857829003601f168201915b50505050508152602001600382018054611f7e90613246565b80601f0160208091040260200160405190810160405280929190818152602001828054611faa90613246565b8015611ff75780601f10611fcc57610100808354040283529160200191611ff7565b820191906000526020600020905b815481529060010190602001808311611fda57829003601f168201915b5050505050815260200160048201805461201090613246565b80601f016020809104026020016040519081016040528092919081815260200182805461203c90613246565b80156120895780601f1061205e57610100808354040283529160200191612089565b820191906000526020600020905b81548152906001019060200180831161206c57829003601f168201915b505050505081526020016005820180546120a290613246565b80601f01602080910402602001604051908101604052809291908181526020018280546120ce90613246565b801561211b5780601f106120f05761010080835404028352916020019161211b565b820191906000526020600020905b8154815290600101906020018083116120fe57829003601f168201915b5050505050815260200160068201805461213490613246565b80601f016020809104026020016040519081016040528092919081815260200182805461216090613246565b80156121ad5780601f10612182576101008083540402835291602001916121ad565b820191906000526020600020905b81548152906001019060200180831161219057829003601f168201915b50505050508152602001600782015481526020016008820160009054906101000a900460ff161515151581526020016009820180548060200260200160405190810160405280929190818152602001828054801561226057602002820191906000526020600020905b8160009054906101000a900473ffffffffffffffffffffffffffffffffffffffff1673ffffffffffffffffffffffffffffffffffffffff1681526020019060010190808311612216575b50505050508152505081526020019060010190611e1c565b50505050905090565b60005b6001805490508110156124ea576000600182815481106122a7576122a6613156565b5b90600052602060002090600a02016007018190555060005b600182815481106122d3576122d2613156565b5b90600052602060002090600a0201600901805490508110156124595760006001838154811061230557612304613156565b5b90600052602060002090600a0201600901828154811061232857612327613156565b5b9060005260206000200160009054906101000a900473ffffffffffffffffffffffffffffffffffffffff1690506000600260008373ffffffffffffffffffffffffffffffffffffffff1673ffffffffffffffffffffffffffffffffffffffff16815260200190815260200160002060070160006101000a81548160ff0219169083151502179055506000600260008373ffffffffffffffffffffffffffffffffffffffff1673ffffffffffffffffffffffffffffffffffffffff1681526020019081526020016000206006016001858154811061240857612407613156565b5b90600052602060002090600a02016005016040516124269190613b01565b908152602001604051809103902060006101000a81548160ff0219169083151502179055505080806001019150506122bf565b50600067ffffffffffffffff811115612475576124746128c5565b5b6040519080825280602002602001820160405280156124a35781602001602082028036833780820191505090505b50600182815481106124b8576124b7613156565b5b90600052602060002090600a020160090190805190602001906124dc9291906124ed565b508080600101915050612284565b50565b828054828255906000526020600020908101928215612566579160200282015b828111156125655782518260006101000a81548173ffffffffffffffffffffffffffffffffffffffff021916908373ffffffffffffffffffffffffffffffffffffffff1602179055509160200191906001019061250d565b5b5090506125739190612577565b5090565b5b80821115612590576000816000905550600101612578565b5090565b6000604051905090565b600080fd5b600080fd5b6000819050919050565b6125bb816125a8565b81146125c657600080fd5b50565b6000813590506125d8816125b2565b92915050565b6000602082840312156125f4576125f361259e565b5b6000612602848285016125c9565b91505092915050565b612614816125a8565b82525050565b600081519050919050565b600082825260208201905092915050565b60005b83811015612654578082015181840152602081019050612639565b60008484015250505050565b6000601f19601f8301169050919050565b600061267c8261261a565b6126868185612625565b9350612696818560208601612636565b61269f81612660565b840191505092915050565b60008115159050919050565b6126bf816126aa565b82525050565b6000610120820190506126db600083018c61260b565b81810360208301526126ed818b612671565b90508181036040830152612701818a612671565b905081810360608301526127158189612671565b905081810360808301526127298188612671565b905081810360a083015261273d8187612671565b905081810360c08301526127518186612671565b905061276060e083018561260b565b61276e6101008301846126b6565b9a9950505050505050505050565b600060208201905081810360008301526127968184612671565b905092915050565b600073ffffffffffffffffffffffffffffffffffffffff82169050919050565b60006127c98261279e565b9050919050565b6127d9816127be565b81146127e457600080fd5b50565b6000813590506127f6816127d0565b92915050565b6000602082840312156128125761281161259e565b5b6000612820848285016127e7565b91505092915050565b600060e0820190508181036000830152612843818a612671565b905081810360208301526128578189612671565b9050818103604083015261286b8188612671565b905061287a606083018761260b565b818103608083015261288c8186612671565b905081810360a08301526128a08185612671565b90506128af60c08301846126b6565b98975050505050505050565b600080fd5b600080fd5b7f4e487b7100000000000000000000000000000000000000000000000000000000600052604160045260246000fd5b6128fd82612660565b810181811067ffffffffffffffff8211171561291c5761291b6128c5565b5b80604052505050565b600061292f612594565b905061293b82826128f4565b919050565b600067ffffffffffffffff82111561295b5761295a6128c5565b5b61296482612660565b9050602081019050919050565b82818337600083830152505050565b600061299361298e84612940565b612925565b9050828152602081018484840111156129af576129ae6128c0565b5b6129ba848285612971565b509392505050565b600082601f8301126129d7576129d66128bb565b5b81356129e7848260208601612980565b91505092915050565b600060208284031215612a0657612a0561259e565b5b600082013567ffffffffffffffff811115612a2457612a236125a3565b5b612a30848285016129c2565b91505092915050565b6000602082019050612a4e60008301846126b6565b92915050565b6000602082019050612a69600083018461260b565b92915050565b60008060008060008060c08789031215612a8c57612a8b61259e565b5b600087013567ffffffffffffffff811115612aaa57612aa96125a3565b5b612ab689828a016129c2565b965050602087013567ffffffffffffffff811115612ad757612ad66125a3565b5b612ae389828a016129c2565b955050604087013567ffffffffffffffff811115612b0457612b036125a3565b5b612b1089828a016129c2565b9450506060612b2189828a016125c9565b935050608087013567ffffffffffffffff811115612b4257612b416125a3565b5b612b4e89828a016129c2565b92505060a087013567ffffffffffffffff811115612b6f57612b6e6125a3565b5b612b7b89828a016129c2565b9150509295509295509295565b60008060008060008060c08789031215612ba557612ba461259e565b5b600087013567ffffffffffffffff811115612bc357612bc26125a3565b5b612bcf89828a016129c2565b965050602087013567ffffffffffffffff811115612bf057612bef6125a3565b5b612bfc89828a016129c2565b955050604087013567ffffffffffffffff811115612c1d57612c1c6125a3565b5b612c2989828a016129c2565b945050606087013567ffffffffffffffff811115612c4a57612c496125a3565b5b612c5689828a016129c2565b935050608087013567ffffffffffffffff811115612c7757612c766125a3565b5b612c8389828a016129c2565b92505060a087013567ffffffffffffffff811115612ca457612ca36125a3565b5b612cb089828a016129c2565b9150509295509295509295565b612cc6816127be565b82525050565b6000602082019050612ce16000830184612cbd565b92915050565b600081519050919050565b600082825260208201905092915050565b6000819050602082019050919050565b612d1c816125a8565b82525050565b600082825260208201905092915050565b6000612d3e8261261a565b612d488185612d22565b9350612d58818560208601612636565b612d6181612660565b840191505092915050565b612d75816126aa565b82525050565b600081519050919050565b600082825260208201905092915050565b6000819050602082019050919050565b612db0816127be565b82525050565b6000612dc28383612da7565b60208301905092915050565b6000602082019050919050565b6000612de682612d7b565b612df08185612d86565b9350612dfb83612d97565b8060005b83811015612e2c578151612e138882612db6565b9750612e1e83612dce565b925050600181019050612dff565b5085935050505092915050565b600061014083016000830151612e526000860182612d13565b5060208301518482036020860152612e6a8282612d33565b91505060408301518482036040860152612e848282612d33565b91505060608301518482036060860152612e9e8282612d33565b91505060808301518482036080860152612eb88282612d33565b91505060a083015184820360a0860152612ed28282612d33565b91505060c083015184820360c0860152612eec8282612d33565b91505060e0830151612f0160e0860182612d13565b50610100830151612f16610100860182612d6c565b50610120830151848203610120860152612f308282612ddb565b9150508091505092915050565b6000612f498383612e39565b905092915050565b6000602082019050919050565b6000612f6982612ce7565b612f738185612cf2565b935083602082028501612f8585612d03565b8060005b85811015612fc15784840389528151612fa28582612f3d565b9450612fad83612f51565b925060208a01995050600181019050612f89565b50829750879550505050505092915050565b60006020820190508181036000830152612fed8184612f5e565b905092915050565b7f5f5f5f456c656374696f6e20686173206e6f742073746172746564207965745f60008201527f5f5f000000000000000000000000000000000000000000000000000000000000602082015250565b6000613051602283612625565b915061305c82612ff5565b604082019050919050565b6000602082019050818103600083015261308081613044565b9050919050565b7f5f5f5f496e76616c69642063616e6469646174652049445f5f5f000000000000600082015250565b60006130bd601a83612625565b91506130c882613087565b602082019050919050565b600060208201905081810360008301526130ec816130b0565b9050919050565b7f4e487b7100000000000000000000000000000000000000000000000000000000600052601160045260246000fd5b600061312d826125a8565b9150613138836125a8565b92508282039050818111156131505761314f6130f3565b5b92915050565b7f4e487b7100000000000000000000000000000000000000000000000000000000600052603260045260246000fd5b7f5f5f5f43616e646964617465206e6f7420666f756e64206f72206e6f7420726560008201527f67697374657265645f5f5f000000000000000000000000000000000000000000602082015250565b60006131e1602b83612625565b91506131ec82613185565b604082019050919050565b60006020820190508181036000830152613210816131d4565b9050919050565b7f4e487b7100000000000000000000000000000000000000000000000000000000600052602260045260246000fd5b6000600282049050600182168061325e57607f821691505b60208210810361327157613270613217565b5b50919050565b7f5f5f5f596f7520617265206e6f742061207265676973746572656420766f746560008201527f725f5f5f00000000000000000000000000000000000000000000000000000000602082015250565b60006132d3602483612625565b91506132de82613277565b604082019050919050565b60006020820190508181036000830152613302816132c6565b9050919050565b600081905092915050565b600061331f8261261a565b6133298185613309565b9350613339818560208601612636565b80840191505092915050565b60006133518284613314565b915081905092915050565b7f5f5f5f596f75206861766520616c726561647920766f74656420666f7220612060008201527f63616e64696461746520696e207468697320706f736974696f6e5f5f5f000000602082015250565b60006133b8603d83612625565b91506133c38261335c565b604082019050919050565b600060208201905081810360008301526133e7816133ab565b9050919050565b60006133f9826125a8565b91507fffffffffffffffffffffffffffffffffffffffffffffffffffffffffffffffff820361342b5761342a6130f3565b5b600182019050919050565b7f5f5f5f4f6e6c792061646d696e2063616e20706572666f726d2074686973206f60008201527f7065726174696f6e5f5f5f000000000000000000000000000000000000000000602082015250565b6000613492602b83612625565b915061349d82613436565b604082019050919050565b600060208201905081810360008301526134c181613485565b9050919050565b7f5f5f5f4669727374206e616d6520616e64206c617374206e616d652063616e6e60008201527f6f7420626520656d7074795f5f5f000000000000000000000000000000000000602082015250565b6000613524602e83612625565b915061352f826134c8565b604082019050919050565b6000602082019050818103600083015261355381613517565b9050919050565b7f5f5f5f456d61696c2063616e6e6f7420626520656d7074795f5f5f0000000000600082015250565b6000613590601b83612625565b915061359b8261355a565b602082019050919050565b600060208201905081810360008301526135bf81613583565b9050919050565b7f5f5f5f416765206d75737420626520657175616c20746f206f7220677265617460008201527f6572207468616e2031385f5f5f00000000000000000000000000000000000000602082015250565b6000613622602d83612625565b915061362d826135c6565b604082019050919050565b6000602082019050818103600083015261365181613615565b9050919050565b7f5f5f5f456d61696c206164647265737320616c7265616479206578697374735f60008201527f5f5f000000000000000000000000000000000000000000000000000000000000602082015250565b60006136b4602283612625565b91506136bf82613658565b604082019050919050565b600060208201905081810360008301526136e3816136a7565b9050919050565b7f5f5f5f596f752061726520616c7265616479206120726567697374657265642060008201527f766f7465725f5f5f000000000000000000000000000000000000000000000000602082015250565b6000613746602883612625565b9150613751826136ea565b604082019050919050565b6000602082019050818103600083015261377581613739565b9050919050565b60008190508160005260206000209050919050565b60006020601f8301049050919050565b600082821b905092915050565b6000600883026137de7fffffffffffffffffffffffffffffffffffffffffffffffffffffffffffffffff826137a1565b6137e886836137a1565b95508019841693508086168417925050509392505050565b6000819050919050565b600061382561382061381b846125a8565b613800565b6125a8565b9050919050565b6000819050919050565b61383f8361380a565b61385361384b8261382c565b8484546137ae565b825550505050565b600090565b61386861385b565b613873818484613836565b505050565b5b818110156138975761388c600082613860565b600181019050613879565b5050565b601f8211156138dc576138ad8161377c565b6138b684613791565b810160208510156138c5578190505b6138d96138d185613791565b830182613878565b50505b505050565b600082821c905092915050565b60006138ff600019846008026138e1565b1980831691505092915050565b600061391883836138ee565b9150826002028217905092915050565b6139318261261a565b67ffffffffffffffff81111561394a576139496128c5565b5b6139548254613246565b61395f82828561389b565b600060209050601f8311600181146139925760008415613980578287015190505b61398a858261390c565b8655506139f2565b601f1984166139a08661377c565b60005b828110156139c8578489015182556001820191506020850194506020810190506139a3565b868310156139e557848901516139e1601f8916826138ee565b8355505b6001600288020188555050505b505050505050565b600060c0820190508181036000830152613a148189612671565b90508181036020830152613a288188612671565b90508181036040830152613a3c8187612671565b9050613a4b606083018661260b565b8181036080830152613a5d8185612671565b905081810360a0830152613a718184612671565b9050979650505050505050565b60008154613a8b81613246565b613a958186613309565b94506001821660008114613ab05760018114613ac557613af8565b60ff1983168652811515820286019350613af8565b613ace8561377c565b60005b83811015613af057815481890152600182019150602081019050613ad1565b838801955050505b50505092915050565b6000613b0d8284613a7e565b915081905092915050565b7f5f5f5f496e76616c696420706f736974696f6e5f5f5f00000000000000000000600082015250565b6000613b4e601683612625565b9150613b5982613b18565b602082019050919050565b60006020820190508181036000830152613b7d81613b41565b9050919050565b7f5f5f5f43616e6e6f742072656769737465722063616e6469646174657320616660008201527f74657220656c656374696f6e2068617320737461727465645f5f5f0000000000602082015250565b6000613be0603b83612625565b9150613beb82613b84565b604082019050919050565b60006020820190508181036000830152613c0f81613bd3565b9050919050565b600060e082019050613c2b600083018a61260b565b8181036020830152613c3d8189612671565b90508181036040830152613c518188612671565b90508181036060830152613c658187612671565b90508181036080830152613c798186612671565b905081810360a0830152613c8d8185612671565b905081810360c0830152613ca18184612671565b90509897505050505050505056fea26469706673582212202f662ca9bffbe022bb5d636990542a8d6917738c65727b9fff0552b65a0dc0e464736f6c63430008180033",
  "linkReferences": {},
  "deployedLinkReferences": {}
}